:400000000040002011000000750200007502000010B500F05BFE00F089FA00F033F9C04610B512222D4B1A6000F026FE2C4800F0F3FE182000F0A2FD00F038FD012100203C
:4000400000F0B6FC274C284B2360782000F0E4FE264B2360002404E0F02000F0DDFE0134E4B2182C03D8224B1B68002BF4D00322204B1A60204B1B68002B03DA1F4B1B687E
:40008000DB0718D51E4A1368802109060B431360002309E01A4A11680220014311601168814311600133DBB2042BF3D9144A13685B005B0813600024124B1C6012490D2064
:4000C00000F0BEFC0D2000F0AFFC104B1C60002000F004FE1122014B1A6010BD30001040001BB70014002F4008070280080702C018002F4000002F4008002F400C002F40C0
:4001000020002F4028000340710D00000C02224010B572B6EE221202054B1A60DB22D201044B1A60FFF77CFF00F098F810BDC046000302400803044010B5064C2378002B2E
:4001400007D1054B002B02D0044800E000BF0123237010BD4801002000000000D80E0000084B10B5002B03D00749084800E000BF07480368002B00D110BD064B002BFBD07D
:400180009847F9E7000000004C010020D80E0000B80000200000000070B584B010220021684600F08DFE1C4B6A4623CB23C21B4B039301210C2000F001F906000F2810D93C
:4001C00010226946164800F063FE00280CD121E05D1C1978124BE01800F0B8F801342B0004E000246B4601E000246B460F2CEFD90F2E0FD810210B4800F0A8F800210A48ED
:4002000000F0A4F80021094800F0A0F80021084800F09CF804B070BD00130000000F0000B0FE0100E0FE0100E1FE0100E2FE0100E3FE010010B5FFF7AFFF00F0E5F90120B7
:4002400000F06CF8FA246400200000F017FC002000F064F8200000F011FCF0E70322034B1A601D32024B1A607047C04630003040000E3F4010B500F0DFFD03680C2B00D134
:40028000FEE7FEE770B50F4E0F4D13E029686B68AC68002202E001C901C30432A242FAD1E868002202E0002102C304328242FAD11035013E002EE9D100F0C4FDFFF7BAFFE9
:4002C000FEE7C046010000006C13000010B500230AE0032B03D89A000B49505800E00B4899000B4A885001332B2BF2D9FFF710FF084B1B68002B02D10022064B1A6080226C
:400300009205054B1A6010BD000000007502000000000020B000002008ED00E004490A68D2B210239A4300011840104308607047000304400047C04610B58022024B1A6073
:4003400000F090FB10BDC046B000002070B5C0B0050AFF2304009C43002304E01A5D6E46F25401339BB2FF2BF8D9FF2318406B461B5C8B4206D06B4619542804000C694678
:4003800000F02CFA40B070BD70B50500012812D80EE0611B4B425941C9B223061B1B1802054B9C466044FFF7D1FF0134E4B200E00024012CEDD970BDD0FF010010B50C28F4
:4003C00063D88000404B1B589F460B06591A0B023E4A9446634401225CE00B06591A0B023B4A94466344042254E00B06591A0B02384A9446634402224CE00B06591A0B0200
:40040000354A94466344042244E00B06591A0B02324A9446634401223CE00B06591A0B022F4A94466344012234E00B06591A0B022C4A9446634402222CE00B06591A0B029A
:40044000294A94466344022224E00B06591A0B02264A9446634402221CE00B06591A0B02234A94466344042214E00B06591A0B02204A9446634401220CE00B06591A0B0209
:400480001D4A94466344042204E0002000F0D6FA02220023012A02D11878C0B200E00020022A03D11978587800020843042A09D11A785878000210439A7812041043DB78E8
:4004C0001B06184310BDC04610130000C0FF0100C1FF0100C5FF0100C9FF0100D0FF0100D1FF0100D6FF0100D2FF0100D4FF0100D8FF0100DCFF0100E0FF010010B50021E4
:400500000520FFF75BFFC4B201210520FFF756FFC0B2002C02D0002804D106E0002803D0012002E0032000E0022010BD70B5104B1B68DB0602D400220E4B1A600D4B1B6871
:40054000802B13D1FFF7DAFF04000022094B1A6001000220FFF732FF002807D0012C05D821000220FFF72AFFFFF7E4FE70BDC04654000340B000002070B5050001000320B4
:40058000FFF71CFF441C240229000420FFF716FF2418012D2ED829000620FFF70FFF01282AD029000320FFF709FF013000020023002608E001784A1ED2B2FD2A00D801262D
:4005C0005B18DBB20130A042F4D35B42DCB229000120FFF7F3FE844210D1002E10D02B065D1B2802074B9C4660440121FFF7AEFE002006E0062004E0002002E0062000E089
:40060000062070BDD1FF010070B50020FFF7B4FF05000120FFF7B0FF06000222274B1A7000210520FFF7CAFE01280DD1002D04D10022224B1A70002409E0002E06D101225C
:400640001E4B1A70002402E0062400E006241B4B1B78022B12D101210520FFF7AFFE01280CD1002E04D10122144B1A70002405E0002D03D10022114B1A7000240F4B1B7822
:40068000022B0CD1002D04D100220C4B1A70002405E0002E03D10122084B1A700024002C04D1064B1878C0B2FFF76EFE002C02D0002000F0C3F9FFF73FFE70BDBC00002040
:4006C00082B0134B0093134B0193134B6A461A601249134A1160C0461B681B0F1B07F0221206934204D10C4B1B68FF2018400DE0094B1B681B0F1B07A0221206934204D0A7
:40070000054B1B68FF20184000E0002002B07047B6E9000064010020080010401600008004001040104B114A1A601149114A1160C0461B681B0F1B07F0221206934204D1A1
:40074000094B1B68FF2018400DE0074B1B681B0F1B07A0221206934204D0034B1B68FF20184000E00020704708001040B6E80000150000800400104082B0134B0093134B3B
:400780000193134B6A461A601249134A1160C0461B681B0F1B07F0221206934204D10C4B1B68FF2018400DE0094B1B681B0F1B07A0221206934204D0054B1B68FF2018401D
:4007C00000E0002002B07047B6EA00006401002008001040170000800400104030B5C5B004000023439342933D4B984273D8002971D08022520002A800F059FB394B0093EC
:40080000FF230193384B6A461A603849384A1160C0461B681B0F1B07F0221206934204D1314B1B68FF2213400DE02F4B1B681B0F1B07A0221206934204D02B4B1B68FF22F2
:40084000134000E000234393439B002B45D100F0ECFA0500FFF734FF4290429B002B02D1FFF760FF4390439B002B25D1214A0092009A2404144300941B4A694611601E48C0
:400880001B490860C0461268120F1207F02109068A4204D1144B1B68FF2213400BE0124A1268120F1207A02109068A4203D00E4B1B68FF2213404393429B002B07D1FFF735
:4008C0005BFF4290429B002B01D0429B4393280000F0AFFA01E004234393439845B030BDFF010000B6D70000080010400400008004001040B6D800000500008070B50400EB
:4009000000F093FA0500102C05D8104A136803218B43136016E0202C07D80C490B6803229343023A13430B600CE0302C07D807490B6803229343013A13430B6002E000201E
:4009400000F07CF8280000F074FA70BD300010400C4B1B689B001C22134018330A4A1268920803210A40D34008490868084A02400A60084A944663441B78DBB2064A136031
:400980007047C046080F03402800034000002240FFFFFFBF4DF3FF0F0C0F0340034B18688023DB05184000D0012070470000224070B505000C0000F038FA002D29D116495A
:4009C0000A680235AA4363002C001C4014430C60124B1B68002B03DA114B1B68DB0718D5104A1368802109060B431360002309E00C4A11680224214311601168A143116033
:400A00000133DBB2042BF3D9064A13685B005B08136000F00EFA70BD00002F4008002F400C002F4020002F401F2318401E3B8340014A13607047C04600E100E001BE704781
:400A400070B504000D001B2802D90020FFF7F6FF1034A40080239B059C4664442068256070BDC046034A13681B041B0C02490B43136070470CED00E00400FA0510B50400AC
:400A800006E0084B586800F0C7F9074B9C46644480231B029C42F4D8024B9868604300F0BBF910BDC80000200080FFFF70B582B000F002F900284DD000F0B7F90500264BE3
:400AC0001A6892001C231A401832244B1B689B0803210B40DA400021214B1960214C2168214B0B4021494A438021C9018C466244D20B013A5205520D1343A02252031343C3
:400B000023601B4B1B6801933020FFF7F7FE194A13688021C9050B4313602668164B1E40002407E00120FFF7A9FF1034A30533430C4A1360EE2CF5D90120FFF79FFFFF236B
:400B40009B051E43074B1E60019A094B1A60280000F06FF902B070BD080F0340280003400C0F03400800224000F800C040420F003000104000002240FFFF3FC0F0B583B04F
:400B8000040018280BD01C2809D0202807D0242805D0282803D02C2801D0302849D100F044F90190FFF7FAFE002803D0FFF7D0FE012600E00026214A136807218B43136018
:400BC0001F4BE3181B78DBB21E4A13601E4A13688B4313601D4803687F22934319001C4BE3181B7813400B430360322000F014F9182C16D9114F3B680725AB431A0023003C
:400C00001C3B9B082B4013433B60322000F004F93A68AA432300183B9B082C001C4014433C60012E01D1FFF741FF019800F001F902E00020FFF702FF03B0F0BD080F03408F
:400C40004DF3FF0F0C0F0340100F0340180F034034F3FF0F10B5034B1B7B584300F0DCF810BDC046C8000020024B1868800F80077047C0460C02224010B50D4B1A68012133
:400C80008A431A601A68022082431A60094A10683024A043203C204310601068093CA043014311601A68802109060A431A6010BD00002240000F2240034B1B68002B01DA14
:400CC000012000E00020704700002240014A024B1A6070476588EDAC3800034010B50400FFF7C2FFA0421AD0144A136803218B431360134B1B689B0F01D17C2001E08620E6
:400D00004000FFF7A7FF00F090F80D4A13689B009B08A40FA4071C43146000F08AF8074B1B6803229343064A1268920F01D1023200E001221343014A136010BD140222400F
:400D40000C02224010B5040000F06FF8054B1C4005490B68054A134023430B600B6800F068F810BD0404040010022240FBFBFBFF10B5244B1B685B0715D5234B1B685B07AD
:400D80000ED5224B5969042001401F4C22688A4322605A6982435A619B68002B00D098470420FFF7CFFF174B1B685B0518D5164B1B685B0510D5154B59698022D20011402E
:400DC000114802688A4302605969114A0A405A61DB68002B00D098478020C000FFF7B2FF084B1B685B030CD5074B1B685B0304D5064B1B69002B00D098478020C002FFF793
:400E0000A1FF10BD10022240DC0000207C010020FFFBFFFF000000000230800803D001300238FCD1C046C0467047EFF3108072B6704780F310887047014B18687047C0461C
:400E4000400100200E4B70B500251E000D4CE41AA410A54204D0AB00F35898470135F8E700F072FA084B00251E00084CE41AA410A54204D0AB00F35898470135F8E770BDD6
:400E80005413000054130000541300005C13000030B50024A24208D0035D651C0C5DA34201D0181B02E02C00F4E7002030BD002310B59A4203D0CC5CC4540133F9E710BDE8
:400EC00003008218934202D019700133FAE77047001500006900000000000000000000000000000000000000000000000000000000000000000000000000000000000000DB
:400F000000000000000000000000000000000000000000000000000000000000000000000000000000000000000000000000000000000000000000000000000000000000B1
:400F40000000000000000000000000000000000000000000000000000000000000000000000000000000000000000000000000000000000000000000000000000000000071
:400F80000000000000000000000000000000000000000000000000000000000000000000000000000000000000000000000000000000000000000000000000000000000031
:400FC00000000000000000000000000000000000000000000000000000000000000000000000000000000000000000000000000000000000000000000000000000000000F1
:4010000000000000000000000000000000000000000000000000000000000000000000000000000000000000000000000000000000000000000000000000000000000000B0
:401040000000000000000000000000000000000000000000000000000000000000000000000000000000000000000000000000000000000000000000000000000000000070
:401080000000000000000000000000000000000000000000000000000000000000000000000000000000000000000000000000000000000000000000000000000000000030
:4010C00000000000000000000000000000000000000000000000000000000000000000000000000000000000000000000000000000000000000000000000000000000000F0
:4011000000000000000000000000000000000000000000000000000000000000000000000000000000000000000000000000000000000000000000000000000000000000AF
:40114000000000000000000000000000000000000000000000000000000000000000000000000000000000000000000000000000000000000000000000000000000000006F
:40118000000000000000000000000000000000000000000000000000000000000000000000000000000000000000000000000000000000000000000000000000000000002F
:4011C00000000000000000000000000000000000000000000000000000000000000000000000000000000000000000000000000000000000000000000000000000000000EF
:4012000000000000000000000000000000000000000000000000000000000000000000000000000000000000000000000000000000000000000000000000000000000000AE
:40124000000000000000000000000000000000000000000000000000000000000000000000000000000000000000000000000000000000000000000000000000000000006E
:40128000000000000000000000000000000000000000000000000000000000000000000000000000000000000000000000000000000000000000000000000000000000002E
:4012C00000000000000000000000000000000000000000000000000000000000000000000000000000000000000000000000000000000000000000000000000000000000EE
:40130000800000000200000001000000000000008A040000CA030000DA030000EA030000FA0300000A0400001A0400003A0400002A0400004A0400005A0400006A04000056
:401340007A04000043000000F8B5C046F8BC08BC9E46704761010000CD020000F8B5C046F8BC08BC9E4670473901000080130000B80000209000000050000000000000006A
:401380000000000002000000D00E0000D40E0000010000000000E02EC05D00001800000000366E010404040000000000000000000000000000000000000000000000000076
:4013C0000000000000000000441300000000000000000000000000000000000000000000000000000000000000000000000000000000000000000000000000000000000096
:401400000000000000000000E000002000000000000000000000000000000000000000000000000000000000000000000000000000000000000000000000000000000000AC
:40144000000000000000000000000000000000000000000000000000000000000000000000000000000000000000000000000000000000000000000000000000000000006C
:40148000000000000000000000000000000000000000000000000000000000000000000000000000000000000000000000000000000000000000000000000000000000002C
:4014C00000000000000000000000000000000000000000000000000000000000000000000000000000000000000000000000000000000000000000000000000000000000EC
:4015000000000000000000000000000000000000000000000000000000000000000000000000000000000000000000000000000000000000000000000000000000000000AB
:4020000000400020112000009D8100009D81000010B5034B83F3088808F0EAFD06F0DEF80040002010B51222474B1A6008F0B0FD464809F01DFA182008F0F4FC08F08AFCC9
:402040000121002008F0CEFB414C424B2360782009F00EFA404B2360002404E0F02009F007FA0134E4B2182C03D83C4B1B68002BF4D003223A4B1A603A4B1B68002B03DAF0
:40208000394B1B68DB0718D5384A1368802109060B431360002309E0344A11680220014311601168814311600133DBB2042BF3D92E4A13685B005B08136000242C4B1C605D
:4020C0002C4B2D4A1A60982149012C4A11602C4A1A60802149002B4A11602B4A1A60B82149012A4A11602A4A1A60E022120129490A602949196029490A60294A1A60202202
:40210000284B1A602432284B1A604123274A1360274A13604522274B1A60033A264B1A600132264B1A6026490D2008F0B7FB0D2008F094FB234B1C60002008F075FD112209
:40214000014B1A6010BDC04630001040001BB70014002F4008070280080702C018002F4000002F4008002F400C002F4020002F40000301400000014040FF00801003014080
:4021800044FF00800403014041FF00801403014045FF00800803014042FF00800C03014043FF008028000340480101402801014020010140180101400C0101400801014066
:4021C000BDAC00000C02224010B572B6214A224B1A60BB22214B1A60214A224B1A608822214B1A606632214B1A60C0221204204B1A60204A204B1A600422204B1A607C32BF
:402200001F4B1A601F231F4A13601F4A136010221E4B1A601E4A1F4B1A608A221E4B1A601E4A1F4B1A6083221E4B1A601E4A1F4B1A6003231E4A13601E491F4A11601F4A05
:40224000136024221E4B1A60FFF7ECFE05F086FF10BDC04600EE08000003024000040240EE06000000050240000602400007024008000440CD660040080104400C010440EB
:4022800018010440000204401802044000030440B06D00000803044000040440B18541000804044000050440E40D80400805044000060440B661030008060440000704400F
:4022C0000807044010B5064C2378002B07D1054B002B02D0044800E000BF0123237010BD2002002000000000BCEE0000084B10B5002B03D00749084800E000BF074803681F
:40230000002B00D110BD064B002BFBD09847F9E70000000024020020BCEE0000B80000200000000010B5012007F082FA224B01221A705B889BB2092B05D81F4A53880133DA
:402340009BB2538004E01C4B01221A7100225A80194BDB889BB2632B05D8174AD38801339BB2D38004E0144B01221A720022DA80114B5B899BB2F422FF32934205D80E4AED
:40238000538901339BB2538104E00B4B01221A7300225A81084BDB899BB2084A934205D8054AD38901339BB2D38104E0024B01221A740022DA8110BD3C020020E703000009
:4023C00010B507F025FA3A4807F0BCF904F03AFF00F072F803F038FC06F01AF806F028F804F0B8FF00F046FF05F068F804F008F804F0B0FB03F02EFF62B62E4B1B78002BD1
:402400000AD002F0BBFA01F06BFC04F071FF02F049FB0022274B1A70264B1B79002B16D000F02AFF02F0B4FA04F012FF00F0F4FC03F0CEFB04F094FC01F056FC03F05CFA8B
:4024400003F034FF03F00EFF00221A4B1A71194B1B7A002B0ED001F057FC02F0A9FA00F041F804F07FFB01F05FF804F07DFA0022104B1A720F4B1B7B002B06D002F0A0FA79
:4024800004F072FB00220B4B1A730A4B1B7C002BB3D002F097FA04F0DDFE00F0ABF804F065FB01F043F80022024B1A74A5E7C046252300003C02002010B50522044B1A70BD
:4024C000023A044B1A70012006F0E4FC10BDC04650020020BC0000200022014B1A707047500200207047C0460122014B5A707047500200200022014B5A707047500200200E
:40250000082806D8044B18180079431E9841C0B200E000207047C04650020020014B18787047C046BC000020014B587B7047C0465002002000B585B083789906C2789305A1
:402540000B430D4A12781204134302781202134342781343009301236A46137103795371411D08226B46981D0CF064FB684604F0C3FE05B000BDC046BC00002000B585B0B7
:402580001A4B1B78012B2CD183789906C27893050B43174A12781204134302781202134342781343009301236A46137103795371411D08226B46981D0CF03CFB684604F007
:4025C0009BFE002805D10021143004F0B3F800200AE0022807D10121123004F0ABF8012002E0012000E0012005B000BD50020020BC00002000B585B0144B5B78012B13D128
:4026000000236A4693700433D370FB3313700F4B5A7B69464A7002220A719A7B4A71DB7B8B716846FFF7AAFF00230AE0074AD2181279002A01D0013AD2B20449C9180A71BD
:402640000133082BF2D905B000BDC0465002002010B586B004000D22002102A80CF0F3FA6A462C4B03CB03C2012C0ED0002C04D0022C27D00F2C2DD032E0072269460E2022
:4026800068440CF0D7FA01232BE0012004F06AFF322109F0C7FAFA235B01984203DC1E4B984203DB03E0FA20400100E01A48FA235B019C46604483B202AA1B0A9371D071CA
:4026C00001230EE000F0B2FD02AB020A9A71D871012306E002AA012393710321D17100E00023012B02D102AB5C7102E0FF2202AB5A7102A806238370F8330370074B5B7B55
:4027000043700923C370013B0371FFF737FF06B010BDC046E0EE0000C0E0FFFF5002002070B584B0061E33D04379032B30D98579012D02D0082D05D020E0C07900F0FEFEA4
:4027400001231CE00D22002168460CF07CFA04F043FF6B46987107236A469370043BD370FB3313700B4B5B7B537002231371002454716846FFF702FF230000E00023012B51
:4027800006D1727A134000D00323024A55192B7104B070BD5002002070B504000379002B00D1A3E0012B00D0A0E003689B0E504807221340037423689B0D08321A404274A8
:4027C00063883F211940817423681B0ADBB2C37425780575FF2B4CD1437B9D4207D101234375A3791B02E2791343C3827EE0FE2D2CD100297AD1032A78D1A379002B07D15F
:4028000003F084FD052871D0022002F037F96DE0012B03D1022002F031F967E0022B09D103F074FD052861D0042002F027F9FFF75BFE5BE0032B59D103F068FD052855D015
:40284000022002F01BF9FFF755FE4FE0032909D104F014F9264B5B7C042B47D1A01D04F0E5F843E00139C9B201293FD804F046F93CE01F48407B83420ED1FE2D0CD11C4EF4
:402880003678012E08D16679002E05D0092A03D1A079FFF7DDFE29E083420BD1FE2D09D1134E3678012E05D1032A1FD12000FFF737FF1BE083420CD1FD2D0AD10C4D2D78C3
:4028C000012D06D120686168A268E36803F0D6F90CE083420AD1012908D1054B1B78012B04D1032A02D1A01D04F07EF870BDC0465002002000B585B000236A469370D37029
:40290000FF331370013B5370FC3B1371054B1B8B1A0A69464A718B716846FFF70BFE05B000BDC0465002002000B585B000236A469370D370FF331370507002231371054BA0
:402940001B8B1A0A69464A718B716846FFF7F2FD05B000BD5002002010B50CF057FAC3175B045B0C1818C01380B210BD10B50CF04DFA024909F056F9C0B210BD876F4401E7
:4029800070B582B000236A46D38001AA138000F007FEC14B187700F015FE0AF085F904B200F004FE012801D1644224B26B46DC8006331B881BB2B94A934202DD6B46DA80BA
:4029C00008E06B4606331B881BB2B54A934201DA6B46DA806B4606331B881BB280221201944663449BB201AA13801388AA4C1B09637713881B01A377002004F0D5FD032552
:402A00002840A37F1843A077012004F0CDFD28408000A37F1843A077002004F0C5FD022803D164229C4BDA7702E000229A4BDA77012004F0B9FD022804D1FF212023964A66
:402A4000D15403E000212023934AD15404F07EFD1930322109F0E6F8643880B201AB18801B889BB28F4A934201D901AB1A8001A90B88894A9B08212013540B889B01222169
:402A80005354203804F06EFD322109F0CBF8FA235B01984203DC844B984203DB03E0FA20400100E08048FA235B019C46604480B201A908800B881B0A774A22243F20034046
:402AC000105D0343135509882323D15404F044FD6B46D88006331B881BB2744A934202DA6B46DA8008E06B4606331B881BB2704A934201DD6B46DA806B469C1DDB881BB20A
:402B0000FA221201944663449BB201AA138013885B009BB21380108880B2642108F0F8FF24235D4AD05400F067FB208023881BB25E4A934202DA6B46DA8008E06B46063394
:402B40001B881BB25B4A934201DD6B46DA806B4606331B881BB2FA221201944663449BB201AA1380108880B2642108F0D1FFC3B2494A110024314B702C21505C01281BD0A0
:402B8000002802D004282ED042E004F0D9FC01AB1880414D2C26AC5DA1002A002432D1701888454B9C46604480B20A2108F0B0FFC3B20134AC552BE004F0C2FC01AA10801A
:402BC000354C2C25635D9B0021002431CB701088394B9C46604480B20A2108F099FFC3B20422625514E004F0ABFC01AB18802A4C220024320821D17018882F4B9C4660444B
:402C000080B2023108F084FFC3B200212C22A154214A2432937000F0DBFC01AB18801B889BB2204A934201D901AB1A8001AC2288120A194B243303210A40D9780A43DA7039
:402C400022881A7100F0D8FC208023889BB2154A934201D901AB1A8001AA13889B080E4C2434637113889B01A2791343A37104F011FD3F231840A3791843A07106F0DEFC30
:402C8000002801D1802400E0002406F0EBFC002814D1403013E0C04650020020FF07000000F8FFFFFF030000C0E0FFFF60F0FFFF2E220000FC53000030F8FFFF0020044397
:402CC00006F0E4FC4001044305F088FE0001044306F0C4FEC000044306F004FD8000044305F074FE400020430C4C23002433DA791043D87105F03CFE020E3023E254020C95
:402D0000230030335A70020A9A70D87000221A715A719A71DA7102B070BDC0465002002010B584B005236A469370FA331370394B5B7B537003F01CFF002868D0354B5B785E
:402D4000002B64D1FFF71CFE324938228B5C0133DBB28B54012B22D108246B46DC7004F011FC6B465871002004F0FCFB030E6A4693710314D37103121372507204F008FC45
:402D80006B46987204F00AFC6B46D87204F082FC6B4618731C716846FFF7F0FB37E0032B0FD101336A46D37004331371082219491C316B46581D0BF03DFF6846FFF7DEFBDF
:402DC00025E0062B0FD1013B6A46D370033313710822104924316B46581D0BF02BFF6846FFF7CCFB13E00A2B11D90A4900223823CA54323B6A46D3700233137130310822A2
:402E00006B46581D0BF016FF6846FFF7B7FB04B010BDC0465002002070B582B0BC4B1A78052A00D96CE19300BA4AD3589F46B84C20003C3007F06CFE236C002B02D102227F
:402E4000B34B1A64B24C206CE36B58430BF0B0FFFFF782FD208306F005FC002803D10322AD4B1A7002E00422AB4B1A706B46DC1D0023237022000121002004F087FA2378AB
:402E8000012B06D1A24A0D320121012004F07EFA02E000229E4B5A739D4B002144229952587BFFF741FD012809D1FFF75FFD984B46229852423A1A7000225A7523E1944BB6
:402EC00003221A7000225A751DE1914944228B5A01339BB28B52012B03D1487BFFF724FD0CE0022B04D18A4B587BFFF71DFD05E0032B03D1864B587BFFF716FD4423844A68
:402F0000D35A182B28D9140000224423E2526B46DA1D012616700121002004F051FA22000D320121012004F04BFA25000E352A000121022004F02AFAA37B0133A3732A001C
:402F40000121022004F03CFA04F078F9267000236375012003F012FE6D4B5B7D012B00D0D1E06B4C00224333E25205F0B3FFE28A238B9A4204D2664A537B013353730AE034
:402F80009A4208D1624CE36B1804000C0BF010FFFFF7E2FC20835E4B587BFA280CD91C00FE236373FFF7A6FC04F048F901232370012003F0E3FD0EE0FFF7B6FC012807D112
:402FC000FFF7D4FC524B46229852423A1A7002E003224F4B1A704E4C0023637525000F352A000121032004F0D1F9E37B0133E3732A000121022004F0E3F984E0444B442241
:403000009C5A0134A4B29C520232985A0A2108F07FFD80B2844276D33D4B587BFFF784FC012809D1FFF7A2FC394B46229852423A1A7000225A7504E0354B03221A700022B1
:403040005A7500214423324AD1525CE0304B5B7D012B58D12E4B002144229952DA8A1B8B9A422DD22A4C637B0133637305F032FF607BFA280CD9264CFE236373FFF73AFCAB
:4030800004F0DCF801232370012003F077FD0EE0FFF74AFC012807D1FFF768FC1C4B46229852423A1A7002E00322194B1A70184A002353750F320121032004F067F922E0A7
:4030C0009A4209D1124CE36B1804000C0BF070FEFFF742FC208316E00D4B587BFFF724FC012809D1FFF742FC094B46229852423A1A7000225A7506E00022054B5A7502E0F2
:403100000022034B1A70FFF70BFE02B070BDC04650020020C8EE0000BC00002010B5022801D105F0A3FE10BD0D4B1B881A00C83A904207DC0A4A9278012A03D10022084BEB
:403140009A700CE0074A934209D9643B984206DB034B9B78002B02D10122014B9A7070479C0200209F0F000070B5002005F06AF90100002005F07CF91D4CA080012005F035
:4031800061F90100012005F073F9E080022005F059F90100022005F06BF9010083B2154DEB1A18B206F076FC06F08AFC2081032005F048F90100032005F05AF9010080B209
:4031C0002D1A28B206F066FC06F07AFC6081062005F038F90100062005F04AF980B2A0812388984201D9024B1880FFF79DFF70BD9C020020BA130000014B0A20185E7047DA
:403200009C020020014B0820185E70479C020020014B98787047C0469C02002010B54018504308F075FC80B210BDC04610B5034B9A8814218220FFF7F1FF10BD9C020020FF
:4032400010B5002006F004FB072006F0F7FA052007F068FB002006F0F1FA012007F062FB042005F0EFF80100042005F001F980B210BDC0467047C04610B5FFF775FF10BD9F
:40328000014B18707047C046AA02002010B5012004F068F9914B984205DA914A518801230B4353800CE0012004F05CF98D4B984206DB8B494B88012293438B4A13404B806C
:4032C000012004F04FF9894B98420ADD04F044F9874B984205DD824A518802230B43538011E0012004F03EF9824B984204DD04F033F9814B984206DC79494B880222934336
:403300007E4A13404B8004F027F97D4B984205DD734A518804230B4353800BE004F01CF9784B984206DC6E494B8804229343764A13404B80FFF760FF744B984205DD684AD8
:40334000518808230B4353800BE0FFF755FF704B984206DC62494B88082293436D4A13404B80FFF74FFF6C4B984205DD5C4A518810230B4353800BE0FFF744FF674B9842EF
:4033800006DC57494B8810229343654A13404B80534B5B889A0724D0C0229200134227D14F4A1279042A03D801324D4B1A711FE0DA0708D54A4A802149000B43538000230A
:4033C0001371584A1370464B5B889A0710D5444A802189000B43538000231371514A137006E03F4B1B79002B02D0013B3C4A13713B4B5B880C221A4201D1DA0633D5C022B6
:403400001201134236D1DA0434D4354A5279022A03D80132324B5A712CE05A0708D5304A8021C9000B435380002353713D4A13702B4B5B881A0708D5294A802109010B4368
:40344000538000235371374A1370254B5B88DA0610D5234A802149010B43538000235371304A137006E01E4B5B79002B02D0013B1B4A53711A4B5B88FF229343002B03DC4B
:40348000174A1278012A02D10121154A9171002B0ED1244B1B780E2B03D80133214A137006E00F4B1B78002B02D100220C4B9A710120FFF725F801280AD1094B9B79002B3E
:4034C00006D1074BDB79642B02D10122044B9A71034B9879C0B203F0CDFF10BDA115FFFFAA020020B03CFFFFFFFEFFFFB7880000D70E000030750000E40C0000FFFDFFFFFB
:403500009F0F0000AC0D0000FFFBFFFF6F17000088130000FFF7FFFF7B15000094110000FFEFFFFFC00000207047C04610B503F01FFB032801D1FFF7A9FE10BD014BD8718B
:403540007047C046AA020020F0B583B004000F1C0192068BB5002958C06909F01FFAE0612F51391C08F0C6FD071CE061019D280009F0BCFB011C381C08F032FF2062013D21
:40358000AE4202DA0136268301E00023238303B0F0BDC046014B18787047C046B4020020014B18787047C046C8000020014B58787047C046B4020020014B98787047C04697
:4035C000B4020020014B58687047C046B402002010B50449044BD86809F0CCF808F094FC80B210BD00002041B4020020014B98687047C046B402002010B50449044B58683A
:4036000009F0B8F808F080FC80B210BD00002041C800002070B52A4B1B7C132B03D80133274A13744BE0274A13785278934203D20133244A137004E0934202D9013B214AB4
:4036400013701F4CA568FE218905281C09F0A6F9E468211C08F0F8FB002807D0FE218905201C08F047FD164BD86014E0FE218905281C08F03FFD011C201C08F0E5FB002823
:4036800007D0FE218905201C09F088F90C4BD86001E00B4BDD600B4B187809F06FFBFC21890509F067F80BF02FF8074A074B09F0A3FB034C08F040FC20700023237470BD2B
:4036C000B4020020C80000209A9999999999C93F10B5044C2000183004226169FFF734FF606010BDB402002070B5012001F0B6F8012826D103F036FF09F0F8FA114908F00A
:403700006FFE041C104B9868104909F033F8011C201C08F0EFFC0D4908F062FE041C002108F07EFB002809D1094B5D68291C201C08F08AFB002802D1251C00E00025024BE1
:403740009D6070BD00006146B402002000007A44C800002010B5064C607809F00FFB054908F03EFE616809F005F8034B986010BDC800002000004843B402002010B5002088
:4037800003F0DEFE0400012003F0DAFE844204D2002003F0D5FE040003E0012003F0D0FE0400042003F0CCFE844203D3042003F0C7FE00E0200010BDF8B5002904D0012901
:4037C00002D14300C01880B2234B1B89984202D3214B987A3FE05C231F4AD35A98420CD85E23D05C37E05A1C92001B498A181289904205D80133DBB200E00023142BF2D98E
:40380000154D9A00AA181189081A84B201339B00EB181D89491B8DB256895889301A09F065FA071C200009F0A9FA011C381C08F0A1FF041C280009F059FA011C201C08F08E
:40384000CFFD041C300009F051FA211C09F0A6F808F05AFBC0B2F8BDC800002070B5FFF78DFF0121FFF7A8FF040003F06FFE1E4B984233D903F06AFE1C4B984231D8C62C08
:4038800006D81B4B5C7064083C231A4AD45421E0C62C19D9012003F065FE174B984207DC64213C23134AD154C822114B5A7011E00F4B5B78C62B0DD863213C230D4AD1545D
:4038C000C6220B4B5A7005E000233C2209498B54074A5370FFF73EFF002004E00120404201E00120404270BD4B1D0000C8320000C8000020B4020020AF04000070B5012071
:4039000003F030FE09F0F2F92E4908F069FD041C60232D4AD35C002B10D0FFF79FFF00284ED1294A53781370284B3C21595C19709968D96000216023D15441E0244908F026
:403940006FFA002805D12349201C08F07DFA002826D0FFF7C9FE1D4D1B4E7168A86808F03FFD1D4908F006FF08F0CEFAC4B27470200009F003FAFC21890508F0FBFE0AF0D5
:40398000C3FE164A164B09F037FA08F0D5FA3C23E854C62C14D96321E954C62272700FE03D230A4AD35C042B04D801333D2207498B5405E0FFF752FF00213D23034AD154D1
:4039C00070BDC04600007A44C8000020B40200200000C8C100002041000048439A9999999999C93F10B503F05BFD002812D103F0BFF803280ED1174BDB8F092B03D8013326
:403A0000144AD3870DE0042003F0B8F80022114BDA8706E003F0ACF8032802D100220D4BDA8703F0A5F8052812D1002003F034FD084AD38F01339BB2D387632B03D803F016
:403A40002FFD002804D00022024BDA8706F05EFF10BDC046B402002010B582B003F020FD042318406B46D87103F06EF8002875D140233F4AD35C012B1AD0002B02D0022BB0
:403A80003BD061E06B4607331B78002B6ED003F051FD022803D003F04DFD032866D1012003F0DCFC324B01229A7040215A545DE042232F4AD35A2F4A934219D9012003F0B5
:403AC00051FDF423FF33984205DD012003F04AFD294B98424ADD264C00224223E252002003F0BCFC0023A37002224023E2543DE0013342221E498B5238E06B4607331B7829
:403B0000002B04D100214033194AD1540DE04423174AD25A194B9A4207D9012003F09EFC134B01229A7040215A544023104AD35C022B03D000214423D15217E00C494422D7
:403B40008B5A01338B5211E0094B002242215A5202315A5240320021995407E0002003F07DFC034B00229A7040215A5402B010BDB4020020E703000010270000DB05000028
:403B800010B5254B5B78022B08D1244B5B78C72B04D802214623204AD1540CE003F080FC002804D1002146231B4AD15403E001214623194AD1544623174AD35C012B08D06D
:403BC000002B02D0022B08D024E0002003F024FC20E0642003F020FC1CE048230E4AD35A632B04D8013348220B498B5212E00A4A00214823D1524A31505C01234340DBB284
:403C00005354002B03D0642003F006FC02E0002003F002FC10BDC046B4020020C800002010B5041C002108F0FBF8002803D080231B06E01800E0201C10BDC04610B5012065
:403C400003F090FC09F052F8214908F0C9FBFFF7E7FF041C03F07AFC09F048F8211C08F089FD1B4908F0BCFB1A4B5861012003F079FC194B984203DA0122164B5A7026E0DA
:403C8000012003F06FFCFA239B00984203DD0222104B5A701BE00F4B5B78012B09D1012003F060FC0D4B984203DB0022094B5A700DE0084B5B78022B09D1012003F052FC60
:403CC000FA235B00984202DC0022024B5A7010BD00007A44B402002018FCFFFF0CFEFFFF10B502F045FF10BD10B5FFF749FF02F03FFF032807D100F03DFE012803D1FFF7C4
:403D0000FDFDFFF7A9FE10BD10B5FFF76BFE02F02FFF032809D100F02DFE012805D1FFF78DFFFFF7D5FCFFF775FC10BD10B5002003F006FC144B98420FD9012003F000FC34
:403D4000114B984209D9042003F0FAFB0E4B984203D901220D4B1A7014E0002003F0F0FB0B4B98420BD9012003F0EAFB084B984205D9042003F0E4FB054B984202D80022E5
:403D8000024B1A7010BDC0462110000004030020D20F000010B5424B1B78012B03D1414A414B1A8002E0414A3F4B1A80002003F0C7FB3F4B984205D9394A517801230B4324
:403DC00053700BE0002003F0BBFB374B1B88984204D8334A537801218B435370012003F0AFFB334B984205D92D4A517802230B4353700BE0012003F0A3FB2B4B1B8898427C
:403E000004D8274A537802218B435370042003F097FB274B984205D9214A517810230B4353700BE0042003F08BFB1F4B1B88984204D81B4A537810218B435370184B5878FB
:403E40004308034223D0164B5B88632B03D80133134A53800BE0124B00225A801B79032B02D10F4B1A7102E001330D4A13710C4B1B79002B04D10A4B5B78552018400CE033
:403E8000012B09D1064B58785523984305E0044B00221A715A8000E0002003F04BFD10BD04030020631000002A010020221000007110000010B5264B1B78012B03D1254AF5
:403EC000254B5A8002E0254A234B5A80002003F037FB234B98420BD8012003F031FB204B984205D8042003F02BFB1D4B98420DD9174BDB88632B03D80133154AD38026E08E
:403F0000184A517808230B43537020E0002003F017FB114B5B88984216D8012003F010FB0D4B5B8898420FD8042003F009FB0A4B5B88984208D80B4A537808218B435370EC
:403F40000022034BDA8002E00022014BDA8010BD040300205E1000002A01002027100000761000008C05002010B5002003F0E8FA1E4B984214D9012003F0E2FA1B4B984298
:403F80000ED9042003F0DCFA184B984208D9184A137810218B4313700022164B1A8124E0002003F0CDFA144B98420BD9012003F0C7FA114B984205D9042003F0C1FA0E4B73
:403FC00098420FD80B4B1B89F422FF32934203D80133084A138108E0054A117810230B43137002E00022034B1A8110BD1B0C00008C05002004030020BE0A000010B503F0F8
:40400000ABFA344B984205DD334A117802230B43137009E003F0A0FA304B984204DC2E4A137802218B43137003F096FA2C4B984205DD294A517802230B4353700AE003F07D
:404040008BFAFA231B01984204DC234A537802218B43537003F080FA224B984205DA1E4A117801230B43137009E003F075FA1E4B984204DB184A137801218B43137003F0A3
:404080006BFA002805DC144A517801230B4353700AE003F061FA4023FF33984204DD0E4A537801218B435370FFF7A6F80F4B984205DD094AD17802230B43D37009E0FFF7FD
:4040C0009BF80B4B984204DC034AD37802218B43D37010BD631900008C050020941100008713000031F8FFFF18FCFFFF3F1F00007017000010B5FEF711FA04285AD102F0EC
:4041000023FD002856D1013003F04EFA022851D0002003F049FA02284CD0574AD17801230B43D37003F012FA040002F0E1FC534B9C466044844220DC03F008FA040002F07B
:40414000D7FC4F4B9C466044844216DB02F0D0FC4C4B984211D902F0CBFC4B4B98420CD802F0C0FC012808D103F0F0F9454B984203D90122454B9A7202E00022434B9A7240
:40418000424B9B7A002B11D0404B9B89F422FF32934207D9384AD37801218B4307318B43D37067E00133394A938163E00022374B9A815FE002F0C8FC012851D103F0F4F96C
:4041C00002284DD0002003F0EFF9022848D003F0BDF90400FFF72AF8C330FF30844213DA03F0B4F90400FFF721F8254B9C466044844209DD03F0AAF9224B984204D9FFF79C
:4042000015F8204B984205D81B4AD17808230B43D3702FE003F09AF90400FFF707F8C8239B009C466044844224DC03F08FF90400FEF7FCFF9138FF3884421BDB03F086F9E8
:40424000104B984216D9FEF7F1FF0E4B984211D9094AD37801218B4307318B43D37009E0054AD37801218B4307318B43D3700022064B9A8110BDC0468C050020520300001E
:40428000AEFCFFFF4B1D0000C83200000403002010B5524B9B7B002B02D0012B2CD04AE0012003F05FF94E4B984205DA4D4A917802230B4393703EE0012003F053F94A4B1F
:4042C000984213DA474B9B789B070FD4434BDB7B012B05D1434A917802230B4393702AE03E4B0022DA7301329A7324E03D4A937802218B4393701EE0384A137C0133DBB23F
:404300001374312B06D9130000221A740132DA739A7310E0012003F025F9314B98420ADA304A917802230B4393702C4B00221A740132DA739A73294B5B7C002B02D0012BEE
:404340002CD04AE0012003F00DF9284B984205DD244A917801230B4393703EE0012003F001F9FA239B00984212DD1E4B9B78DB070ED41A4B9B7C012B04D11A4A91780B43BD
:4043800093702AE0154B00229A7401325A7424E0144A937801218B4393701EE00F4AD37C0133DBB2D374312B06D913000022DA7401329A745A7410E0012003F0D3F80B4B5F
:4043C00098420ADD074988780122012303438B70024B0021D9749A745A7410BD04030020B03CFFFF8C05002048F4FFFF50C3000010B582B000236A46D3716A46937101AC42
:404400002380FEF713FF208002F0B2FB032811D1FEF784F803280DD102F090FB012803D002F092FB012805D101236A4693716A46D37124E002F09CFB032820D1FEF76EF845
:4044400004281CD102F04EFB012818D101AB1B889BB2564A934212D901AB1B889BB2544A93420CD802F06AFB012803D002F06CFB012804D101236A4693716A46D3714D4BD9
:404480005B78002B06D04B4B9B789B0702D400226B469A71474B1B78002B06D0454B9B78DB0702D400226B46DA71424BDB78002B04D000236A46D3716A4693713D4B9B7944
:4044C000002B02D000226B469A713A4B5B79002B02D000226B46DA71364B1B79002B04D000236A46D3716A46937103F023F8002803D003F01FF8012804D100236A46D37166
:404500006A4693712C4B1B7D002B03D00F222A4BDA8203E096225200274BDA826B4606331B78012B12D1254B9B88234AD28A934203D20133214A938013E0002003F034F887
:4045400002280ED0012003F0CBF90AE0002003F02BF8012802D0002003F0C2F90022174B9A806B4607331B78012B12D1134BDB88114AD28A934203D20133104AD38013E051
:40458000012003F011F802280ED0012003F0BCF90AE0012003F008F8012802D0002003F0B3F90022054BDA8002B010BD4B1D0000C83200008C050020040300202A01002085
:4045C00070B5002002F0A8FF002800D122E103F0E9FB431C03D002F0D5FF002816D18E4B1B7E042B0AD801338B4A137603F0DAFB00280FD102F0C6FF04000CE0012002F064
:404600008BFF0022844B1A76002404E002F0BAFF040000E00024002C00D1FBE0230700D18EE003232340012B5AD17C4E327808231343337002F086FC0021002002F096FCC2
:40464000774802F057FC002002F026FF02F07AFC0121002002F08AFC724802F04BFC002002F01AFF002001F0DDFDFA25AD00280006F058F90121002002F078FC6A4802F04D
:4046800039FC280006F04EF90121002002F06EFC664802F02FFC280006F044F90121002002F064FC624802F025FC280006F03AF90121002002F05AFC5E4802F01BFC280099
:4046C00006F030F9012003F0C9F9337808229343337002F037FC01F0BDFD012002F0DCFEA3071BD54D4AD17804230B43D37002F029FC0021002002F039FC4F4802F0FAFB8B
:404700000121002002F032FC4C4802F0F3FB002002F0C2FE002001F085FDFBE7630706D53E4B5B781B0702D4042003F097F9230706D53A4B1B78DB0602D4082003F08EF9A6
:4047400023061CD5802003F089F903F01BFB03F0C5FA03F0F1FA03F08FFA02F075FF2E4B5B7E002B03D101222B4B5A7604E0012B02D10222284B5A760122274B9A76E306FD
:404780003DD502F0DFFB0021002002F0EFFB2C4802F0B0FB0121002002F0E8FB02F0F2FE02F0B8FB072004F0FBF8002004F002F9322006F0B7F8102003F050F9012004F0BA
:4047C000EFF8002002F068FE002001F02BFD03F0E9FA0121002002F0C9FB02F0D3FE02F099FB102003F03AF9FA20800006F09AF802F0A8FB01F02EFD012002F04DFEA306DA
:4048000002D5202003F02AF9012002F085FE0022014B1A76002070BD040300208C05002008EF00001CEF000030EF000044EF000058EF00006CEF000080EF000094EF0000AA
:40484000A4EF000010B5FFF735FBFFF78DFBFFF7D5FBFFF74FFCFFF71BFD10BD0200064B987E002806D0012A03D100229A76012000E001207047C04604030020014B587E9A
:404880007047C0460403002010B502F05DF9002803D0344BDB781B070DD5324AD37810218B43D370304B00229A830F392F4A117200221A7555E001222B4B1A752B4B1B7A16
:4048C000022B38D0DAB2022A02D8012B04D045E0DBB2042B45D941E0012002F043FE244B984224DB012002F03DFE96235B0098421DDC012002F058FE022804D0002002F087
:4049000053FE022813D1184A938B591C9183F422FF32934225D90022134B9A83114AD17810230B43D3700222104B1A7219E000220D4B9A8315E00C4A938B591C9183132B25
:404940000FD9002393830749CB7810208343CB700121064B19720023137502E00122034B1A7210BD8C050020040300202A010020D4FEFFFF10B502F0A7FD10BD10B5FFF727
:40498000F9FF012803D103F041FAFFF719FE10BD10B5FFF7EFFF012807D1FFF7FBF9FFF751FFFFF725FDFFF76FFF02F0E1F810BD10B5FFF7DFFF012801D1FFF7B7F910BD05
:4049C0007047C0467047C04610B5002802D002F01FFA00E0002010BD10B5FEF70DFC0E4B984204DC02F0B8FD0C4B984203DD01220B4B1A700DE0FEF7FFFB0A4B984208DC26
:404A000002F0AAFDFA231B01984202DC0022044B1A70034B187810BD571B000087130000280300209411000010B5FEF7E5FB0E4B984204DC02F090FD0C4B984203DD0122EA
:404A40000B4B5A700CE0FEF7D7FB0A4B984207DC02F082FD084B984202DC0022044B5A70034B587810BDC0464B1D00006F17000028030020641900007C150000022804D163
:404A8000034B1A78034B9A7001E0024B987070473401002028030020014BD8707047C0462803002010B502F0FBFC022404400BD0274BDB78002B07D102F05AF8052803D096
:404AC0000120FFF7E9FF0CE002F0EAFC002808D0002C06D11E4BDB78032B02D10420FFF7DBFF1B4BDB78022B19D0042B29D0012B2CD102F0ABFA022828D102F039F8022818
:404B000006D80020FFF7BAFF0222114BDA701DE00220FFF7B3FF03220D4BDA7016E00C4A5368013353600B4A93420FD902F020F803280BD10138FFF7A1FF0322044BDA70D2
:404B400004E002F05DF90022014BDA7010BDC04628030020CF07000010B50420FFF79CFF10BDC04610B50B000100180002F0FEF910BDC046F0B583B006000F0000226B46AB
:404B8000DA7100210020FFF7EDFF002409E06B46DD1D2800FFF718FF3A5D2B789A4204D10134B442F3D3002000E0012003B0F0BD10B502F0C1F910BDF8B5071C0E001949BF
:404BC00007F04CF9002800D0174F381C07F09CF9C4B26421200007F021F8CDB20A21200007F01CF8CCB2281B0A2107F01BF8C5B20E49381C07F0BEFD07F086F980B20A219E
:404C000007F00CF8C9B2002D02D12023337001E030353570303474702E23B3703031F170F8BDC0460000C8420000C64200002041F0B583B001900E00234907F00FF9002877
:404C400001D0224B0193019807F05EF9C5B26421280006F0E3FFCCB20A21280006F0DEFFCDB2601B0A2106F0DDFFC7B21849019807F080FD07F048F980B20A2106F0CEFFA5
:404C8000CCB21149019807F075FD07F03DF980B2642106F0C3FFC9B2A200A2185300DBB2C91AC9B2002F02D12023337002E0380030303070303575702E23B3703034F470E1
:404CC0003031317103B0F0BD0000C8420000C6420000204170B5051C0C000C4907F0BEF8002800D00A4D281C07F0DEFFC317C018584007F0FBFF07F007F9C0B20A2106F05E
:404D00008DFFC9B23031217070BDC046000020410000104170B5041C0E000F4907F09EF8002800D00D4C201C07F0EEF8C5B20A21280006F073FFCCB2281B0A2106F072FF6E
:404D4000C0B2002802D12023337001E0303030703034747070BDC0460000C8420000C642F8B5041C0E001B4907F078F8002800D0194C201C07F0C8F885B26421280006F0A2
:404D80004DFFCFB20A21280006F048FFCCB2381B0A2106F047FFC7B2FF2318400A3BFF3B58432818001B642106F03CFF83B2002B02D12022327001E030303070002F04D144
:404DC000002B02D12033737001E0303777703034B470F8BD00007A4400C07944F0B54F464646C0B483B0041C88462A4907F036F8002800D0284C201C07F086F884B2FA2177
:404E00008900200006F00AFF8FB26421200006F005FFCEB20A21200006F000FFCDB2E01BFA21890006F0FEFE040083B29946B81B642106F0F7FE019087B2701B0A2106F049
:404E4000F1FEC0B24B46002B03D120334246137002E0303443461C704B463B4303D1202241464A7003E0019F303742465770002805D1002B03D120334246937002E03030CC
:404E80004346987030354346DD7003B00CBC90469946F0BD00401C46003C1C4670B52823A84AD35C012B06D800202921505401330139535412E0022B07D1A24A01202921FD
:404EC000505401330139535408E0032B06D19D4B0121292299540021013A99542923994AD35C002B02D0012B7ED029E1954B1A000832954931C931C210000A680260183374
:404F0000924A13CA13C3190013680B60012002F029FB07F0EBFE041C002106F081FF002803D080231B069C4664448949201C07F057FA041C874906F073FF002805D0814957
:404F40000931201CFFF738FE04E07E490931201CFFF706FFFEF72AFB012803D12D22794B1A720AE0FEF722FB022803D12B22754B1A7202E02022734B1A72FEF743F9642106
:404F800006F050FE00B207F0B1FE6E4C21000F31FFF7C0FE432565745323A374FEF72CF9642106F03FFE00B207F0A0FE21001431FFF7B0FEA5754623E37502F0CDFA64217C
:404FC00006F030FE00B207F091FE21002431FFF7A1FE2623E5540133E554FEF707FB21001831FFF725FEABE0564B1A0008325A4931C931C210000A6802601833574A13CA24
:4050000013C3190013680B60FEF7C4FA09280CD8FEF7C0FA4B4C2500083507F0AFFE2900FFF758FE2523637220E0FEF7B3FA63280CD8FEF7AFFA434C2500083507F09EFEC2
:405040002900FFF767FE2523A3720FE0FEF7A2FAFF280BD0FEF79EFA3A4C2500083507F08DFE2900FFF77CFE2523E372012002F09BFA022802D14422324B1A76002002F076
:4050800093FA022802D143222E4B9A76FEF794FA012802D1324A2B4BDA61FEF793FA29491331FFF79BFEFEF78DFA002106F0B2FE002839D1FEF77AFA002835D0FEF782FA89
:4050C000284906F0ADFE002816D1FEF77BFA214906F0A6FE002812D1FEF774FA1C4906F09FFE00280ED1FEF76DFA1F4906F098FE00280AD100240AE0124C153407E0114C68
:40510000143404E00F4C133401E00E4C1234FEF74DFA012802D12D23237005E0FEF746FA022801D12B23237002F010FA07F026FE044C2234064907F053F92100FFF778FD33
:4051400070BDC04628030020E8EF0000FCEF000000007A440000C84210F0000024F00000353532350000204100401C4610B5FEF711FA0E2803D9FF221E4B1A7602E000224A
:405180001C4B1A76FEF706FA1D2803D9FF22194B5A7602E00122174B5A76FEF7FBF92C2803D9FF22134B9A7602E00122114B9A76FEF7F0F93B2803D9FF220E4BDA7602E074
:4051C00001220C4BDA76FEF7E5F94A2803D9FF22084B1A7702E00122064B1A77FEF7DAF9592803D90322034B5A7702E00222014B5A7710BD2803002070B582B002F050F9A2
:40520000042318406B46D871D54B2A21585C012242405A549B78092B05D0D14A002191852E3100205054092B45D89B00CD4AD3589F46CB4C23000833CB4A23CA23C3190069
:4052400013680B6023001833C84A23CA23C3190013680B600639FE208005FFF73BFD21002031C348FFF736FD210022310020FFF731FD20E0BA4B1A000832BE4931C931C23B
:4052800010000A6802601833BB4A13CA13C3190013680B600FE0B24B1A000832B74931C931C210000A6802601833AF4A13CA13C3190013680B600025E5E2A94B1A000832CD
:4052C000AF4931C931C210000A6802601833AA4A13CA13C3190013680B60ECE7FFF7DEFDE9E79F4B1A000832A34931C931C210000A6802601833A34A13CA13C31900136806
:405300000B60FEF747F909280CD8FEF743F9944C2500083507F032FD2900FFF7DBFC2523637220E0FEF736F963280CD8FEF732F98B4C2500083507F021FD2900FFF7EAFC06
:405340002523A3720FE0FEF725F9FF280BD0FEF721F9834C2500083507F010FD2900FFF7FFFC2523E372012002F01EF9022808D0002002F019F9022803D0FEF71DF9012850
:405380004AD1FEF71FF976491331FFF727FDFEF719F9002106F03EFD002839D1FEF706F9002835D0FEF70EF9774906F039FD002816D1FEF707F9754906F032FD002812D122
:4053C000FEF700F9724906F02BFD00280ED1FEF7F9F8704906F024FD00280AD100240AE05F4C153407E05E4C143404E05C4C133401E05B4C1234FEF7D9F8012802D12D2398
:40540000237005E0FEF7D2F8022801D12B2323705722534BDA7505E05148123006225E4909F008FC02F092F807F0A8FC4C4C2334574906F0D5FF2100FFF7BEFBFFF796FE9C
:40544000FFF7CAFA01280ED10422454B9A77FFF7EBFA012807D12A23414AD35C002B02D120223F4B9A7701F06FFB002800D122E73B4C20000E300422484909F0DBFB236B8F
:40548000022B68D96B4607331B78002B10D0344B1A000832424931C931C210000A6802601833404A13CA13C3190013680B6046E002F04CF80400FDF7B9FE9138FF3884426E
:4054C0001ADC02F043F8384B984215D902F03EF8364B984210D8224B1A000832344931C931C210000A6802601833324A13CA13C3190013680B6022E002F028F80400FDF73F
:4055000095FEC330FF30844219DB02F01FF8264B984214D902F01AF8244B98420FD8104B1A000832224931C931C210000A6802601833214A13CA13C3190013680B60084BE1
:405540001B6B052B03D90022054B1A63B3E60133034A1363AFE60133014A1363ABE6C04628030020B4EF000038F000004CF000000000404060F0000074F0000088F00000FB
:405580009CF0000024F00000000020410000C84200007A4400401C46B0F00000B8F00000C0F00000D4F000004C1D0000C7320000E8F00000FCF0000010F10000BB490B008E
:4055C0000833BB4A31CA31C31800136803600B001833B84A31CA31C31800136803608B8D002B1DD1FDF722FE040001F0AFFF844208D9FDF71BFE040001F0A8FF241AAB4BDD
:405600009C8507E001F0A2FF0400FDF70FFE241AA64B9C85A54A938DA7498C4663449385FDF704FE040001F091FF84420DD9FDF7FDFD040001F08AFF201A9F4B9C466044AE
:4056400080B20622994BDA750CE001F07FFF0400FDF7ECFD201A984B9C46604480B20722924BDA7507F08AFB041C904B988D07F085FB011C201C06F0B3FE011CFE20800564
:4056800007F08CF98D4907F075F8041C8C4906F0DBFB002806D10021201C06F0C1FB002803D001E0864C00E000242E237F4AD55C280007F01BFB011C201C06F0C5FB0028FC
:4056C00005D0622D03D801352E23784AD554774C250013352E23E05C07F050FB2900FFF73FFBFFF743FD01F031FF07F047FB2334744906F075FE2100FFF75EFADBE56B4AB0
:4057000011000831704B180070C870C10C0001682160183232CB32C20368136000F0F6FD002808D1614B0833684A13CA13C3190013680B60BFE500F0E9FD012822D15B4C68
:4057400023000833624A23CA23C3190013680B60230018335F4A23CA23C3190013680B6000F0DAFD2500153507F008FB2900FFF7B1FA00F0D7FD233407F000FB2100FFF746
:40578000EFFA98E500F0C2FD022808D1474B0833514A13CA13C3190013680B608BE500F0B5FD032808D1414B08334C4A13CA13C3190013680B607EE500F0A8FD052810D18C
:4057C0003A4B1A000832464931C931C210000A6802601833434A13CA13C3190013680B6069E500F093FD042800D064E52F4B08333D4A13CA13C3190013680B605BE52B4C2E
:4058000023000833394A23CA23C3190013680B6023001833364A23CA23C3190013680B60FCF77CFE25000C3507F0A8FA2900FFF771FAFCF779FE073507F0A0FA2900FFF7A9
:405840008FFA21001F31FE208005FFF763FA210022312848FFF75EFA210025310020FFF759FA28E5E8B20021FFF77CF9002407E02B010E4AD3181B19187AFFF799F90134F6
:405880000F2CF5DD0135012DECDD084934228B5C581C88549B0707D108311020FFF76AF9012801D1FFF758F902B070BD2803002024F1000024F00000E0FCFFFF0000C8421B
:4058C0000000C64200007A4474F0000038F100004CF1000060F1000074F1000088F100009CF10000B0F10000C4F10000D8F10000ECF100000000404010B5094BDB78023B37
:40590000DBB2012B0AD8074A536801335360322B04D90022034B5A60FFF76EFC10BDC04628030020340100200A4A9F235B00584300238354101802003432FF321370033223
:40594000137004321370023A13803D30FF3003807047C0465C090020F0B585B0002400E12500A1235B006343804A9B5C012B00D0F5E04233FF336343D3183433FF331B78FC
:40598000002B1BD14333FF336343D3184133FF331A88013292B21A80642A00D8DFE0734AA1235B005D4353194133FF33002119800023AB542000FFF7B7FFD0E0012B00D037
:4059C000C4E04233FF336343684AD3181A004132FF3216880136B6B216803F33FF3318880A2106F095F880B2864200D8B7E0A1235B0063435D4AD3181A004132FF320021F7
:405A000011803D33FF331B78002B1BD0A1235B006343564AD31819003E31FF310A780132D2B20A703D33FF331B789A420AD9A1235B005D434D4B5D1900230B703435FF35D3
:405A40002B7091E0A1235B006B43484AD3189B79002B09D14333FF336B43D3189B88009300236A4613710CE0A1235B006B433F4AD3189A8812025B881343009301236A4666
:405A8000137108236A4653713B33FF336B43374AD3183733FF331B8820336A469371012119E0A1235B006B43304AD3181E003B36FF3632889818C779080068448771013229
:405AC00092B232803933FF331B889A4201D9992282710131C9B20729E3D9A1235B006B43224AD3181A003B32FF32128801323933FF331B889A4205DDA1235B006B430021DC
:405B00001A4A9954684601F0F7FBA1235B006B43164AD3183733FF331A88013292B21A800F2A08D9A1235B006B43104AD3183733FF3300221A80A1235B005D430B4BEB5C3C
:405B4000002B0CD12000FFF7EFFE08E0A1235B005D430022054BEA542000FFF7E5FE0134E4B2022C00D8FBE605B0F0BD9405002010B5002427E022009F235B0063431349CC
:405B80005B5C012B1DD13E33FF336343CB183433FF331B78012B14D13E33FF336343CB183D33FF331988013189B21980642908D99F235B005A430021044BD1542000FFF763
:405BC000B3FE0134E4B2022CD5D910BD5C09002010B5FFF7CDFFFFF7BFFE10BD10B5002404E02000FFF7A0FE0134E4B2022CF8D910BDC046A1235B0058430C4B1818020093
:405C00003D32FF320023137001003F31FF3100220B8001390A7003310B800A390B8004310B803630FF3002707047C0469405002010B5002404E02000FFF7DCFF0134E4B2C9
:405C4000022CF8D910BDC04610B5FFF7C7FFFFF7EFFF10BD002008E09F235B004343064A9B5C002B03D00130C0B20228F4D9022800D9FF207047C0465C090020F0B55746F0
:405C80004E464546E0B48CB00290039104920593CCB2002C05D0060AFF252E40B246054002E0C84B9A46C84D02AB9E793209172302A98C4663441A701B78DBB2012B00D155
:405CC000CFE0002B7BD0022B00D148E1032B1BD0D0E11900A12252005A43BC48125C012A0FD14232FF325A4382183432FF321278002A06D14332FF32514341188A889542CC
:405D000007D00133DBB200E00023022BE1D9002000E01800022B00D9ACE101000F243440A12252004243A94DAA183532FF321470002C22D102AA157AA44CA122520050432E
:405D4000201801003F31FF310D8002A9CD7901003D31FF310D7005003635FF3500212970083529704130FF3001805343E3183433FF33423AFF3A1A707CE1012C16D1A123BD
:405D80005B004343914AD3183633FF331A780132D2B21A70042A00D86CE1A1235B00594300228A4BCA54FFF7BFFD63E1A1235B0059430022854BCA54FFF7B6FD5AE1FFF710
:405DC00049FF8046FF2800D154E101000F2232409F235B0043437E48C3183533FF331A809C235B007B48C252002015E0461C330002AA944663449F799F235B004B43744A03
:405E0000D3181A18D771734A1018C7723933FF331A8801321A80F0B282B29F235B004B436B4EF3183533FF331B889A42DED39F235B0041464B4302219955ADB2F3185D8039
:405E400052466946CA80CE889E809C7161488580C6800472043000F0E3FA4046FFF764FD08E1FFF7F7FE8046FF2800D102E1070002ABDB793102F02212010A40D2189F23FD
:405E80005B0043435249CB183533FF331A8096235B009A4206D91233434300214C4A9954FFF742FD002212E0931C02A98C46634498799F235B007B434549CB189918C871AE
:405EC0003933FF331988013119800132D2B2052AEAD9002C05D153460893002208AB1A7106E02B02524613430893012208AB1A7108A808234371283383710023C3710372B2
:405F0000993343728372C3720373437301F0F4F92F489F22520043465A4383185D805146998002A9097999711C003434FF340121217011543733FF3319709BE09F2252001B
:405F40005A432349525C012A06D13E32FF325A438A185288954207D00133DBB200E00023022BEBD9002700E01F00022B00D981E00F233340BC469F2252007A4314498A1848
:405F80003732FF32127893426BD19F235B007B43CB181A003D32FF32002111803733FF331A780132D2B21A700F2A08D99F235B007B43074AD3183733FF3300221A70002179
:405FC0004CE0C046160300001E030000940500205C090020600300209F235B0062465343274AD3181E003936FF36328890464A1C02A881464A449279914642469A1848465C
:40600000D0713288013292B232803533FF331B889A4221D31A499F235B00604658433D3BFF3B4354174B9D805246DA801C7209180A003532FF3212889C2040001A52073129
:406040001C1D0B33180008F0F5FD200000F0E8F93800FFF769FC0DE00131C9B20629BBD908E09F235B007B430021054A99543800FFF75AFC0CB01CBC90469946A246F0BD44
:406080005C09002060030020002008E0A1235B004343064A9B5C002B03D00130C0B20228F4D9022800D9FF207047C04694050020F0B585B004000F009A235B00C65A072E5A
:4060C0002ED80379002B05D14388009300236A46137107E043881B0202881343009301236A46137108236A4653712D33FF33E15A917101230EE08B4206D85A1EA218D07928
:406100001A006A44907103E01A006A449920907101339BB2072BEED9684601F0EDF87CE0FFF7B2FF0500FF2802D102233B7074E096235B009E4203D92B3BFF3B3B706CE0A6
:406140000600374AA1235B004343022199546188D318998022885A8022799A7100220AE0A318D979A1235B0073432D48C3189B18D971013292B29A235B00E35A9A42EFD921
:40618000A12252006A4326498A183932FF3213802800FFF72FFD2379002B05D16388009300236A46137107E063881B0222881343009301236A46137108236A4653712D3348
:4061C000FF33E15A0B0A0F221340102213436A469371D171022307E09A1EA218D1791A006A44917101339BB2072BF5D90C4EA1235B005D43741923003B33FF3306221A80DD
:40620000684601F079F80123AB5522003432FF32002111703734FF342380002005B0F0BD9405002010B5002804D104F0E9FC04F0DFFC0BE0012804D1FA20800004F0E0FC96
:4062400004E0022802D1024804F0DAFC002010BD8813000010B504F0C5FC0220FFF7E2FF10BDC04610B504F0D7FC002004F0C8FC10BDC04670B50B4C0025257065700A4BC4
:4062800002221A705A706580002323716371E580A560A581E58125820220FEF7EFFB658270BDC0469C0400203C01002010B5114B5B78002B09D00F4A538A01339BB253829D
:4062C0000D4A934201D9FFF7D5FF0A4B5B79012B0FD1084AD38801339BB2D380C72B08D913000022DA805A71FFF7C4FF022003F0D3FD10BD9C040020E703000000207047FF
:40630000002070477047C0467047C046014B18787047C0469C040020014B58787047C0463C010020014B988A7047C0469C040020F0B5474680B404000E0015001F000128BD
:4063400020D80100032003F0C3FC013083B29846FF204000C01A80B20221091BC9B205F061FC83B243449BB2013B9BB2A84501D8AB4209D2002E09D1074B1C1BA74207D01B
:40638000002006E00D2004E00D2002E0002000E00D2004BC9046F0BDFF01000070B50500012812D80EE0611B4B425941C9B223061B1B1802054B9C46604403F051FC01343A
:4063C000E4B200E00024012CEDD970BDD0FF010010B50021052003F07BFCC4B20121052003F076FCC0B2002C02D0002804D106E0002803D0012002E0032000E0022010BD39
:4064000010B5FFF7E5FF054B1870002802D101225A7002E00022014B5A7010BD3C01002070B5B44CA5440400FCF77EF840AB1880FD225A80FC3A1A71E379392B00D1AFE0E1
:406440003B2B55D0382B00D04FE140AC8033E371A93B23729A256D000D3B63536A46A64B03CB03C2082269460A20FF30684408F0E1FB0A236353FFF7ABFFA04B1870002894
:4064800002D101225A7002E000229C4B5A7040ADE8739A4B5B782B749A267600AC5B0234A4B2AC53382296491220FF30684408F0C1FB382293494A20FF30684408F0BAFBDE
:4064C0007034AC5300262E728F4C0125657066820121022003F0FCFBA0602570A6820320FEF7CCFA8949694440A8FFF7E1FDFCE040ABBB22DA71AC3A1A7202212632FF3264
:406500009952814B5B78012B41D17C4B5B78022B3DD0210008317E48C01A04F079F8002803D00A2240AB1A7202E0002240AB1A7240AB1B7A002B1FD1704B587803F068FCCA
:4065400000280ED18022734B1A606C4B5878FFF725FF6D4B01225A710022DA8003321A700DE0664B1878FFF719FF022240AB1A720332654B1A7002E00222634B1A705F4B8A
:4065800002221A705A7000225F4B5A7002E00C2240AB1A725D49694440A8FFF789FDA4E040ABB922DA7102217B329952564B00225A825B78012B00D08BE03433FF33E35A90
:4065C000042B00D885E04D4A5278022A00D180E00422FF32934278D1237A1A02637A1343494A53804A4A934203D8002240AB1A7202E00A2240AB1A7240AB1B7A002B09D0C4
:40660000FFF7ECFAFFF714FB4049694440A8FFF74FFD6AE0394B1B78002B06D10121032003F056FB384B188205E00021032003F04FFB354B188234494A888A810B8A01336D
:406640009BB2CB819A4250D38B68002B15D02B4B1878012811D813000021FFF769FE40AB18720D2809D1FFF7B9FAFFF7E1FA2749694440A8FFF71CFD37E0234B1B79002B80
:406680000FD1802252000021684608F0DCFA1B4B58781F4B181A694603F0BAFF01221A4B1A7121000A31184B988903F0B1FF002803D00A2240AB1A720EE0002240AB1A7281
:4066C000114A938A0133938206E0032240AB1A7202E00C2240AB1A72FFF780FAFFF7A8FA0A49694440A8FFF7E3FC8E239B009D4470BDC046C8FDFFFF00F200003C01002099
:40670000C0FF0100C0FE01009C04002037020000FF010000B0000020054B1B889BB2002B04D0034A1388013B9BB213807047C046B204002010B5032857D002D8012807D04A
:4067400007E1042800D187E0142800D1B8E000E101291AD0002935D0022900D0F9E07D4B1B78DB0708D5FFF7D7FF7A4B1A7801218A431A7000225A80764A117802230B43C3
:40678000DBB204218B431370E3E0724B1B78DB0700D5DEE0704A138801339BB213806D4A117801230B43DBB208218B4304398B4313709388694A934200D9CAE00133654A18
:4067C0009380C6E0634B1B78DB0708D5FFF7A4FF604B1A7801218A431A7000225A805D4A117808230B431370B3E0012911D0002925D0022900D0ACE0594B1B78012B04D1EE
:40680000FFF78AFF0022564B5A800222544B1A709FE0534B1B78012B00D19AE04E4A138801339BB213804E4B01221A709B884B4A934200D98DE00133494A938089E0484B92
:406840001B78012B04D1FFF767FF0022444B5A800022434B1A707CE0012910D0002922D0022976D13F4B1B78012B04D1FFF754FF00223C4B5A8002223A4B1A7069E0394B86
:406880001B78012B65D0344A138801339BB21380344B01221A709B88304A934259D80133304A938055E02F4B1B78012B04D1FFF733FF00222B4B5A8000222A4B1A7048E001
:4068C000012919D0002932D0022942D1214B9B79DB0708D5FFF720FF1E4B9A7901218A439A7100221A811B4A917902230B43DBB204218B4393712CE0164B9B79DB0728D4D0
:40690000154A138801339BB21380124A917901230B43DBB208218B4304398B43937153890E4A934215D801330A4A538111E0094B9B79DB0708D5FFF7EFFE064B9A7901210B
:406940008A439A7100221A81024A917908230B43937110BD240D0020B2040020E7FD0000180D0020300D002010B51C4B9B79DB0702D50220FCF7D2FB184B1B78DB0710D59D
:40698000174B1B889BB21D2B05D901F0CBFD0022134B1A8008E0124A138801339BB2138002E002220E4B1A800E4B1B78012B10D10B4B5B889BB21D2B05D901F067FB002286
:4069C000074B5A8008E0064A538801339BB2538002E00222024B5A8010BDC046240D00203E010020180D002010B50400037A012B1AD10378DB0703D5012002F05BFE02E02F
:406A0000002002F057FE23789B0601D500F0E4FD23785B0603D50120FCF732FC02E00020FCF72EFC0223237210BDC04610B54279920083799B091A43100006F09FF907F0A6
:406A400063FE094A094B07F019F80022084B06F0D3F907F0ADFE074905F08CFE05F054FA80B2054B588010BD9A9999999999A93F0000144000007A44B40400200022034B1B
:406A80001A700132024B1A717047C04642010020B4040020074B1B78DBB2632B05D8054A13780133DBB2137002E00022024B1A717047C04642010020B404002010B502F0C3
:406AC000E5FD10BD10B5FFF7F9FF002803D00122034B5A7102E00022014B5A7110BDC046B4040020014B1879C0B27047B4040020014B588880B27047B40400200022034BFC
:406B00005A700132024B9A717047C04642010020B4040020074B5B78DBB2632B05D8054A53780133DBB2537002E00022024B9A717047C04642010020B4040020014B98799C
:406B4000C0B27047B4040020014B5879C0B27047B4040020024B0022DA711A727047C046B40400207047C0467047C0467047C046014BD8797047C046B4040020014B1872DC
:406B80007047C046B404002010B56F4BDA79062A00D9D8E093006D4AD3589F466A4B0122DA7100221A72FBF797FCCCE0664B1B7A012B00D0C7E0012000F06EFC01F066FA9C
:406BC000614B0322DA7100221A72BCE0FBF7A6FC03281ED102F046FD012807D15A4B5B7A002B03D10122584B5A7234E002F03AFD01280AD1544B5B7A012B06D10022524BC9
:406C00005A720330FFF7BAFF25E000224E4B5A7221E0FBF783FC04281DD102F023FD002807D1494B5B7A002B03D10122464B5A7211E002F017FD00280AD1434B5B7A012B0B
:406C400006D10022404B5A720430FFF797FF02E000223D4B5A723C4B1B7A022B05D13A4B0222DA7100221A726DE0042B05D1364B0422DA7100221A7265E0052B05D1324B31
:406C80000522DA7100221A725DE0062B5BD1012000F0B0FB002000F0E1FB00F05DFE012000F0FEF800F082F90021002000F05EF9274800F01FF90121002000F057F92548C7
:406CC00000F018F9204B0622DA7100221A723AE01D4B5B89002B06D10520FDF7CFFE00F03BFE194B1873184A5389591C5181632B29D9137B5BB2002B14D000F02DFE124B6A
:406D0000187300280ED00620FDF7B8FE00F01AF90021002000F02AF90F4800F0EBF80F4803F000FE084C002363810420FDF7B4FE0523E3710023237205E0002000F0B0F833
:406D4000012000F0ADF810BDB404002008F2000024F2000034F200009CF00000B80B000010B5FFF7AFFEFFF795FEFFF7D3FEFFF70BFF10BD70B5041E3CD0204D28783222FA
:406D8000002102F05FFB3221FB2002F0E9FB322002F0BAFB012003F0B1FE28783222002102F050FB3221FF2002F0DAFB322002F0ABFB012003F0A2FE28783222012102F035
:406DC00041FB32222100012002F0EEFB0400322002F09AFB012003F091FE28783222002102F030FB3221FB2002F0BAFB322002F08BFB00E00024E0B270BDC0464401002027
:406E000010B502F0F9F9002000F038FB10BDC04630B583B0041E19D0002303706A46D01D0370FFF7A7FF002811D16B46DD1DDB790F2293432278134323702800FFF79AFFE4
:406E40002B781B0922781343237000E0002003B030BDC04610B50001C4B2002902D001200443E4B2002A02D004200443E4B20A4B1B78012B02D108200443E4B2074B187822
:406E80003222002102F0DEFA3221200002F068FB322002F039FB10BDCA0400204401002010B50200034B187001210020FFF7D2FF10BDC046CA04002070B504000D00012273
:406EC000FFF7C8FF012003F019FE002229002000FFF7C0FF252003F011FE70BD70B50D000F2404400009FFF7E7FF29002000FFF7E3FF70BD70B50500002405E0285D012160
:406F0000FFF7ECFF0134E4B2280007F0CDFF8442F4D370BD70B504000309064DE85C0121FFF7DCFF0F231C40285D0121FFF7D6FF70BDC04644F2000010B50121FFF7CEFF2E
:406F4000012010BD10B500210120FFF7C7FFFA20C00003F0D3FD10BD10B500210220FFF7BDFFFA20C00003F0C9FD10BD70B584B06A460C4B103370CB70C21B6813600A4B81
:406F80001B788B4201D8013BD9B289006B46CB58C01880235B421843C0B20021FFF79EFF04B070BD44F200003D0D002010B5064A107804231843C0B2107008231843C0B251
:406FC0000021FFF78BFF10BD3C0D002070B50D0007231840C00040231843C0B20021FFF77DFF002403E0285DFFF7A6FF0134072CF9DD70BD10B5144C211D0020FFF7E6FF93
:4070000021000C310120FFF7E1FF210014310220FFF7DCFF21001C310320FFF7D7FF210024310420FFF7D2FF21002C310520FFF7CDFF210034310620FFF7C8FF21003C3188
:407040000720FFF7C3FF10BD4401002010B50222464B1A704649087808231843C0B208700421444B1970444B1A70444B5B78012B10D0002B04D0022B29D0032B52D06DE0F6
:407080003E4C0023A370012000F0F8F963780133637063E0394B9B88002B09D10122374B9A7002F099F8002200210020FFF7D2FE324B9B88102B03D80133304A93804DE03E
:4070C0002E4B00229A805A7801325A7046E02B4B9B88002B03D100210320FFF7EDFE274B9B88052B03D100210320FFF7E5FE234B9B88062B03D100210320FFF7DDFE1F4B5E
:407100009B88062B03D801331C4A938026E01B4C0023A38000210220FFF7CEFE6378013363701BE020231843C0B20021FFF7D6FE114B187804231843C0B20021FFF7CEFE20
:40714000FFF70AFFFFF7FEFEFFF754FFFFF72EFF0120FFF7A5FE0222084B9A70074B9878022802D100229A705A7010BD3D0D00203F0D00203C0D00203E0D0020CA040020BD
:4071800070B52C4C2C4B636003235B42A3600525E56000232370200001F034FD01232370200001F02FFD02232370200001F02AFD03232370200001F025FD04232370200021
:4071C00001F020FD2570200001F01CFD06232370200001F017FD07232370200001F012FD08232370200001F00DFD09232370200001F008FD0A232370200001F003FD0B2357
:407200002370200001F0FEFC0C232370200001F0F9FC0D232370200001F0F4FC0E232370200001F0EFFC0F232370200001F0EAFC70BDC046D00400204800100010B5FFF76E
:407240009FFF10BD10B501F011FEFFF7F7FF10BD7047C0467047C046F8B5002540E06C01214B9C4664442368DB0737D527683F0C0F231F401D4B5F752368DB0202D463682D
:407280005B0D01E06368DB08184A136123681B0D01210B401375002316E01E00032B07D9E2685807C01AC1003831CA40D2B206E0A2685807C01AC1001831CA40D2B20B49C4
:4072C0008E19B2750133DBB2BB42E6D307481030FBF762FA22680123134323600135EDB20E2DBCD9F8BDC046A0002E40D004002010B5FFF7B1FF10BD10B5154B02681A6240
:407300001A002032002111710479547144799471D1711A003032DA62002307E0C21894790B4AD218302154540133DBB242799342F4D30748203001F019FE002804D001F06B
:4073400059FC022802D102E0002000E0012010BDD004002010B50022094B1A7001210C2002F0B6FC0F2809D90649074803F052FE03005A425341024A137000E0012010BD76
:4073800008050020E80D0020B0FE010010B5141E0BD000290BD0084B1B78002B09D0074B0A00210003F082FE04E0012002E0012000E0012010BDC04608050020E80D00200E
:4073C00010B5141E0BD000290BD0084B1B78002B09D0074B0A00210003F080FF04E0012002E0012000E0012010BDC04608050020E80D002010B5012806D10122054B1A70FE
:40740000002002F00FF903E0002801D102F00AF910BDC046B404002010B5632804D902F0B3FA02F0B9FA16E0002802D102F0B4FA11E005F0A3FC084904F0D2FF041C02F006
:40744000A3FA05F09BFC011C201C05F093F904F05BFD02F0A1FA10BD0000C84210B5012802D102F001FA03E0002801D102F0FCF910BDC04610B502F011F910BD10B5012898
:4074800003D1002002F0F6F804E0002802D1013002F0F0F810BDC04610B502F017F910BD10B501F09BFA440002F0D8FA204344B2FBF7AEFE80002043C0B210BD10B502F084
:4074C000BDFA02F041FA10BD014B58787047C0460C05002010B582B06B469C1D00232380FBF7AEFE208023889BB2044A934201D9012000E0002002B010BDC046CF070000FB
:4075000010B5012002F0A2F8052003F00BFA002002F09CF810BDC0460200054B1878012804D1002A03D002221A7000E0002070470C050020014B187A7047C0460C05002004
:407540008000014B185A7047640D0020014B58897047C0460C050020014B1A20185E7047400D002010B5012806D1054BD868FA21890004F057FB01E0014BD86810BDC046CB
:407580000C050020014B18787047C046400D0020014B98787047C046400D0020014BD8787047C046400D0020002802D0012808D00EE0084BD878C007C00FC0B20130C0B211
:4075C00007E0044BD8788007C00F0130C0B200E000207047400D002010B5174B01221A72DB68002B21D0154A93421EDC144A93421BDB0020FFF7D8FF012810D1FFF7D4FF9C
:4076000001280CD1FBF7D8FF002808D10A4BDA680C498C4662445A6002221A720AE00322054B1A720120404204E00322024B1A720120404210BDC0460C050020FF117A000B
:4076400001EE85FFF82A000010B50E4B187F5B7F0002C01800B205F049FB0B4905F08AF80A4B196804F0BCFE05F01EFB084B5A68801AD860FDF702F9012801D1FFF7ACFF52
:4076800010BDC046400D00203D0A0741980100200C050020014B58787047C046400D002010B500F03FFF10BD10B500F04BFF10BD064B1A680F218A431A601A68E1318A4394
:4076C0001A601A681A601A681A60704700050240084B1A680F218A431A6019680E220A431A601A68F0218A431A601968E0220A431A6070470005024010B5FFF7D5FFFFF7AF
:40770000D7FF0BE0002002F0B1F9052003F0F6F9012002F0ABF9052003F0F0F902F0B2F9002805D10A4A137C591C1174082BE9D902F0A8F9012808D10022054B1A74FFF715
:40774000C7FFFFF7ADFF002001E00120404210BD0C05002010B5FFF7CFFF10BD10B5FFF7F9FF10BDF8B50D0016001F000122002101F00EF800281FD000233B60012001F018
:4077800069F801210120FEF7D5FF0120404228E02878012101F08AF800280AD03C60012001F058F801210120FEF7C4FF0120404217E00135013400E00024B442E8D33C602B
:4077C000012001F047F8002806D001210120FEF7B1FF0120404204E002210120FEF7AAFF0020F8BD70B50D0016001C00002323600122012100F0CCFF002806D001210120C9
:40780000FEF798FF0120404231E00023236026E001339E4211D101222900012001F06AF8002806D001210120FEF784FF012040421DE0012001F00EF80DE0012229000020DC
:4078400001F058F8002806D001210120FEF772FF012040420BE001352368013323602368B342D5D302210120FEF764FF002070BD30B50400002013E041B2002903DA4000D4
:40788000C0B2504001E04000C0B22178194200D050405B0800E08023002BEDD1013429004B1EDDB20029F6D130BDC04630B583B005000023009301AC430023706170A2709E
:4078C000072203212000FFF7D3FFE0706B460322694605312800FFF745FF03B030BDC04610B5084B012210405A7901218A4302435A7104310820FFF7D9FF002801D001209E
:40790000404210BD400D002010B5094B0122104040005A7902218A4302435A7103310820FFF7C4FF002801D00120404210BDC046400D002010B5430803420AD11F22024048
:4079400001210820FFF7B2FF002804D00120404201E00120404210BD10B582B000226B46DA80013204210820FFF7A0FF002801D1002400E00124002C07D102220421082055
:40798000FFF794FF002800D00234002C17D1FFF7A1FD002809D06B46991DDB889BB25A1C92B20A80254A9342F1D9FFF793FD002835D1FFF779FE00226B46DA8032E0FFF7A8
:4079C000CDFE012204210820FFF770FF002801D1002400E00124002C07D1022204210820FFF764FF002800D00234002C1AD1FFF771FD002809D06B46991DDB889BB25A1CBF
:407A000092B20A800D4A9342F1D9FFF763FD002807D1FFF749FE00226B46DA8002E0032400E00324002C03D10222054B5A7002E00422034B5A70200002B010BDBB020000F8
:407A40000C05002010B5FF2200210820FFF72EFF002801D00120404210BDC04610B5020000210820FFF722FF002801D00120404210BDC046F0B557464646C0B485B0060001
:407A800001900C0015009A4600230393D0465346581C400007F0BAF8071E26D07300037044702B788370C41C07220321FFF7E0FEF87001260AE0601C01352B786370072259
:407AC0000121FFF7D5FEA070023401364645F2DB53465A000132791C03AB0198FFF742FE0400380007F09CF801E001246442200005B00CBC90469A46F0BDC046F0B587B039
:407B000004000B001600172169440B7000230493029304AB0122FFF725FE050002AB022203A92000FFF75EFE284345B2002D0FD101A864000134047003AC2778477007223F
:407B40000221FFF795FE6378984204D1377004E001256D4201E001256D42280007B0F0BD70B50B4D2A0050210820FFF7C7FF0400AA1C59210820FFF7C1FF204344B26A1C30
:407B800051210820FFF7BAFF204340B270BDC0465E0D0020F0B54F464646C0B485B0040015000F226A4411700022029201921E005F00380007F02AF88146002853D002ABAB
:407BC00001220F2169442000FFF7CCFD804601AB3A0049462000FFF705FE434603435BB29846002B06D0484607F01AF801235B4298463BE0640001346B461C704B461B784C
:407C00006A465370072202216846FFF731FE4B465C1C5B78984206D0484607F001F801235B42984622E04B461B782B70012714E0601C07220121FFF71BFEA21C0135A37847
:407C4000984206D0484606F0EBFF01235B4298460CE063782B7001371400B742E8DB484606F0DEFF02E001235B429846404605B00CBC90469946F0BDF8B50223124A2C211B
:407C80000820FFF787FF041E1AD1104D287E0302687E18430E4B5A69D317002104F008F906000F000B4A002304F002F90A4A0023921BBB4104F0DCF801F048FF688301E046
:407CC000012464422000F8BD580D0020400D00200C05002010270000A05A320070B50A23114A0C210820FFF755FF061E18D10E4D002412E0287800026B78C0180B4B5B691D
