:4000000000400020110000004D0200004D02000010B500F073FE00F07DFA00F01FF9C04610B51222304B1A6000F03EFE2F4800F00BFF182000F0BAFD00F050FD012100202D
:4000400000F0DAFC2A4C2B4B2360782000F0FCFE294B2360002404E0F02000F0F5FE0134E4B2182C03D8254B1B68002BF4D00322234B1A60234B1B68002B03DA224B1B6815
:40008000DB0718D5214A1368802109060B431360002309E01D4A11680220014311601168814311600133DBB2042BF3D9174A13685B005B0813600024154B1C60154A164B20
:4000C0001A60164B1C6016490D2000F0D1FC0D2000F0C2FC134B1C60002000F017FE1122014B1A6010BDC04630001040001BB70014002F4008070280080702C018002F40FC
:4001000000002F4008002F400C002F4020002F400003014040FF00800000014028000340A10D00000C02224010B572B6EE221202104B1A600922104B1A6037320F4B1A60DF
:400140000F4A104B1A60EC2252010F4B1A600F4A0F4B1A60C02252030E4B1A600E4A0F4B1A600E220E4B1A60FFF75AFF00F062F810BDC04600030240080004400002044073
:400180004900DB0008020440080304405B00D80008040440080504408E610300080604400807044010B5064C2378002B07D1054B002B02D0044800E000BF0123237010BDA2
:4001C0004801002000000000DC0E0000084B10B5002B03D00749084800E000BF07480368002B00D110BD064B002BFBD09847F9E7000000004C010020DC0E0000B80000209F
:400200000000000010B500F0F3F9012000F070FA002000F061FAFA246400200000F046FC002000F065FA012000F056FA200000F03DFCEAE70322034B1A601D32024B1A6076
:400240007047C04630003040000E3F4010B500F00BFE03680C2B00D1FEE7FEE770B50F4E0F4D13E029686B68AC68002202E001C901C30432A242FAD1E868002202E0002164
:4002800002C304328242FAD11035013E002EE9D100F0F0FDFFF7B6FFFEE7C046010000003C0F000010B500230AE0032B03D89A000B49505800E00B4899000B4A88500133EB
:4002C0002B2BF2D9FFF730FF084B1B68002B02D10022064B1A6080229205054B1A6010BD000000004D02000000000020B000002008ED00E00047C04610B58022024B1A6098
:4003000000F0C8FB10BDC046B000002070B505000E001400002802D0002000F0A7FB002005E0013CAB19E3181B781818C0B2002CF7D170BD70B5C0B0050AFF2304009C436F
:40034000002304E01A5D6E46F25401339BB2FF2BF8D9FF2318406B461B5C8B4206D06B4619542804000C694600F05CFA40B070BD70B50500012812D80EE0611B4B4259410E
:40038000C9B223061B1B1802054B9C466044FFF7D1FF0134E4B200E00024012CEDD970BDD0FF010010B50C2863D88000404B1B589F460B06591A0B023E4A9446634401229A
:4003C0005CE00B06591A0B023B4A94466344042254E00B06591A0B02384A9446634402224CE00B06591A0B02354A94466344042244E00B06591A0B02324A94466344012260
:400400003CE00B06591A0B022F4A94466344012234E00B06591A0B022C4A9446634402222CE00B06591A0B02294A94466344022224E00B06591A0B02264A944663440222D3
:400440001CE00B06591A0B02234A94466344042214E00B06591A0B02204A9446634401220CE00B06591A0B021D4A94466344042204E0002000F0FAFA02220023012A02D190
:400480001878C0B200E00020022A03D11978587800020843042A09D11A785878000210439A7812041043DB781B06184310BDC046E00E0000C0FF0100C1FF0100C5FF01007C
:4004C000C9FF0100D0FF0100D1FF0100D6FF0100D2FF0100D4FF0100D8FF0100DCFF0100E0FF010010B500210520FFF75BFFC4B201210520FFF756FFC0B2002C02D0002887
:4005000004D106E0002803D0012002E0032000E0022010BD70B5104B1B68DB0602D400220E4B1A600D4B1B68802B13D1FFF7DAFF04000022094B1A6001000220FFF732FFEA
:40054000002807D0012C05D821000220FFF72AFFFFF7D0FE70BDC04654000340B000002070B5050001000320FFF71CFF441C240229000420FFF716FF2418012D2ED82900DC
:400580000620FFF70FFF01282AD029000320FFF709FF013000020023002608E001784A1ED2B2FD2A00D801265B18DBB20130A042F4D35B42DCB229000120FFF7F3FE8442B9
:4005C00010D1002E10D02B065D1B2802074B9C4660440121FFF7AEFE002006E0062004E0002002E0062000E0062070BDD1FF010070B50020FFF7B4FF05000120FFF7B0FFA8
:4006000006000222334B1A7000210520FFF7CAFE01280DD1002D04D100222E4B1A70002409E0002E06D101222A4B1A70002402E0062400E00624274B1B78022B12D10121B1
:400640000520FFF7AFFE01280CD1002E04D10122204B1A70002405E0002D03D100221D4B1A7000241B4B1B78022B0CD1002D04D10022184B1A70002405E0002E03D101220D
:40068000144B1A700024002C04D1124B1878C0B2FFF76EFE0F4D6B681A68C03AC0210020FFF734FEAB681B78C01AC0B24042C0B2834204D1074B5B681B68002B02D1002061
:4006C00000F0D4F9002C02D0002000F0CFF9FFF713FE70BDBC000020044A1368DBB201218B430840184310607047C0460006044004490A68D2B240239A4380011840104348
:40070000086070470002044082B0134B0093134B0193134B6A461A601249134A1160C0461B681B0F1B07F0221206934204D10C4B1B68FF2018400DE0094B1B681B0F1B0784
:40074000A0221206934204D0054B1B68FF20184000E0002002B07047B6E9000064010020080010401600008004001040104B114A1A601149114A1160C0461B681B0F1B07B2
:40078000F0221206934204D1094B1B68FF2018400DE0074B1B681B0F1B07A0221206934204D0034B1B68FF20184000E00020704708001040B6E800001500008004001040A8
:4007C00082B0134B0093134B0193134B6A461A601249134A1160C0461B681B0F1B07F0221206934204D10C4B1B68FF2018400DE0094B1B681B0F1B07A0221206934204D0A6
:40080000054B1B68FF20184000E0002002B07047B6EA00006401002008001040170000800400104030B5C5B004000023439342933D4B984273D8002971D08022520002A8BC
:4008400000F03EFB394B0093FF230193384B6A461A603849384A1160C0461B681B0F1B07F0221206934204D1314B1B68FF2213400DE02F4B1B681B0F1B07A0221206934260
:4008800004D02B4B1B68FF22134000E000234393439B002B45D100F0E0FA0500FFF734FF4290429B002B02D1FFF760FF4390439B002B25D1214A0092009A24041443009489
:4008C0001B4A694611601E481B490860C0461268120F1207F02109068A4204D1144B1B68FF2213400BE0124A1268120F1207A02109068A4203D00E4B1B68FF2213404393E0
:40090000429B002B07D1FFF75BFF4290429B002B01D0429B4393280000F0A3FA01E004234393439845B030BDFF010000B6D70000080010400400008004001040B6D800008E
:400940000500008070B5040000F087FA0500102C05D8104A136803218B43136016E0202C07D80C490B6803229343023A13430B600CE0302C07D807490B6803229343013AFF
:4009800013430B6002E0002000F070F8280000F068FA70BD300010400C4B1B689B001C22134018330A4A1268920803210A40D34008490868084A02400A60084A9446634429
:4009C0001B78DBB2064A13607047C046080F03402800034000002240FFFFFFBF4DF3FF0F0C0F0340034B18688023DB05184000D0012070470000224070B505000C0000F0EF
:400A00002CFA002D21D112490A680235AA4363002C001C4014430C600E4A1368802109060B431360002309E00A4A11680224214311601168A14311600133DBB2042BF3D930
:400A4000044A13685B005B08136000F00AFA70BD00002F4020002F401F2318401E3B8340014A13607047C04600E100E001BE704770B504000D001B2802D90020FFF7F6FF96
:400A80001034A40080239B059C4664442068256070BDC046034A13681B041B0C02490B43136070470CED00E00400FA0510B5040006E0084B586800F0C7F9074B9C46644446
:400AC00080231B029C42F4D8024B9868604300F0BBF910BDC80000200080FFFF70B582B000F002F900284DD000F0B7F90500264B1A6892001C231A401832244B1B689B089C
:400B000003210B40DA400021214B1960214C2168214B0B4021494A438021C9018C466244D20B013A5205520D1343A0225203134323601B4B1B6801933020FFF703FF194A63
:400B400013688021C9050B4313602668164B1E40002407E00120FFF7A9FF1034A30533430C4A1360EE2CF5D90120FFF79FFFFF239B051E43074B1E60019A094B1A60280067
:400B800000F06FF902B070BD080F0340280003400C0F03400800224000F800C040420F003000104000002240FFFF3FC0F0B583B0040018280BD01C2809D0202807D02428CA
:400BC00005D0282803D02C2801D0302849D100F044F90190FFF706FF002803D0FFF7DCFE012600E00026214A136807218B4313601F4BE3181B78DBB21E4A13601E4A136823
:400C00008B4313601D4803687F22934319001C4BE3181B7813400B430360322000F014F9182C16D9114F3B680725AB431A0023001C3B9B082B4013433B60322000F004F9A9
:400C40003A68AA432300183B9B082C001C4014433C60012E01D1FFF741FF019800F001F902E00020FFF702FF03B0F0BD080F03404DF3FF0F0C0F0340100F0340180F03406C
:400C800034F3FF0F10B5034B1B7B584300F0DCF810BDC046C8000020024B1868800F80077047C0460C02224010B50D4B1A6801218A431A601A68022082431A60094A106876
:400CC0003024A043203C204310601068093CA043014311601A68802109060A431A6010BD00002240000F2240034B1B68002B01DA012000E00020704700002240014A024BF7
:400D00001A6070476588EDAC3800034010B50400FFF7C2FFA0421AD0144A136803218B431360134B1B689B0F01D17C2001E086204000FFF7A7FF00F090F80D4A13689B00B6
:400D40009B08A40FA4071C43146000F08AF8074B1B6803229343064A1268920F01D1023200E001221343014A136010BD140222400C02224010B5040000F06FF8054B1C4054
:400D800005490B68054A134023430B600B6800F068F810BD0404040010022240FBFBFBFF10B5244B1B685B0715D5234B1B685B070ED5224B5969042001401F4C22688A4370
:400DC00022605A6982435A619B68002B00D098470420FFF7CFFF174B1B685B0518D5164B1B685B0510D5154B59698022D2001140114802688A4302605969114A0A405A6113
:400E0000DB68002B00D098478020C000FFF7B2FF084B1B685B030CD5074B1B685B0304D5064B1B69002B00D098478020C002FFF7A1FF10BD10022240DC0000207C010020EC
:400E4000FFFBFFFF000000000230800803D001300238FCD1C046C0467047EFF3108072B6704780F310887047014B18687047C046400100200E4B70B500251E000D4CE41ADD
:400E8000A410A54204D0AB00F35898470135F8E700F042F8084B00251E00084CE41AA410A54204D0AB00F35898470135F8E770BD240F0000240F0000240F00002C0F00006D
:400EC000002310B59A4203D0CC5CC4540133F9E710BD0000001000007B0000000000000072040000B2030000C2030000D2030000E2030000F20300000204000022040000E4
:400F0000120400003204000042040000520400006204000043000000F8B5C046F8BC08BC9E467047CD010000A5020000F8B5C046F8BC08BC9E467047A5010000500F00001A
:400F4000B80000209000000050000000000000000000000002000000D40E0000D80E0000010000000000E02EC05D00001800000000366E01040404000000000000000000FA
:400F8000000000000000000000000000000000000000000000000000140F00000000000000000000000000000000000000000000000000000000000000000000000000000E
:400FC000000000000000000000000000000000000000000000000000E0000020000000000000000000000000000000000000000000000000000000000000000000000000F1
:4010000000000000000000000000000000000000000000000000000000000000000000000000000000000000000000000000000000000000000000000000000000000000B0
:401040000000000000000000000000000000000000000000000000000000000000000000000000000000000000000000000000000000000000000000000000000000000070
:401080000000000000000000000000000000000000000000000000000000000000000000000000000000000000000000000000000000000000000000000000000000000030
:4010C00000000000000000000000000000000000000000000000000000000000000000000000000000000000000000000000000000000000000000000000000000000000F0
:402000000040002011200000616F0000616F000010B5034B83F3088807F05AFA04F0C0FF0040002010B512224C4B1A6007F020FA4B4807F08DFE182007F064F907F0FAF853
:402040000121002007F054F8464C474B2360782007F07EFE454B2360002404E0F02007F077FE0134E4B2182C03D8414B1B68002BF4D003223F4B1A603F4B1B68002B03DA6C
:402080003E4B1B68DB0718D53D4A1368802109060B431360002309E0394A11680220014311601168814311600133DBB2042BF3D9334A13685B005B0813600024314B1C6044
:4020C000314B324A1A60324A1460324A1A6098214901314A1160314A1A6080214900304A1160304A1A60B82149012F4A11602F4A1A60802252012E490A602E4919602E499E
:402100000A602E4A1A6020222D4B1A6025322D4B1A60033A2C4B1A6046232C490B602C490B602C490B602C490B602C4B1A6001322B4B1A6001322B4B1A602B490D2007F0E0
:402140001DF80D2007F004F8284B1C60002007F0DBF91122014B1A6010BDC04630001040001BB70014002F4008070280080702C018002F4000002F4008002F400C002F4065
:4021800020002F40040301400000014041FF00800003014040FF00801403014045FF00800803014042FF00801803014046FF00800C03014043FF00801003014044FF0080D1
:4021C0002800034048010140340101402C01014028010140200101401C0101401801014010010140040101409D9500000C02224010B572B60922294B1A60294A294B1A60E1
:4022000099221204284B1A60284A294B1A60294A294B1A606822294B1A601223284A1360022228490A60212027490860274828490860802027490860393827490860DB2071
:4022400000042649086007202549086025490B6025482649086026490B600E3325490B6025482649086026490B604421254B19602549264B19600521254B19602549264BC3
:4022800019600321254B19600331254B1960254B1A60FFF7C7FE04F041FE10BD0000024099EE070000030240000402400008000800050240B80B00000006024000070240D0
:4022C000600120400000044008000440B66D1B00080104401801044000020440080204401802044000030440B10D00000803044018030440000404404310DB00080404403A
:4023000018040440000504408001D80008050440000604408E6103000806044000070440080704401807044010B5064C2378002B07D1054B002B02D0044800E000BF0123AA
:40234000237010BD500100200000000020CA0000084B10B5002B03D00749084800E000BF07480368002B00D110BD064B002BFBD09847F9E7000000005401002020CA000065
:40238000B80000200000000010B5012005F04CFC224B01221A705B889BB2092B05D81F4A538801339BB2538004E01C4B01221A7100225A80194BDB889BB2632B05D8174A5A
:4023C000D38801339BB2D38004E0144B01221A720022DA80114B5B899BB2F422FF32934205D80E4A538901339BB2538104E00B4B01221A7300225A81084BDB899BB2084AF4
:40240000934205D8054AD38901339BB2D38104E0024B01221A740022DA8110BD6C010020E703000010B506F0D3FB05F045FB002803D006F075FB06F07BFB05F0E5FB3548EA
:4024400005F07CFB00F01CFF03F090FB00F08CF802F046FF01F08CFD03F00AFC01F080FB01F016F902F024FC00F0A8FF02F04AFB03F024FA62B6284B1B78002B04D00022AD
:40248000254B1A7003F0C8FB234B1B79002B16D000F0FCFE03F070FB00F02CFD02F0E4FE02F092FA01F0A4FB01F0F6F803F00CFA02F054FB02F02EFB0022174B1A71164B72
:4024C0001B7A002B0CD000F061F803F0DBFA00F079FF01F0CBF903F0C9FC00220E4B1A720D4B1B7B002B04D003F0D2FA00220A4B1A73094B1B7C002BBDD003F03FFB00F0E3
:40250000B1F803F0C7FA01F02FF80022024B1A74B1E7C046892300006C01002070B5041E1FD04379032B1CD98579022D08D0032D0BD0012D0CD1C179002000F0BDFF07E035
:40254000C179012000F0B8FF02E0C07902F0B6FA032D06D8637A0122134000D00323014A535570BD8001002010B5044B00221A7105325A71012005F0F3F810BD8001002052
:402580000022014B5A717047800100207047C0460122014B1A717047800100200022014B1A71704780010020032805D8034B185C431E9841C0B200E000207047800100205C
:4025C00002207047014B98797047C0468001002000B585B083789906C27893050B4380229202134302781202134342781343009301236A46137103795371411D08226B46BF
:40260000981D0AF0BEF8684603F00AFB05B000BD00B585B0124B5B79012B1DD183789906C27893050B4380229202134302781202134342781343009301236A461371037947
:402640005371411D08226B46981D0AF09AF8684603F0E6FA002000E0012005B000BDC0468001002000B585B0134B1B79012B13D100236A4693700433D370FB3313700E4B1B
:402680009A7969464A7002220A71DA794A711B7A8B716846FFF7BCFF002308E0064AD25C002A01D0013AD2B20349CA540133032BF4D905B000BDC0468001002010B584B013
:4026C00004000D22002168460AF064F8631EDAB20E2A52D8DBB29B00334AD3589F4600F0EBFD08F003FC314907F07AFF011C07F001FE2F4907F0FEFD07F0C6FD6B469871B4
:4027000001233BE000F0E4FD08F0F0FB274907F067FF011C07F0EEFD254907F0EBFD07F0B3FD6B469871012328E000F0D7FD08F0DDFB1E4907F054FF011C07F0DBFD1C496A
:4027400007F0D8FD07F0A0FD6B469871012315E0002003F081FB6B46987101230EE0012003F07AFB6B469871012307E001236A46D371032269460A7200E00023012B10D105
:402780006B465C7106236A469370F8331370094B9B7953700923D370013B13716846FFF737FF04B010BDC04600CB00000000C8420000204280010020F0B557464E4645461D
:4027C000E0B488B0041E78D04379002B75D004F0E7FA06003C4D08220021280009F0DAFF6B1F01219970FE221A70384A92795A700B22DA70A2792A701971012A56D1002EE2
:4028000054D01D320021684609F0C4FF69461E2004F01AFB071E3BD140E02B781B026A7813439846EB1C9946AB789A46284C07220021200009F0AEFFBB1B237043461B0AF9
:4028400063704346A37053461B01DBB2E370721CD2B291B28F4213D9EA78120229790A4368791C49140B23434B7213098B7213010F2202401A43CA720236F6B2063501E020
:402880004D461600134808230371FFF7C1FE01E06D460026B3B29F42BFD80EE00D480023837102330371FFF7B3FE06E06379002B03D0032A01D104F063FA08B01CBC904609
:4028C0009946A246F0BDC046E904002080010020EA040020E404002070B504000379002B00D192E1012B00D08FE103689B0EC74D072213406B7203689B0D08321A40AA72D6
:4029000043883F211940E97203681B0ADBB22B7300786873FF2B00D042E1AB7998420ED1002A00D071E16379022B00D06DE1013BAB73A3791A02E37913432B8265E1FE28E0
:4029400023D1002900D060E1032A00D05DE1A379002B03D1FA3801F005FB56E1012B03D1012001F0FFFA50E1022B05D1042001F0F9FAFFF70DFE48E1032B00D045E10120C3
:4029800001F0F0FAFFF70AFE3FE1CB1EDBB2012B6DD800F0F3FE9D4B98745F2800D934E11D00597B00F034FFAB7A042B41D1A07909F060FD0022964B08F058FF07F07CFC43
:4029C000C1B2924DA87C00F087FEE07A0302207B1843801109F04EFD8E4A8F4B08F046FF00228E4B08F008FB09F0DAFD011CA87C00F07EFE207B0302607B18438004800C7A
:402A000009F038FD834A844B08F030FF0022844B09F0A6F909F0C4FD011CA87C00F070FE217A8A0803231A401940A87C00F070FEEBE0052B00D0E8E0657A2B02A57A1D431D
:402A4000AD05AD0D64204543E37A1A02237B13439B11584308F04AFA041C280008F046FA011C6A4B987C221C00F05EFECDE0052900D0CAE000F0A6FE644BD874052800D914
:402A8000C3E01D00597B00F0CFFEAB7A042B42D1A0790302E0791843801109F0EBFC5D4A5D4B08F0E3FE594D09F07AFDA861E0790302207A18438004800C09F0DBFC554A02
:402AC000554B08F0D3FE09F06BFDE861607A0302A07A1843801109F0CDFC4E4A4E4B08F0C5FE09F05DFD2862A07A0302E07A18438004800C09F0BEFC464A474B08F0B6FEEE
:402B000009F04EFD6862237B2B7529001431E87C00F0C4FD79E0052B77D1A0790302E0791843801109F0A6FC3A4A3B4B08F09EFE364D09F035FDA861E0790302207A18434F
:402B40008004800C09F096FC324A334B08F08EFE09F026FDE861607A0302A07A1843801109F088FC2B4A2C4B08F080FE09F018FD2862A07A0302E07A18438004800C09F09E
:402B800079FC244A244B08F071FE09F009FD6862237B2B7529001431E87C00F08DFD34E01A4DAD79AB420ED1FE280CD1174E7679012E08D16679002E05D0092A03D1A0793B
:402BC000FFF77CFD21E0AB420CD1FD280AD10F484079012806D120686168A268E36802F099FB12E0AB4210D100290ED1074B5B79012B0AD1032A03D12000FFF78FFC04E0E4
:402C00000B2A02D12000FFF7D7FD70BD800100200000E03F9A9999999999A93F0000144000007940F8B500F087FD4000C7B200F093FD2B4907F09EFE07F026FB85B200F089
:402C400085FD284907F056FB011C07F053FB07F01BFB86B2244C0523A370FA332370234B9B7963700423E37004332371677100F0F7FDA07100F0EEFDE071AB092372A80083
:402C8000330B03251D40054365723309A3723601E67204F011FF01263040850104F0F8FE30404001054304F0DFFE30400001054304F0DAFE3040C000054304F011FF30400C
:402CC0008000054304F0B4FE30404000054304F0B7FE0640354325732000FFF799FCF8BD0000404000401C45E40400208001002070B500F053FFFC21890507F03BFE07F00C
:402D0000C3FAC6B200F050FFFC21890507F032FE07F0BAFAC5B200F03BFF154907F02AFE07F0B2FA84B200F045FF114907F022FE07F0AAFA82B20F4805238370FF21017034
:402D40000D4989794170C3700333037146718571A308C371A401E3B211093F240C401C4304721201427200238372FFF751FC70BD00002041E40400208001002010B50D4896
:402D800005228270FF2303700B4B9B7943700823C37003710021417181710331C171013101724272013282720132C2720373FFF72FFC10BDE40400208001002070B5114CD5
:402DC0000526A670FF2323700F4B9B7963700A23E3700825257100F06FFA607100F072FAA07100F075FAE07100F078FA207266720623A3720133E37225732000FFF708FCCD
:402E000070BDC046E40400208001002010B502F043FE002824D0134B1B79002B20D1114928228B5C0133DBB28B54012B01D1FFF7F9FE28230B4AD35C032B02D1FFF758FF61
:402E40000EE0062B0CD0072B02D1FFF7B7FF07E00A2B05D900212823024AD154FFF78EFF10BDC0468001002000B585B000236A469370D370FF331370013B5370FC3B137166
:402E8000054B5B8D1A0A69464A718B716846FFF79FFB05B000BDC0468001002000B585B000236A469370D370FF331370507002231371054B5B8D1A0A69464A718B71684668
:402EC000FFF786FB05B000BD8001002010B509F097FCC3175B045B0C1818C01380B210BD10B509F08DFC024907F03EF8C0B210BD876F440110B582B008220021684609F033
:402F000049FC964B5A79052A00D920E19300944AD3589F46052004F077F9684606F068FA0198009B584309F03DFCFFF7CFFF8B4B5885002002F0B0FE012804D102F0ACFEAD
:402F4000864B987102E00022844B9A71834B00229A859879FFF7A2FF012808D1FFF7C0FF7E4BD88504225A7100229A73F2E07B4B03225A7100229A73ECE0784A938D01334C
:402F80009BB29385012B03D19079FFF787FF0CE0022B04D1714B9879FFF780FF05E0032B03D16E4B9879FFF779FF6C4B9B8D182B1CD96A4C0023A3850121002002F072FE1C
:402FC000A179012002F06EFE022002F065FE0130C1B2E171022002F065FE02F0C3FD012363710023A373012002F05CFD5B4B9B7B012B00D0AEE0594C0023A38504F0D0FB10
:40300000228A638D9A4203D2544A937901339371524B9879FA280CD91C00FE23A371FFF723FF02F09FFD01236371012002F03AFD0DE0FFF733FF012806D1FFF751FF474B86
:40304000D88504225A7102E00322444B5A71434C0023A373032002F01FFE0130C1B22172022002F01FFE75E03C4B9C8D0134A4B29C85D88D0A2106F0EDFE80B2844269D3E9
:40308000364B9879FFF70AFF012808D1FFF728FF324BD88504225A7100229A7304E02F4B03225A7100229A7300222C4B9A8551E02A4B9B7B012B4DD1284B00229A851A8AD3
:4030C0005B8D9A4230D2254CA3790133A37104F067FBA079FA280CD9204CFE23A371FFF7C3FE02F03FFD01236371012002F0DAFC0DE0FFF7D3FE012806D1FFF7F1FE174B5D
:40310000D88504225A7102E00322144B5A71134C0023A373032002F0BFFD0130C1B22172022002F0BFFD15E00C4B9879FFF7B6FE012808D1FFF7D4FE084BD88504225A712E
:4031400000229A7306E00022044B9A7302E00022024B5A71FFF75AFE02B010BD800100203CCB000030B585B004000D0004F04CF80100200004F05EF80E236B4418801B8842
:403180001BB2374A934228DD022C05D0032C05D0002C05D0002404E0324C02E0324C00E0324C002C47D00C220021684609F0F2FA02236A461370A3001288032414401C4307
:4031C0006B461C8001236A469370FA22D20002920098019903F08CFD2DE00E236B441B881BB2C82B27DC022C05D0032C05D0002C05D0002404E01E4C02E01E4C00E01E4C18
:40320000002C18D00C220021684609F0C3FA02236A461370A3001288032414401C436B461C8001236A469370FA22D20002920098019903F05DFD002D0FD00E226A441088B1
:4032400000B20E4B181A00B2118809B205F0D0FC05F0E4FC2880002000E0012005B030BD5B120000331000001310000023100000341000001410000024100000BA1300009B
:4032800010B503F0A7FF03F0B5FF10BD10B5094C21000020FFF766FFA11C0120FFF762FF211D0220FFF75EFFA11D0320FFF75AFF10BDC046B2010020014B0020185E70472F
:4032C000B2010020014B0220185E7047B2010020014B0420185E7047B2010020014B0620185E7047B2010020012802D8024B185C00E000207047C046BC01002010B51E4921
:40330000022003F02FFD012805D01C49022003F029FD012807D11A4A9378191CDBB2192B00D2192191701749022003F01BFD012805D01549022003F015FD012807D1104AC0
:40334000D378191CDBB2192B00D21921D1700F49022003F007FD012805D00D49022003F001FD012807D1064A1379191CDBB2192B00D21921117110BD341000003310000012
:40338000BC0100201410000013100000241000002310000010B5084B5C790220FFF704F9012806D1FFF7A0FF231C844200D2031CDCB2200010BDC046BC01002010B502F0E0
:4033C000B1FC10BD7047C04670B50C001500884213DB904213DC401A07F088FD061C281B07F084FD011C301C07F0FAF8054907F0C1FA06F049FFC0B202E0002000E06420BC
:4034000070BDC0460000C84210B5084B06229B5E074A934203DD012002F068FC05E0054A934202DC002002F061FC10BDBC0100208F1A00008813000010B500F087F907F029
:4034400033FD00B21A4B984203DA0122194B1A7209E000F07BF907F027FD00B2F93002DB0022144B1A72134B1B7A012B01D0002300E028230F4A9278934200D31A000D4B53
:40348000DB789A4200D313000A4A1479A34200D31C000120FFF788F8012807D10020FFF723FF231C844200D2031CDCB2200010BDD4FEFFFFBC010020012801D8014B195499
:4034C0007047C046BC010020002810D1114B00225A729B7A042B02D801330E4A93720D4B9B7A042B12D900220A4BDA720EE0094B00229A725B7A012B02D80133054A537253
:40350000044B5B7A012B01D9024BD872014BD87A7047C046BC010020002810D1114B00221A735B7B042B02D801330E4A53730D4B5B7B042B12D900220A4B9A730EE0094B3F
:4035400000225A731B7B012B02D80133054A1373044B1B7B012B01D9024B9873014B987B7047C046BC010020F8B5FFF74DFFFFF7A3FE174C2082FFF7ABFE6082FFF7AEFECD
:403580000600E080134F144D1223E05E3A002900FFF71AFFA0703A0029003000FFF714FFE0701023E05E0D4A2900FFF70DFF2071FFF7A4FEFFF740FFFFF786FF02F0A6FBA2
:4035C000FFF7E8FEFFF7A8FF02F0A6FBF8BDC046BC01002034210000881300002823000010B55F2813D883010D4C1B5D012B10D1002910D0002A10D08001201803003C3315
:403600001B780B703D3003781370002006E0012004E0012002E0012000E0012010BDC0461C050020002307E09A00002109481150094811500133DBB2012BF5D9054A002377
:40364000D360136100211181034AD360136111817047C046F404002008050020F8B504000E1C0589AF003958C06807F097FAE0603E51311C06F03EFEE060FC21890507F0DF
:4036800079F92061013501231D402581F8BDC04610B5FFF7C7FF10BD7047C04610B5430018180301083303481818142209F069F810BDC0461C1D002010B54300181803010A
:4036C00018331800034BC0180430142209F059F810BDC0461C1D002010B5840103480419080007F04BFCE06010BDC0461C0500208001024B181801617047C0461C050020B7
:403700008001024B181881617047C0461C0500208001044B181803003C3319703D3002707047C0461C0500208001024B18188263416370471C05002010B5034B186806F0CB
:40374000A3FDC0B210BDC046D4010020014B58687047C046D4010020014B98687047C046D4010020014B18697047C0461C050020014BD8687047C046D401002010B50400E1
:403780000022FF2014E093010D49CB185B78A34205D193015B5C012B01D1D2B20BE0930107495B5C002B02D1FF2800D1D0B201325F2AE8DDFF22FF2A00D0100010BDC04630
:4037C0001C05002010B50023FF241BE05900C9180A010E498A185278824208D15A00D21811010A4A8A5C012A01D1D8B20DE05A00D2181101054A8A5C002A02D1FF2C00D155
:40380000DCB20133052BE1DDFF2010BD1C1D002010B5044A8001131800245C8001348454597010BD1C05002030B5084C43001D182A01A218002555801B181A010123135586
:403840008001034B1818417030BDC0461C1D00201C050020014B187C7047C046D4010020014B587C7047C046D4010020F0B5474680B484B000F0A4F901280AD100F088F90B
:40388000041C00F08BF9011C201C07F073F8061C00E000260024002738E06200121913018B4AD218538801339BB25380312B0CD98748620011190B0100211954C3185970C5
:4038C0000022DA601A621A615A6263001B191A017F4BD35C012B01D10137FFB26200121913017B4DED182969E86807F043F8011C301C06F0FFFC061C286A696A07F03AF89B
:40390000011C301C06F0F6FC061C0134052CC4DD704B1F749E6064226F4B1A700026002300930293039301930023984642E0B3016A4AD218538801339BB25380312B08D97B
:403940006649B30100225A54CB185A7000221A619A61B301614A9D5C012D03D143460133DBB29846B3015D4AD718BC69211C386907F000F8011C019806F0BCFC0190796B38
:40398000039806F0B7FC0390B96B029806F0B2FC0290211C009806F0ADFC0090012D08D1F8684F4906F01CFC002802D063224A4B1A7001365F2EBADD464C434663740199A6
:4039C0004848FFF74BFE6060FFF74AFF012804D1424BDA683F4B1A6038E00021029C201C06F012FC00282ED0211C039806F0F8FD3B4906F0BFFF041C364B1860364B1D78C1
:403A0000280007F073FA011C201C06F0FDFB002805D0280007F0B2FA2E4B186016E00021201C06F0F1FB002810D02D49201C06F0D7FB00280AD0FC218905201C06F05AFC0E
:403A4000244B186002E00022224B1A60214A937C0133DBB29374092B36D900221D4B9A74FA218905009806F0CFFB002810D00399029807F093F81C4906F0B2FD009906F0FD
:403A8000AFFD011C1948FFF7E9FD124BD8601BE0009808F031FD164A164B06F067FB002812D0009B80221206944663441D000E49039806F095FD291C06F092FD011C0B48E8
:403AC000FFF7CCFD034BD86004B004BC9046F0BD1C1D0020D4010020BC0000201C0500200000C8420805002000007A44F40400207B14AE47E17AA4BF70B582B0FFF7B0FED5
:403B0000050000236A46D3716A4693710024002610E06B469A1DD91D2000FFF761FD002806D16B4606331B78023B5A4253411E430134E4B2AC42ECD3300002B070BDC046D2
:403B400010B5064B1B689B0506D5002003F0B2FB80229200014B1A6010BDC046800F284010B5002003F0A6FB04F094F8054802F0BBFA054804F09EF880229200034B1A60ED
:403B800010BDC046401E0020413B0000880F2840014B18687047C046E8010020014B58687047C046E8010020014B98687047C046E8010020014BD8687047C046E801002071
:403BC00010B503F065FF10BD70B506000D00002003F070FB04F0A2F8012003F06BFB002403E0305D04F0C4F80134AC42F9DB70BD30B583B0FFF7E4FF002801D103F05AFB83
:403C0000704B1B7D012B24D0002B05D0022B6CD0032B00D185E0D0E000226A4B5A75FFF7CFFF01280ED1684C02230093C4239B0101220421200002F09DFA644BE15C601CDA
:403C4000FFF7C2FF5F4B1A7D01321A7500229A61B6E004F04FF808282DD909215C4B5A4AD154002408E004F047F9574B1B19594A9446634418700134554B534AD35C9C428B
:403C8000F1DB1500100002F069F9534B1870534BE85A07F073F94B4C514906F0A1FC60608223DB00E85A07F069F94D4906F098FC206001236375434B5B7D012B06D1414B26
:403CC0001A7D01321A7500229A6179E03D4A9369013393610A2B73D9130002221A7500229A6100225A601A606AE00022354B5A75FFF766FF01280DD1334C02230093394BB8
:403D000001220421200002F035FA304BE15C601CFFF75AFF2B4B1A7D01321A7500229A614EE003F0E7FF08282DD90921284B264AD154002408E004F0DFF8234B1B19254A34
:403D40009446634418700134214B1F4AD35C9C42F1DB1500100002F001F91F4B18701F4BE85A07F00BF9174C1D4906F039FCA0608223DB00E85A07F001F9194906F030FC82
:403D8000E060012363750F4B5A7D012A05D11A7D01321A7500229A6112E00A498B6901338B610A2B0CD90B00002119759961002A06D100229A60DA6002E00022014B1A75C2
:403DC00003B030BDE8010020401E00200102000002040000020200003C1E00200E0400000000C8421A33000070B50320FEF7DCFB040003000E4A1278904206D1012815D1F7
:403E00000B4A51789278914210D0012B02D1084B5D7800E06425FA2080006843642106F0A3F804F02DF9024B9D701C7070BDC04604020020F0B55F4656464D464446F0B4BC
:403E400093B005000E00141E65D0002863D0002961D04B1E98460521180005F0FBFF0190C7B202F09DFF002855D0002F53D07543A9462A002021200008F08CFCBB01DB1BC1
:403E80009B00DB1B9B19DBB2FF21019A1140481E181806F069F803903322002105A808F079FC05A9332002F087FF8346A519019405AB029300239A4625E06B1E9F421CD8D4
:403EC00005220299019808F05CFC029B05330293534601339BB29A469B4511D9FF22039B1A40BB18190001934346EB18994209D82021380008F04EFC05E00195AD1902E02A
:403F0000019700E00197DA4505D2019B5F1D4B46E3189F42D1D913B03CBC90469946A246AB46F0BD10B5FFF707FC192813D9FFF703FC192803D9FFF7FFFB32280DD9FFF733
:403F4000FBFB322803D9FFF7F7FB552807D9FFF7F3FB042004E0072002E0062000E0052010BDC046014BD8707047C0460402002010B50022074B1A71002003F07DFD02F023
:403F800075FE04F0CFF8002004F07AF80020FFF7E9FF10BD0402002010B50C0006F084FFC317C018584006F0A1FF06F06DF9C0B20A2105F0D5FFC9B23031217010BDC04630
:403FC00070B50E0006F070FFC317C018584006F08DFF06F059F9C4B26421200005F0C0FFCDB20A21200005F0BBFFCCB2281B0A2105F0BAFFC0B2303030703034747070BD4C
:40400000F8B50E0006F050FFC317C018584006F06DFF06F039F984B2FA218900200005F09FFF8FB26421200005F09AFFCDB20A21200005F095FFCCB2281B0A2105F094FFE4
:40404000C5B2FF2108400A235B4258433818001B9B3905F089FF83B2002B02D12022327001E030303070002D04D1002B02D12033737001E0303575703034B470F8BDC046A4
:4040800070B5FFF763FB06F00FFF00B2831C06DBFFF75CFB06F008FF00B202280FDDFFF755FB06F001FF00B2831C0ADBFFF74EFB06F0FAFE00B2022805DC002304E00023B9
:4040C00002E0012300E00223394AD278012A6ED1002B0DD1364C200021300932354908F050FB200036300822334908F04AFB5EE0012B2DD12E4C200021300A222F4908F02E
:4041000040FB2500363508222D49280008F039FB0023E371FFF72CFB2900FFF771FFFFF727FB284906F026FC06F0AEF880B2642105F016FF88B206F0D9FE224906F050FAED
:40414000214906F017FC21003B31FFF739FF2EE0022B2CD1164C200021300A221B4908F010FB2500363508221549280008F009FB0123E371FFF7FCFA2900FFF741FFFFF77E
:40418000F7FA104906F0F6FB06F07EF880B2642105F0E6FE88B206F0A9FE0A4906F020FA094906F0E7FB21003B31FFF709FF70BD040200206CCB000078CB000084CB0000C7
:4041C00090CB00000000C842000070429CCB0000F8B54F464646C0B40F0006F065FEC317C018584006F082FE041C06F04DF8214905F0B6FE8946201C06F046F884B2FA21D9
:404200008900200005F0ACFE8DB26421200005F0A7FECEB20A21200005F0A2FECCB2301B0A2105F0A1FEC3B29846FF2630400A3EFF3E4643AD19281B642105F095FE0500BF
:404240000004000C64235B42584386194E44301BFA21890005F0FEFD3030387030357D7043463033BB703034FC700CBC90469946F8BDC0461027000070B5FFF767FA06F03D
:4042800013FE00B2831C06DBFFF760FA06F00CFE00B202280FDDFFF759FA06F005FE00B2831C0ADBFFF752FA06F0FEFD00B2022805DC002504E0002502E0012500E00225FE
:4042C000DA4BDA78052A00D945E39300D84AD3589F46D64C21000831D64B0A0023CB23C203CB03C221001C31D34B0A0023CB23C203CB03C220003030D04B0200190061C969
:4043000061C221C921C2110061CB61C121CB21C1CB4B23CB23C2110005CB05C10C390020FFF73AFE21004E31FE208005FFF734FE21005031C348FFF72FFE0CE3BB4C2100EB
:404340000831C14B0A0043CB43C203CB03C2BF4E3368E361B388238420002A300622310008F00FFA33682363B388A38620003E300622310008F005FA4434B54B220013CBCB
:4043800013C203CB03C2FFF71BFC012804D0FFF761FA002800D1DAE0A44A11003031AD4B186810631B790B71FFF7D6F905F06CFF80B2092810D8FFF7CFF905F065FF80B273
:4043C0009A4C2600443606F0D9FD3100FFF7E4FD57224523E25440E0FFF7BEF905F054FF80B2632810D8FFF7B7F905F04DFF80B28E4C2600443606F0C1FD3100FFF7E0FD47
:4044000057224623E25428E0FFF7A6F905F03CFF80B2914B984210D8FFF79EF905F034FF80B2824C2600443606F0A8FD3100FFF7E7FD57224723E2540FE0FFF78DF905F053
:4044400023FF80B2794C2600443606F097FD3100FFF7BEFE57224823E254002D06D1734B7E4A1188198192789A7210E0012D06D16E4B7B4A1188198192789A7207E0022D57
:4044800005D16A4B754A1188198192789A72FFF75DF906F009FD00B2C317C018584009280FDCFFF753F906F0FFFC00B25F4C26001C3606F01BFD3100FFF76EFD572363770D
:4044C000E2E0FFF743F906F0EFFC00B2C317C018584063280FDCFFF739F906F0E5FC00B2524C26001C3606F001FD3100FFF768FD5723A377C8E0FFF729F906F0D5FC00B261
:40450000C317C0185840544B98420FDCFFF71EF906F0CAFC00B2454C26001C3606F0E6FC3100FFF76DFD5723E377ADE0FFF70EF906F0BAFC00B23D4C26001C3606F0D6FC5B
:404540003100FFF745FE57222023E2549CE0002D08D1364A11001C31424B1868D0611B790B7191E0012D06D1304B3D4A1188998392789A7707E0022D05D12C4B374A11886C
:40458000998392789A77FFF7E1F806F08DFC00B2C317C0185840092810DCFFF7D7F806F083FC00B2214C2600303606F09FFC3100FFF7F2FC57223123E25465E0FFF7C6F8D6
:4045C00006F072FC00B2C317C0185840632810DCFFF7BCF806F068FC00B2144C2600303606F084FC3100FFF7EBFC57223223E2544AE0FFF7ABF806F057FC00B2C317C0184A
:404600005840154B98422FDCFFF7A0F806F04CFC00B2064C2600303606F068FC3100FFF7EFFC57223323E2542EE0C0460402002054CB0000A8CB0000C0CB0000D8CB0000D6
:40464000F0CB00000000404008CC000020CC000028CC000040CC0000E703000048CC00004CCC000050CC0000FFF770F806F01CFC00B2C44C2600303606F038FC3100FFF702
:40468000A7FD57223423E254FFF756F809280AD8FFF752F8BB4C193406F070FC2100FFF77BFC112318E0FFF747F863280AD8FFF743F8B44C183406F061FC2100FFF780FC44
:4046C000102309E0FFF738F8AE4C173406F056FC2100FFF795FC0F23012D05D1013BA94AD31800221A7206E0022D04D1013BA54AD31801221A72FFF715FCA24BD876FFF75E
:40470000AFF801280ED9FFF7ABF89E4C2500563506F034FC2900FFF753FCFFF703FC5423E05402E0984A974B5A6502F03FFB002801D0212100E02021924B2F2299542C3AED
:404740005A751A75DA749A745A741A74DA739A73013A51215A5401395A5401395A5401395A5401395A5401395A5401395A5401395A54F0E0834A10000830844B010031CB65
:4047800031C111CB11C114001C34814B2100180070C870C130C830C1140030342100180070C870C130C830C1443213CB13C2110005CB05C100F002FA002808D1714A1C32D5
:4047C000744B13CB13C2110005CB05C1C3E000F0F5F9012822D16B4C21001C316E4B0A0023CB23C203CB03C2210030316B4B0A0023CB23C203CB03C200F0E6F925002C35B8
:4048000006F0BCFB2900FFF7C7FB00F0E3F93B3406F0B4FB2100FFF7F3FB9CE000F0CEF9022808D1574A1C325D4B13CB13C2110005CB05C18FE000F0C1F9032808D1514A26
:404840001C32584B13CB13C2110005CB05C182E000F0B4F904287ED14A4A1C32524B13CB13C2110005CB05C175E0464C210008314E4B0A0023CB23C203CB03C221001C31E2
:404880004B4B0A0023CB23C203CB03C221003031484B0A0023CB23C203CB03C221004431454B0A0023CB23C203CB03C2FDF788FE2500273506F062FB2900FFF781FBFDF7FA
:4048C00081FE163506F05AFB2900FFF799FB21004E310020FFF774FB21005131FE208005FFF76EFB210054313448FFF769FB32E0244A10000830324B010031CB31C111CB9A
:4049000011C110001C302F4B010031CB31C111CB11C1140030341E4B2100180070C870C130C830C1443213CB13C2110005CB05C102F03CFA00280AD0124C220044321421A1
:404940000120FFF777FA01225823E25403E0002158230C4AD1540B4C220008321421042002F0E6F85922A35C591CA1549B0708D104490831142002F005F9012801D102F00F
:404980007DF970BD040200202020202058CC0000D8CB000070CC000088CC0000A0CC0000B8CC0000D0CC0000E8CC000000CD000018CD000030CD000048CD000000004040D3
:4049C00060CD000078CD000010B5394B1B79002B4CD137495A228B5A01339BB28B52092B24D90B000021995202329B5A632B15D805339BB22E498B52632B03D964215C23AE
:404A00002B4AD1525C232A4AD05AFA239B005843642105F0A9FA03F033FB07E064215C23234AD152FA20800003F02AFB20495E228B5A01339BB28B52C82B17D9FEF710FFF0
:404A4000002813D0FEF78EFE1A4905F0DDFB00280CD001F021F8022808D10138FFF782FA134B00215E2299525D3A1A71124A138801339BB21380322B04D900220E4B1A8058
:404A8000FFF7FAFB0A4BDB78012B0DD10A4A538801339BB2538096225200934204D90022054B5A80FFF7ECFAFFF79EF910BDC046040200200000E040BE000020014B58705A
:404AC0007047C046040200205823014AD05C70470402002010B5002804D104F001FD04F0F7FC0BE0012804D1FA20800004F0F8FC04E0022802D1024804F0F2FC002010BD04
:404B00008813000010B504F0DDFC0220FFF7E2FF10BDC04610B504F0EFFC002004F0E0FC10BDC04670B50B4C0025257065700A4B02221A705A706580002323716371E58068
:404B4000A560A581E58125820120FFF70BFA658270BDC04664020020C200002010B5114B5B78002B09D00F4A538A01339BB253820D4A934201D9FFF7D5FF0A4B5B79012BB6
:404B80000ED1084AD38801339BB2D380C72B07D913000022DA805A71FFF7C4FF04F026FB10BDC04664020020E703000000207047002070477047C0467047C046014B187854
:404BC0007047C04664020020014B58787047C046C2000020014B988A7047C04664020020F0B5474680B404000E0015001F00012820D80100032003F033FB013083B29846B0
:404C0000FF204000C01A80B20221091BC9B205F0ABF983B243449BB2013B9BB2A84501D8AB4209D2002E09D1074B1C1BA74207D0002006E00D2004E00D2002E0002000E017
:404C40000D2004BC9046F0BDFF01000070B50500012812D80EE0611B4B425941C9B223061B1B1802054B9C46604403F0C1FA0134E4B200E00024012CEDD970BDD0FF0100BF
:404C800010B50021052003F0EBFAC4B20121052003F0E6FAC0B2002C02D0002804D106E0002803D0012002E0032000E0022010BD10B5FFF7E5FF054B1870002802D10122A9
:404CC0005A7002E00022014B5A7010BDC200002070B5B24CA5440400FDF774FC40AB1880FD225A80FC3A1A71E379392B00D1ABE03B2B55D0382B00D04BE140AC8033E37177
:404D0000A93B23729A256D000D3B63536A46A44B03CB03C2082269460A20FF30684407F030FD0A236353FFF7ABFF9E4B1870002802D101225A7002E000229A4B5A7040AD20
:404D4000E873984B5B782B749A267600AC5B0234A4B2AC53382294491220FF30684407F010FD382291494A20FF30684407F009FD7034AC5300262E728D4C012565706682D8
:404D80000121022003F06CFAA0602570A6820320FFF7E8F88749694440A800F0D5FCF8E040ABBB22DA71AC3A1A7202212632FF3299527F4B5B78012B3DD17A4B5B78022BEA
:404DC00039D0210008317C48C01A04F0A7F8002803D00A2240AB1A7202E0002240AB1A7240AB1B7A002B1BD16E4B587803F0D8FA00280ED18022714B1A606A4B5878FFF7C7
:404E000025FF6B4B01225A710022DA8003321A7009E0022240AB1A720132654B1A7002E00222634B1A705F4B02221A705A7000225F4B5A7002E00C2240AB1A725D496944AE
:404E400040A800F081FCA4E040ABB922DA7102217B329952564B00225A825B78012B00D08BE03433FF33E35A042B00D885E04D4A5278022A00D180E00422FF32934278D13F
:404E8000237A1A02637A1343494A53804A4A934203D8002240AB1A7202E00A2240AB1A7240AB1B7A002B09D000F0E4F900F00CFA4049694440A800F047FC6AE0394B1B7845
:404EC000002B06D10121032003F0CAF9384B188205E00021032003F0C3F9354B188234494A888A810B8A01339BB2CB819A4250D38B68002B15D02B4B1878012811D81300BD
:404F00000021FFF76DFE40AB18720D2809D100F0B1F900F0D9F92749694440A800F014FC37E0234B1B79002B0FD1802252000021684607F02FFC1B4B58781F4B181A694680
:404F400003F0ECFF01221A4B1A7121000A31184B988903F0E3FF002803D00A2240AB1A720EE0002240AB1A72114A938A0133938206E0032240AB1A7202E00C2240AB1A729C
:404F800000F078F900F0A0F90A49694440A800F0DBFB8E239B009D4470BDC046C8FDFFFF90CD0000C2000020C0FF0100C0FE01006402002037020000FF010000B0000020E9
:404FC0000A4A9F235B00584300238354101802003432FF3213700332137004321370023A13803D30FF3003807047C0461C2A0020F0B585B0002400E12500A1235B0063431C
:40500000804A9B5C012B00D0F5E04233FF336343D3183433FF331B78002B1BD14333FF336343D3184133FF331A88013292B21A80642A00D8DFE0734AA1235B005D435319C4
:405040004133FF33002119800023AB542000FFF7B7FFD0E0012B00D0C4E04233FF336343684AD3181A004132FF3216880136B6B216803F33FF3318880A2104F0EBFE80B299
:40508000864200D8B7E0A1235B0063435D4AD3181A004132FF32002111803D33FF331B78002B1BD0A1235B006343564AD31819003E31FF310A780132D2B20A703D33FF334A
:4050C0001B789A420AD9A1235B005D434D4B5D1900230B703435FF352B7091E0A1235B006B43484AD3189B79002B09D14333FF336B43D3189B88009300236A4613710CE0AD
:40510000A1235B006B433F4AD3189A8812025B881343009301236A46137108236A4653713B33FF336B43374AD3183733FF331B8820336A469371012119E0A1235B006B434D
:40514000304AD3181E003B36FF3632889818C779080068448771013292B232803933FF331B889A4201D9992282710131C9B20729E3D9A1235B006B43224AD3181A003B329E
:40518000FF32128801323933FF331B889A4205DDA1235B006B4300211A4A9954684600F03FFDA1235B006B43164AD3183733FF331A88013292B21A800F2A08D9A1235B0039
:4051C0006B43104AD3183733FF3300221A80A1235B005D430B4BEB5C002B0CD12000FFF7EFFE08E0A1235B005D430022054BEA542000FFF7E5FE0134E4B2022C00D8FBE6FB
:4052000005B0F0BD5426002010B5002427E022009F235B00634313495B5C012B1DD13E33FF336343CB183433FF331B78012B14D13E33FF336343CB183D33FF331988013166
:4052400089B21980642908D99F235B005A430021044BD1542000FFF7B3FE0134E4B2022CD5D910BD1C2A002010B5FFF7CDFFFFF7BFFE10BD10B5002404E02000FFF7A0FE74
:405280000134E4B2022CF8D910BDC046A1235B0058430C4B181802003D32FF320023137001003F31FF3100220B8001390A7003310B800A390B8004310B803630FF30027072
:4052C0007047C0465426002010B5002404E02000FFF7DCFF0134E4B2022CF8D910BDC04610B5FFF7C7FFFFF7EFFF10BD002008E09F235B004343064A9B5C002B03D00130A9
:40530000C0B20228F4D9022800D9FF207047C0461C2A0020F0B557464E464546E0B48CB00290039104920593CCB2002C05D0060AFF252E40B246054002E0C84B9A46C84DF2
:4053400002AB9E793209172302A98C4663441A701B78DBB2012B00D1CFE0002B7BD0022B00D149E1032B1BD0D0E11900A12252005A43BC48125C012A0FD14232FF325A4388
:4053800082183432FF321278002A06D14332FF32514341188A88954207D00133DBB200E00023022BE1D9002000E01800022B00D9ACE101000F243440A12252004243A94D50
:4053C000AA183532FF321470002C22D102AA157AA44CA12252005043201801003F31FF310D8002A9CD7901003D31FF310D7005003635FF3500212970083529704130FF3096
:4054000001805343E3183433FF33423AFF3A1A707CE1012C16D1A1235B004343914AD3183633FF331A780132D2B21A70042A00D86CE1A1235B00594300228A4BCA54FFF71F
:40544000BFFD63E1A1235B0059430022854BCA54FFF7B6FD5AE1FFF749FF8046FF2800D154E101000F2232409F235B0043437E48C3183533FF331A809C235B007B48C2523F
:40548000002015E0461C330002AA944663449F799F235B004B43744AD3181A18D771734A1018C7723933FF331A8801321A80F0B282B29F235B004B436B4EF3183533FF3325
:4054C0001B889A42DED39F235B0041464B4302219955ADB2F3185D8052466946CA80CE889E809C7161488580C68004720430FFF7EFFB4046FFF764FD08E1FFF7F7FE8046EB
:40550000FF2800D102E1070002ABDB793102F02212010A40D2189F235B0043435249CB183533FF331A8096235B009A4206D91233434300214C4A9954FFF742FD002212E020
:40554000931C02A98C46634498799F235B007B434549CB189918C8713933FF331988013119800132D2B2052AEAD9002C05D153460893002208AB1A7106E02B0252461343C7
:405580000893012208AB1A7108A808234371283383710023C3710A3303728F3343728372C3720373437300F03BFB2F489F22520043465A4383185D805146998002A9097910
:4055C00099711C003434FF340121217011543733FF3319709AE09F2252005A432249525C012A06D13E32FF325A438A185288954207D00133DBB200E00023022BEBD9002724
:4056000000E01F00022B00D980E00F233340BC469F2252007A4314498A183732FF32127893426AD19F235B007B43CB181A003D32FF32002111803733FF331A780132D2B24C
:405640001A700F2A08D99F235B007B43064AD3183733FF3300221A7000214BE0160300001E030000542600201C2A00207C0200209F235B0062465343274AD3181E003936C0
:40568000FF36328890464A1C02A881464A449279914642469A184846D0713288013292B232803533FF331B889A4221D31A499F235B00604658433D3BFF3B4354174B9D805C
:4056C0005246DA801C7209180A003532FF3212889C2040001A5207311C1D0B33180007F050F82000FFF7F4FA3800FFF769FC0DE00131C9B20629BBD908E09F235B007B43A8
:405700000021054A99543800FFF75AFC0CB01CBC90469946A246F0BD1C2A00207C020020002008E0A1235B004343064A9B5C002B03D00130C0B20228F4D9022800D9FF20F8
:405740007047C04654260020F0B585B004000F009A235B00C65A072E2ED80379002B05D14388009300236A46137107E043881B0202881343009301236A46137108236A46CB
:4057800053712D33FF33E15A917101230EE08B4206D85A1EA218D0791A006A44907103E01A006A449920907101339BB2072BEED9684600F035FA7CE0FFF7B2FF0500FF287A
:4057C00002D102233B7074E096235B009E4203D92B3BFF3B3B706CE00600374AA1235B004343022199546188D318998022885A8022799A7100220AE0A318D979A1235B00C0
:4058000073432D48C3189B18D971013292B29A235B00E35A9A42EFD9A12252006A4326498A183932FF3213802800FFF72FFD2379002B05D16388009300236A46137107E050
:4058400063881B0222881343009301236A46137108236A4653712D33FF33E15A0B0A0F221340102213436A469371D171022307E09A1EA218D1791A006A44917101339BB29F
:40588000072BF5D90C4EA1235B005D43741923003B33FF3306221A80684600F0C1F90123AB5522003432FF32002111703734FF342380002005B0F0BD542600200022014B1B
:4058C0001A707047B603002010B56B4B1A78052A00D9CFE09300694AD3589F46664B01221A7000225A70012000F0BCFAFCF748FEC0E0614B5B78012B00D0BBE05E4B0222A7
:405900001A7000225A70B5E0FEF7F6F8040002F0D3F801281AD1012C18D1594B1B78C72B02D80133564A1370534A538801339BB25380322B10D9524B1B78C72B0CD90120FA
:4059400000F0C4F900224E4B1A7005E000224A4B5A80002000F0BAF902F0AEF8002819D102F096F8002815D1434B9B88312B03D80133414A938010E002F09EF800280CD18D
:4059800002F086F8002808D13B4B04225A7000229A8002E00022384B9A80374B5B78022B06D1002000F092F90322334B1A7061E0042B5FD1002000F089F90520FEF7D2FAEA
:4059C0002D4C04232370FA20800002F059FB6423E3804FE0284B5B78032B4BD10222264B1A7047E0244A138901331381FFF76CF8012802D1FA24640001E0962464001E4A94
:405A0000538901339BB253811B2B1FD9130000225A81DB88002B13D0053B9BB2164AD380002B02D10022144BDA80134BD888FA239B005843642104F097FA02F021FB05E04F
:405A400000220D4BDA80002002F01AFB0A4B1B899C420FD2084B00221A8105321A7009E0002000F0FFF9FA20C00003F0CBFB03F0BDFBFEE710BDC046B603002098CD00007D
:405A8000C400002010B5642001F010FA10BDC0467047C0467047C046014B18787047C046B6030020014B58707047C046B603002070B52B4C482363604B3BA3600525E56093
:405AC00000232370200001F003FD01232370200001F0FEFC02232370200001F0F9FC03232370200001F0F4FC04232370200001F0EFFC2570200001F0EBFC06232370200086
:405B000001F0E6FC07232370200001F0E1FC08232370200001F0DCFC09232370200001F0D7FC0A232370200001F0D2FC0B232370200001F0CDFC0C232370200001F0C8FCCC
:405B40000D232370200001F0C3FC0E232370200001F0BEFC0F232370200001F0B9FC70BDC403002010B5FFF7A3FF10BD10B501F0E3FDFFF7F7FF10BD7047C0467047C04671
:405B8000F8B5002540E06C01214B9C4664442368DB0737D527683F0C0F231F401D4B5F752368DB0202D463685B0D01E06368DB08184A136123681B0D01210B4013750023CF
:405BC00016E01E00032B07D9E2685807C01AC1003831CA40D2B206E0A2685807C01AC1001831CA40D2B20B498E19B2750133DBB2BB42E6D307481030FCF76EFE2268012352
:405C0000134323600135EDB20E2DBCD9F8BDC046A0002E40C403002010B5FFF7B1FF10BD10B5124B02681A621A002032002111710479547144799471D1711A003032DA62E9
:405C4000002307E0C2189479084AD218302154540133DBB242799342F4D30448203001F0AFFD002800D0012010BDC046C403002010B5064801F0DEFF054C064B0F22210005
:405C8000002003F083FE6378637110BD00CE0000FC030020FC2D0020014B185C7047C046FC03002010B582B001AC00236370054B19542170044B0122210003F07FFF02B064
:405CC00010BDC046FC030020FC2D0020012805D1054A117801230B43137004E0024A137801218B43137070470C040020012805D1054A117802230B43137004E0024A137800
:405D000002218B43137070470C040020014B58707047C0460C040020014B98707047C0460C04002010B5012002F0BEFF01F070FE80246403200001F0EDFD002001F016FEA7
:405D400002F07EF9200002F0FDF8002002F026F910BDC04610B5094B1B78002B06D0012001F076FE012001F09BFE05E0002001F06FFE002001F094FE10BDC0460C040020C8
:405D800070B500280ED005F0F9F8114904F028FC104904F0EFFD104904F0ACFA04F074FAC4B200E00024200005F0E8F8084904F017FC051C01F0D2FD05F0E0F8291C04F024
:405DC000D9FD04F061FA01F0D1FD044B1C7170BD0000C8420000A0420000A0410C04002070B500280ED005F0C9F8114904F0F8FB104904F0BFFD104904F07CFA04F044FA99
:405E0000C4B200E00024200005F0B8F8084904F0E7FB051C02F0BAF805F0B0F8291C04F0A9FD04F031FA02F0B9F8044B5C7170BD0000C8420000A0420000A0410C040020B3
:405E400010B5044C6078FFF79BFFA078FFF7C8FF10BDC0460C040020014B1818007970470C04002010B501F02FFE10BD10B5FFF771FFFFF7E5FF0C4B1B78002B03D101F062
:405E80001BFE002804D002F04BFE02F051FE09E0054B1B78002B05D101F00EFE002801D102F046FE10BDC0460C04002010B5041E01D1062000E0012002F002FF002C01D183
:405EC000062000E0012002F019FF002C01D1062000E0012002F030FF002C01D1062000E0012002F049FF10BD30B5051E18D000240C4B11E02A5D5340082209E0D80704D5BE
:405F00005B08094843409BB200E05B08013AD2B2002AF3D10134A4B28C42EBD3180000E0002030BDFFFF000001A0FFFF00280CD000290CD00A78074BC2544A78064BC25418
:405F40008A780133C254012002E0042000E004207047C0460E0800000F080000F0B54F464646C0B483B0041E00D19FE00023524A8354524A835401328354514A835400223A
:405F800050494352023143524F4BC2544F4BC2544F4BC2544F4BC55C032D0BD94E4BC618002E07D04D4BC75C032F03D9431C9846002B04D102224A4BE254052077E0A91E58
:405FC000711806236B4499460222180006F0D9FBB91E4144022201A806F0D3FB023DA9B23000FFF781FF4B461B8898420AD13B4BE15C023989B24046FFF776FF01AB1B88CC
:40600000984204D00122364BE25405204FE00022334BE254304BE3185B785AB2002A09DA2C4AA25C052A05D131002000FFF77EFF012334E0013BDAB20F2A2ED8DBB29B00A8
:40604000284AD3589F4642463100200000F0DEF8012324E042463100200000F0AFFA01231DE042463100200000F08AF9012316E042463100200000F043FB01230FE042463C
:406080003100200000F006FA012308E042463100200000F0BBFB012301E000231800002B05D109220E4BE254052000E0042003B00CBC90469946F0BD0E0800000F080000E6
:4060C0000A040000060400000B040000040400000C0400000204000002020000010200001108000000D2000070B5041E2CD001308026B6003200002106F04CFB0025134B86
:40610000E554134BE0183200002106F043FB114BE554114BE0188022D200002106F03AFB0E4BE55400238122D200A5520C4AA5520C4AA3540C4AA3540C4AA3540C4AA354FE
:406140000132A354002000E0042070BD0102000002020000020400000E0400000A040000060400000B040000040400000E0800000F08000070B5040004A80588002C3FD08C
:40618000C81EC0B2012804D90A221E4BE254062037E0002A04D112321A4BE254062030E00020194EA0552070681E80B27C2804D90322144BE254062023E06270661CA170D8
:4061C0001A021B0A13439BB2E3701B0A23712B022A0A13439BB263711B0AA37106213000FFF782FEE071000A20720822064BE2546D0005352570034B0022E254002000E051
:40620000042070BD1208000001020000F0B583B004000D001600002800D195E0002900D194E0002A00D193E04A78531EDBB2012B04D90A22494BC25405208CE0484BC05CC8
:406240008B78591D884203D14649615C082904D00222424BE25405207DE030797179090201430802090A01438FB22978002904D112223A4BE25405206DE03078814204D08A
:406280000D22364BE254052065E071788A4204D00C22324BE25405205DE05A1ED2B2F92A0AD89BB2002F04D07A1ED210013292B200E03A00934204D00222284BE2540520CB
:4062C00049E0002F04D07B1EDB1001339BB200E03B008022D20093423CD8234B9C46A44463460193002F04D07A1ED210013292B200E03A000021019806F04CFAE91CAA7855
:40630000019806F03EFA6A78184BE2542A78184BE2546B78012B01D1033300E00823154AA354B278F3781B0213431A021B0A1343114AA3528123DB00E752AA780F4BE2540F
:406340000020064BE05406E0042004E0042002E0042000E0022003B0F0BDC0461108000002040000010200000E0400000C040000040400000B040000060400000A04000085
:4063800030B500286ED000296ED0002A6ED0384BC35C082B03D1374BC35C082B04D00222354BC254052062E00B78002B04D11222314BC25405205AE01478A34204D00D2235
:4063C0002D4BC254052052E04C7853789C4204D00C22294BC254052049E08B78CD782D021D439478D3781B0223439D4204D00E22214BC25405203AE00B794D792D021D4343
:40640000147953791B0223439D4204D010221A4BC25405202BE0194BC418002323700D794C7924022C43651EAC41144D44550525134C05550C78134944540424124944543A
:406440009178D27812020A431102120A0A430F4942520122023142520D494254064A8354180004E0042002E0042000E0042030BD0204000001020000110800000E040000B8
:406480000C040000040400000B040000060400000A04000070B500287AD000297AD0002A7AD03E4BC35C062B07D994790934A34203D13B4BC35C082B04D00222394BC254F9
:4064C00005206AE00B78002B04D11222354BC254052062E01478A34204D00D22314BC25405205AE04D785478A54204D00C222D4BC254052051E08C78CE78360226439578BE
:40650000D47824022C43A64204D00E22254BC254052042E00D794C7924022C431579527912022A43944204D00F221E4BC254052033E02202240A1443A4B2F622D2009442B6
:4065400004D90322174BC254052026E0164A83540F22164BC2540B3A154BC2548A78CB781B0213431A021B0A1343124A83520A794B791B0213431A021B0A13438122D20096
:40658000835200230C4A8354064A8354180004E0042002E0042000E0042070BD010200000204000011080000040400000C0400000B040000060400000A040000F0B54746A5
:4065C00080B4002800D183E0002900D182E0002A00D181E04C78E31EDBB2012B04D90A223F4BC254052078E03E4BC65C8B785D1DAE4203D13C4D455D082D04D00222384BE8
:40660000C254052069E01579567936022E433502360A2E43B5B20E78B046002E04D112222F4BC254052058E01678B04504D00D222B4BC254052050E05678B44204D00C22B4
:40664000274BC254052048E0002B04D06C00A34201D1FA2B04D90222214BC25405203CE0002310E05C000C19E6782479240234432602240A34438126B6009E197600861918
:40668000F4800133DBB29CB2AC42EBD30C78174BC4544C78164BC4544B78032B01D1023B00E00223134C03559478D3781B0223431A021B0A1343104A83528123DB00C5527E
:4066C0008A780E4BC2540023054A8354180004E0042002E0042000E0042004BC9046F0BD110800000204000001020000040400000C0400000B040000060400000A04000012
:4067000030B5002869D0002969D0002A69D0364BC35C082B03D1354BC35C082B04D00222334BC25405205DE00B78002B04D112222F4BC254052055E01478A34204D00D22D2
:406740002B4BC25405204DE04C7853789C4204D00C22274BC254052044E08B78CD782D021D439478D3781B0223439D4204D00E221F4BC254052035E00C794B791B022343E1
:406780001479527912022243934204D01022184BC254052026E01A021B0A1343154A83520622154BC2540A78144BC2540124144BC4548A78CB781B0213431A021B0A13433E
:4067C000104A83528123DB00C45202220E4BC2540023074A8354180004E0042002E0042000E0042030BDC0460204000001020000110800000E0400000C040000040400008E
:406800000B040000060400000A04000070B5002871D0002971D0002A71D03A4BC35C062B07D994790934A34203D1374BC35C082B04D00222354BC254052061E00B78002BA0
:4068400004D11222314BC254052059E01478A34204D00D222D4BC254052051E04D785478A54204D00C22294BC254052048E08C78CE78360226439578D47824022C43A642B5
:4068800004D00E22214BC254052039E00D794C7924022C431579527912022A43944204D00F221A4BC25405202AE02202240A1443A4B27B2C04D90322144BC25405201FE094
:4068C000134A83541022134BC2540F3A124BC2548A78CB781B0213431A021B0A13430F4A83528123DB00C45200230D4A8354074A8354180004E0042002E0042000E004204D
:4069000070BDC046010200000204000011080000040400000C0400000B040000060400000A04000010B5002002F0D4F9002002F0EFF9002002F00CFA002002F029FA0020B8
:4069400002F03AFA002002F043FA002002F04CFA10BDC04670B5FFF7E5FF0120FFF7A6FA002002F035FA012002F03EFACA256D00012002F033FD012002F01EFA012002F058
:406980002DFD02F011FA0400002002F015FA012002F024FD012002F00FFA012002F01EFD002002F009FA012C02D10A2002F016FD013D002C01D0002DDAD1002002F014FA96
:4069C000FFF7B0FF0020FFF771FA70BD70B50400013948424841C0B202F0FAF9002002F003FA012002F00EFC01252800204002F071F96008284002F08BF9A008284002F0F9
:406A0000A7F9E008284002F0C3F9012002F0D4F9012002F0E3FC002002F0CEF970BDC04670B504000D00FFF795FF20092900FFF7CDFF0F2020402900FFF7C8FF002070BD44
:406A400070B584B06B460B4A70CA70C31C0013682360032900D9032189006B46CB58C01880235B421843C0B20021FFF7D9FF04B070BDC04640D2000070B50500FFF76AFF54
:406A800000214020FFF7CCFF002405E0285D0121FFF7C6FF0134E4B23F2CF7D9FFF75AFF00218020FFF7BCFF70BDC04670B502F01DF901252840040002F036F928404000A7
:406AC000044302F051F928408000044302F06CF92840C000204370BD10B5012002F078F9012002F081F9012002F08CFB0120FFF7DDF9012002F060F9012002F083FBFFF785
:406B0000D5FF0F2404400020FFF7D0F9002002F053F9200010BDC04610B5FFF71BFFFFF7DBFF0001C4B2FFF7D7FF2043C0B210BDF8B54F464646C0B40F009046031C0428DE
:406B400000D90423DBB299463E1C142F00D91426F6B2002510E0E9B20020FFF771FF002407E02B007B434344185D0121FFF758FF0134B442F5D301354D45ECD30CBC9046A4
:406B80009946F8BD70B50E00051C142800D91425EDB200210020FFF753FF002405E0FFF7BBFF335D984204D10134AC42F7D3002000E0012070BDC04600B591B0002002F036
:406BC00089F8002002F0A4F8002002F0C1F8002002F0DEF8282002F015FB00210320FFF7F5FE052002F00EFB00210320FFF7EEFE0F2002F007FB00210320FFF7E7FE012093
:406C000002F000FB00210220FFF7E0FE052002F0F9FA00210620FFF703FF00210E20FFF7FFFE00212C20FFF7FBFE00210820FFF7F7FE00210120FFF7F3FE00210C20FFF7C9
:406C4000EFFE00210320FFF7EBFE052002F0DAFA402205491031684605F093FD6846FFF70BFF11B000BDC04640D2000010B5FFF7A3FF00210C20FFF7D3FE10BD10B501208D
:406C800000F0FAFEFA20800002F0BCFA002000F0F3FEFFF7EBFF10BD84B0031C9B071B0C0004800C184380B204B0704770B50600002413E00D496200121993005858CB180D
:406CC00059689A68FFF7E8FFB04205D163001D19AB000648C01807E00134A4B27823034AD35A9C42E6D3002070BDC0461404002070B584B0019002910392FFF7CDFFFFF74F
:406D0000D5FF00280FD0002343608378012B24D001AB9B78012B20D1837011497A228B5C01338B5419E078230D4AD45A092C14D81600600000198000101801AD0C22290062
:406D400005F01FFD01347823F452AB78012B04D103497A228B5C01338B5404B070BDC0461404002010B583038804800C184380B2FFF79CFF002801D0807800E0002010BD88
:406D800010B5064C78220021200005F003FD00227823E2520233E25410BDC046140400207823014AD05A7047140400207A23014AD05C704714040020F0B583B007000E1E78
:406DC0003AD0002830D1002537E06200121993001B4AD3189B78012B23D106220021684605F0D8FC1649630018198200525C9207920F1448825C684602701B199A00505A92
:406E0000800810226B46591C05F0B7FC300005F033FD3A1A013A3018694605F034FD0135ADB20134A4B201E0002400257823044AD35A9C42C9D300E00025280003B0F0BD62
:406E400014040020A0D20000F8B507000D1E28D000281ED1002625E0620012199300124AD318022F12D9186859689A68FFF714FF030A2B7068706200121993000A4AD318A1
:406E80009B78AB700136B6B2033F03350134A4B201E0002400267823034AD35A9C42DBD300E000263000F8BD1404002030B500232BE05900C9188A0017498A189278012A03
:406EC00021D15900C9188A0013498A189568002D19D05900C9188A000F498A185168411851608D420FD80C495A00D418A2008A18032494707A228A5C002A01D0013AD2B24E
:406F00007A21054C625401339BB2782202498A5A9342CED330BDC046140400203322094B1A60303A084B1A6080221206074B1A60074B084A1360084A13602022074B1A60FA
:406F40007047C046002102403000304000003A4007000F0000033A4040033A40000E3F4010B505F0C7FB03680C2B00D1FEE7FEE710B50300084A1068C318084A9A1A802A24
:406F800002DC054A136005E005F0B4FB0C2303600120404210BDC046C8000020B82E002070B50F4E0F4D13E029686B68AC68002202E001C901C30432A242FAD1E868002280
:406FC00002E0002102C304328242FAD11035013E002EE9D105F094FBFBF724FAFEE7C0460100000074D9000010B500230AE0032B03D89A000B49505800E00B4899000B4A39
:40700000885001332B2BF2D9FBF7F2F8084B1B68002B02D10022064B1A6080229205054B1A6010BD00200000616F000000000020B000002008ED00E010B50321192002F0ED
:40704000AFF83D49192002F099F83F223B4B1A603B4B1B68002B01DA3A4900E03A493B4A13680B4313603A4A3A4B1A603A4A3B4B1A6000233A4A13603A493B4A11603B49F2
:407080003B4A11603B4A13603B4A136001223B4B1A603B4A11683B4B0B40802189050B431360002445E03849A2005058DC239B0103400919097E0B4334498C4662441360B7
:4070C000C30707D52B490A680123A3401B041B0C13430B60A3002C4A9B589B0707D526490A680123A3401B041B0C13430B60A300254A9B589A0502D58020C00001E0802021
:407100004001DB0504D463000021214A995203E0420863001E495A521E4B58431E4B9C4660441E4902F020FF00B2A2001C4BD0500134052CB7D910BDA972000020003A401B
:4071400080033A40E02E1013E02E001300003A402100008004003A400000FF0718003A401C003A400600060010003A400200020014003A4028023A4038023A4018023A40E5
:4071800030003A40FEFFFFDFA4D2000080003A40F02D002010270000C409000088130000D82D002010B5094B1B68002B0CDB084B1B68002BFBDB054A1368802109060B438C
:4071C00013600A2002F00AF910BDC04600003A4008023A4010B5064B1B78002B04D1FFF72BFF0122024B1A70FFF7DCFF10BDC0468F040020034A1368802149020B4313609D
:407200007047C04604003A4010B50400052802D9002001F0B1FF052C07D8A400044B9C46644420680004000C00E0002000B210BD80013A4070B505000C00052802D9002084
:4072400001F09AFFAB00144A9B585B0504D5E317072213401C19E4106B00104A9B5A1BB2E41A24B20E486043002C06DDAB000D4A9A58D30F9A18531006E0AB00094A9A588C
:40728000D30F9A18521053421818AD00054BE95802F06AFE00B270BDA4D20000F02D002010270000D82D0020014B1A681A60704710023A4004490A687F231A40C301D8B2F9
:4072C000104308607047C04600020440054B1A6801210A431A601B68194201D1012000E00020704704002E4010B500220D4B1A60FFF7ECFF1A2001F02BFF0B4A116801233A
:407300000B43136090239B0000E0013B002B03D0054A1268D207F8D5002B01D1012000E0002010BD00002E4010002E4003B2002B0DDB094A1168094B0B40000403431360EE
:407340001268074B1340984203D0012002E0022000E000207047C04614002E40FFFF00800000FF7F002809D10C4B19680C4A0A401A601B68DB040CD501300DE0074B1A68B8
:40738000802149010A431A601B680B4203D1012002E0002000E000207047C04614002E40FFEFFFFF70B5841EE4B20D2C35D88C1EE4B2052C03D9002B31D1012931D1032AB3
:4073C00031D8904231D3914231D31C4D2C68240AE4B20F26B44320432E68194C3440000204432C602C686040F0242401204220D1002B00D002234901C9B29200D2B2114334
:4074000019430E4A1368EE2083430B4313601368034099420FD0ED380EE002200CE002200AE0022008E0022006E0022004E0022002E0012000E0002070BDC04614002E40F1
:40744000FFF0FFFF002809D10B4B1A6810218A431A601B6819420BD001300CE0064B1A6810210A431A601B68194203D1012002E0002000E00020704714002E40002809D11C
:407480000B4B1A6801218A431A601B6819420BD001300CE0064B1A6801210A431A601B68194203D1012002E0002000E00020704714002E40054B18601B681B041B0C984280
:4074C00001D0012000E000207047C04604002E4010B503785B01204A944663441F4A41680A431A6003785B01634419681C4A11401C4A44682240914224D182681A61037839
:407500005B0163441A6981688A421DD1C2685A6103785B0163445A69C1688A4216D1012252429A6103785B0163449A6901320FD10022DA6103785B016344DB69002B09D0B7
:40754000012008E0012006E0012004E0012002E0012000E0002010BDA0002E40800080007F007F007FFF7FFF10B503781B01104A944663440F4A41680A431A6003781B0166
:40758000634419680C4A11400C4A4468224091420AD182685A6003781B0163445A6883689A4203D0012002E0012000E0002010BD20002E4008008000F7007F00F7FF7FFFBB
:4075C00070B500240AE063001B199800104B1818FFF7CAFF002805D10134E4B2072CF2D9002500E00125002D0BD00FE0230108486030C018FFF76CFF002806D10134E4B2EF
:4076000000E000240F2CF1D900E00125280070BDC4D20000002809D10C4B19680C4A0A401A601B689B040CD501300DE0074B1A68802189010A431A601B680B4203D10120B0
:4076400002E0002000E000207047C04614002E40FFDFFFFF10B580221206344B1A60344A136801218B431360F0235B0100E0013B002B03D02E4A1268D207F8D4002B4AD0B4
:407680001A2001F06FFD2B491A2001F077FD03211A2001F085FD0320FFF748FE00281BD1FFF760FE002819D1FFF7B4FF002817D10023032203210630FFF774FE002811D1A9
:4076C0000130FFF7BFFE00280ED10130FFF7D6FE00280BD001230AE0012308E0012306E0012304E0012302E0012300E00023002B13D1FFF765FF002811D1FFF7DBFE0028DE
:407700000FD10B4B1A6807218A431A601B68194209D0013008E0012006E0012004E0012002E0012000E0002010BDC04600042E4010002E40BD77000010B5084B1B78002B55
:4077400002D1FFF787FF00E00020002804D10122024B1A70FFF7C8FD10BDC04690040020002809D10C4B19680C4A0A401A601B685B040CD501300DE0074B1A688021C9016D
:407780000A431A601B680B4203D1012002E0002000E000207047C04614002E40FFBFFFFF054B1A6801210A431A601B68194201D1012000E00020704718002E407047C046BA
:4077C000F8B54F464646C0B4040001200023984691E04C4B1B6832041A427AD12379002B01D1002701E08027BF036379002B07D12B01454A94466344226852055A6009E010
:4078000080235B031F432B013F4A944663442268D2005A60A379072B03D81B041F43B94603E080231B031F43B946E379002B03D004234A461A43914600232AE0032B13D95F
:407840002801324A94466044026894465907CA1AD1003831FF228A4067469743E268D25C8A403A43026012E02801274A94466044826894465907CA1AD1001831FF228A4079
:4078800067469743E268D25C8A403A4382600133DBB2A279934201D2072BCFD91A2001F061FC2B01184A94466344194A4F4617431F60227A002A04D0196803220A431A60D3
:4078C00003E0196801220A431A601A2001F040FC00207600F6B2002807D00135EDB201E001260025072D00D873E7002806D043460133DBB298464346022BF1D90CBC9046EA
:407900009946F8BD08002E4020002E402C002E400800800010B5040002F023FA054B1968054A0A401A601A6814431C6002F01DFA10BDC04600012040FFFFCFFF0004000C63
:40794000014B18607047C046080120400004000C014B18607047C04614012040024B18680004000C7047C046140120400004000C014B18607047C0460C01204070B50400E1
:407980000D0002F0EEF9AC40024B1C6002F0EDF970BDC0460800204010B502F0E2F9064A116801230B43136002F0DFF918210120FFF7E4FF10BDC04600002040014B186085
:4079C0007047C0463801204010B50D4C8023DB042360236823600020FFF7B0FF236823600C22084B1A600120FFF7E8FF3122064B1A600648FFF7AAFF0020FFF7B7FF10BD90
:407A00000001204024012040280120408813000010B5064B1B78002B04D1FFF7D5FF0122024B1A70FFF7B8FF10BDC04691040020024B1868800901231840704704040440C5
:407A4000024B186840080123184070470400044004490A68D2B220239A434001184010430860704700060440024B186840090123184070470406044004490A68D2B2402381
:407A80009A438001184010430860704700020440024B186880080123184070470404044004490A687F231A40C301D8B2104308607047C04600040440024B1B680120184072
:407AC0007047C0460404044004490A68D2B220239A434001184010430860704700020440024B18684009012318407047040204408C23014AD05070470000002010B504007C
:407B000002F02FF9044A13689B009B08A4071C43146002F02AF910BD10E400E080221203014B1A607047C04600E100E080221203014B1A607047C04680E100E010B50400B1
:407B4000FFF7F4FF2000FFF7D3FF0320FFF7D6FFFFF7E4FF10BDC0460004000C014B18607047C046880120400004000C014B18607047C046940120400004000C014B1860C6
:407B80007047C0468C01204070B504000D0002F0E8F8AC40024B1C6002F0E7F870BDC0460800204010B502F0DCF8064A116804230B43136002F0D9F818210420FFF7E4FFBD
:407BC00010BDC04600002040014B18607047C046B801204010B50022094B1A600C32094B1A600120FFF7F0FFFA24A4002000FFF7BBFF2000FFF7C0FF0020FFF7ADFF10BDFB
:407C000080012040A401204010B5064B1B78002B04D1FFF7DFFF0122024B1A70FFF7C2FF10BDC04692040020014B18607047C046B001204000B585B000236A4653728033E0
:407C400000937F3B13720133019303900249684601F050FE05B000BDFC2D002010B50B2001F076FA10BDC04610B500F02FF910BD10B500F0B5F810BD10B5054A13688021B7
:407C800009060B431360FFF7E9FFFFF7EDFF10BD0000284010B5064B1B78002B04D1FFF7E7FF0122024B1A70FFF7E6FF10BDC04694040020014B58607047C04694040020A1
:407CC000094B1A68094B1B689A420BD0074B1B680133412B00D10023054AD05CC0B2034A136000E000207047242E0020182E0020282E0020074B1B68074A1268934203D3BA
:407D0000054A1068181A04E0034A10681B1A413318007047242E0020182E002010B50B2001F020FA0B4B1A680B4B1A6000220B4B1A700B4B1A68802149020A431A601968A0
:407D4000084A0A401A60084A084B1A600B2001F0FFF910BD182E0020242E00201C2E002004032840FFFFFEFFED0F0000C00F2840144B1A68144B1B689A4208D1134B1B68B5
:407D80001F221340102B02D0114B186019E00D4B1A680132402A00D100220B4B1B689A42FBD002230B490B60C0B20B49885405490A600A4A1268134203D1084A11680B431D
:407DC00013607047AC2E0020202E00200802284040022840800F28406C2E0020880F284070B5204A204B1A600024204B1C60204A204B1A60204B214A13600721204A11600B
:407E0000204A14600639204A1160204A1360204B1C6004251F4B1D600B2001F0A3F903210B2001F0BDF91C490B2001F0A7F91B4B1C601B4B1C601B4B1C601B4B1C601B4BB9
:407E40001D601B4B1C601A681A4B1A801A4B1C601A4B1C601A4B1C701A4B1C601A4B1C6070BDC0460B080002000028404000284001000A00480028400700008000032840A8
:407E8000040328401003284044002840000228400402284050002840719D0000880E2840C80E2840480F2840080F2840C80F2840880F28409C040020242E0020182E00203E
:407EC0001C2E0020AC2E0020202E0020064A1168064B0B40902109040B431360044B1A88044B1A607047C04600040240FFFF0FFF9C040020880F284010B50B2001F032F938
:407F0000FFF7F8FE002806D00B2001F021F9FFF7D7FE040007E0094B1C680422084B1A600B2001F015F9064B1868D82292001A600002D8239B021840204310BD40032840D2
:407F4000C00F284010B5040001F00BFF054B1968054A0A401A601A6814431C6001F005FF10BDC046C0022040FFFFCFFF0004000C014B18607047C046C80220400004000C4C
:407F8000014B18607047C046D4022040024B18680004000C7047C046D40220400004000C014B18607047C046CC02204070B504000D0001F0D6FEAC40024B1C6001F0D5FE07
:407FC00070BDC0460800204010B501F0CAFE064A116880230B43136001F0C7FE18218020FFF7E4FF10BDC04600002040014B18607047C046F802204010B50D4C8023DB0425
:408000002360236823600020FFF7B0FF236823600C22084B1A600120FFF7E8FF3122064B1A600648FFF7AAFF0020FFF7B7FF10BDC0022040E4022040E802204088130000F2
:4080400010B5064B1B78002B04D1FFF7D5FF0122024B1A70FFF7B8FF10BDC0469E0400200004000C014B18607047C046080220400004000C014B18607047C046140220404F
:408080000004000C014B18607047C0460C02204070B504000D0001F064FEAC40024B1C6001F063FE70BDC0460800204010B501F058FE064A116810230B43136001F055FE89
:4080C00018211020FFF7E4FF10BDC04600002040014B18607047C0463802204010B50E4C8023DB042360236823600020FFF7B8FF236823600C22094B1A600020FFF7E8FFEA
:408100003122074B1A60FA208000FFF7B1FF0020FFF7B6FF10BDC04600022040240220402802204010B5064B1B78002B04D1FFF7D5FF0122024B1A70FFF7B8FF10BDC046E3
