:400000000040002011000000210200002102000010B500F05DFE00F07FFA00F009F9C04610B512222D4B1A6000F028FE2C4800F0F3FE182000F0A4FD00F03AFD0121002010
:4000400000F0C4FC274C284B2360782000F0E4FE264B2360002404E0F02000F0DDFE0134E4B2182C03D8224B1B68002BF4D00322204B1A60204B1B68002B03DA1F4B1B6870
:40008000DB0718D51E4A1368802109060B431360002309E01A4A11680220014311601168814311600133DBB2042BF3D9144A13685B005B0813600024124B1C6012490D2064
:4000C00000F0C0FC0D2000F0B1FC104B1C60002000F006FE1122014B1A6010BD30001040001BB70014002F4008070280080702C018002F4000002F4008002F400C002F40BA
:4001000020002F4028000340750D00000C02224010B572B6EE2212020D4B1A6080220D4B1A60C02212040C4B1A600C4A0C4B1A60D82212010B4B1A600B4A0C4B1A600C4A33
:400140000C4B1A60FFF76CFF00F05EF810BDC04600030240000104400801044080E1C40008020440080304404000CC0008040440896103000806044010B5064C2378002B23
:4001800007D1054B002B02D0044800E000BF0123237010BD4801002000000000AC0E0000084B10B5002B03D00749084800E000BF07480368002B00D110BD064B002BFBD069
:4001C0009847F9E7000000004C010020AC0E0000B80000200000000010B500F00BFA012000F07EF8002000F06FF8FA246400200000F046FC002000F073F8012000F064F8CD
:40020000200000F03DFCEAE70322034B1A601D32024B1A607047C04630003040000E3F4010B500F009FE03680C2B00D1FEE7FEE770B50F4E0F4D13E029686B68AC68002253
:4002400002E001C901C30432A242FAD1E868002202E0002102C304328242FAD11035013E002EE9D100F0EEFDFFF7B6FFFEE7C046010000000C0F000010B500230AE0032B31
:4002800003D89A000B49505800E00B4899000B4A885001332B2BF2D9FFF73AFF084B1B68002B02D10022064B1A6080229205054B1A6010BD0000000021020000000000207C
:4002C000B000002008ED00E004490A68D2B204239A43800018401043086070470002044004490A687F231A40C301D8B2104308607047C046000104400047C04610B5802208
:40030000024B1A6000F0B0FB10BDC046B000002070B505000E001400002802D0002000F08FFB002005E0013CAB19E3181B781818C0B2002CF7D170BD70B5C0B0050AFF23BB
:4003400004009C43002304E01A5D6E46F25401339BB2FF2BF8D9FF2318406B461B5C8B4206D06B4619542804000C694600F044FA40B070BD70B50500012812D80EE0611B6A
:400380004B425941C9B223061B1B1802054B9C466044FFF7D1FF0134E4B200E00024012CEDD970BDD0FF010010B50C2863D88000404B1B589F460B06591A0B023E4A94463D
:4003C000634401225CE00B06591A0B023B4A94466344042254E00B06591A0B02384A9446634402224CE00B06591A0B02354A94466344042244E00B06591A0B02324A944660
:40040000634401223CE00B06591A0B022F4A94466344012234E00B06591A0B022C4A9446634402222CE00B06591A0B02294A94466344022224E00B06591A0B02264A9446D4
:40044000634402221CE00B06591A0B02234A94466344042214E00B06591A0B02204A9446634401220CE00B06591A0B021D4A94466344042204E0002000F0E2FA02220023DB
:40048000012A02D11878C0B200E00020022A03D11978587800020843042A09D11A785878000210439A7812041043DB781B06184310BDC046B00E0000C0FF0100C1FF010073
:4004C000C5FF0100C9FF0100D0FF0100D1FF0100D6FF0100D2FF0100D4FF0100D8FF0100DCFF0100E0FF010010B500210520FFF75BFFC4B201210520FFF756FFC0B2002CBC
:4005000002D0002804D106E0002803D0012002E0032000E0022010BD70B5104B1B68DB0602D400220E4B1A600D4B1B68802B13D1FFF7DAFF04000022094B1A600100022017
:40054000FFF732FF002807D0012C05D821000220FFF72AFFFFF7D0FE70BDC04654000340B000002070B5050001000320FFF71CFF441C240229000420FFF716FF2418012DE4
:400580002ED829000620FFF70FFF01282AD029000320FFF709FF013000020023002608E001784A1ED2B2FD2A00D801265B18DBB20130A042F4D35B42DCB229000120FFF741
:4005C000F3FE844210D1002E10D02B065D1B2802074B9C4660440121FFF7AEFE002006E0062004E0002002E0062000E0062070BDD1FF010070B50020FFF7B4FF0500012096
:40060000FFF7B0FF06000222334B1A7000210520FFF7CAFE01280DD1002D04D100222E4B1A70002409E0002E06D101222A4B1A70002402E0062400E00624274B1B78022B11
:4006400012D101210520FFF7AFFE01280CD1002E04D10122204B1A70002405E0002D03D100221D4B1A7000241B4B1B78022B0CD1002D04D10022184B1A70002405E0002EFF
:4006800003D10122144B1A700024002C04D1124B1878C0B2FFF76EFE0F4D6B681A68C03AC0210020FFF734FEAB681B78C01AC0B24042C0B2834204D1074B5B681B68002B5D
:4006C00002D1002000F0BCF9002C02D0002000F0B7F9FFF713FE70BDBC00002082B0134B0093134B0193134B6A461A601249134A1160C0461B681B0F1B07F02212069342FA
:4007000004D10C4B1B68FF2018400DE0094B1B681B0F1B07A0221206934204D0054B1B68FF20184000E0002002B07047B6E9000064010020080010401600008004001040E7
:40074000104B114A1A601149114A1160C0461B681B0F1B07F0221206934204D1094B1B68FF2018400DE0074B1B681B0F1B07A0221206934204D0034B1B68FF20184000E073
:400780000020704708001040B6E80000150000800400104082B0134B0093134B0193134B6A461A601249134A1160C0461B681B0F1B07F0221206934204D10C4B1B68FF201B
:4007C00018400DE0094B1B681B0F1B07A0221206934204D0054B1B68FF20184000E0002002B07047B6EA00006401002008001040170000800400104030B5C5B00400002372
:40080000439342933D4B984273D8002971D08022520002A800F03CFB394B0093FF230193384B6A461A603849384A1160C0461B681B0F1B07F0221206934204D1314B1B689B
:40084000FF2213400DE02F4B1B681B0F1B07A0221206934204D02B4B1B68FF22134000E000234393439B002B45D100F0DEFA0500FFF734FF4290429B002B02D1FFF760FFEE
:400880004390439B002B25D1214A0092009A2404144300941B4A694611601E481B490860C0461268120F1207F02109068A4204D1144B1B68FF2213400BE0124A1268120F52
:4008C0001207A02109068A4203D00E4B1B68FF2213404393429B002B07D1FFF75BFF4290429B002B01D0429B4393280000F0A1FA01E004234393439845B030BDFF0100006E
:40090000B6D70000080010400400008004001040B6D800000500008070B5040000F085FA0500102C05D8104A136803218B43136016E0202C07D80C490B6803229343023AD7
:4009400013430B600CE0302C07D807490B6803229343013A13430B6002E0002000F070F8280000F066FA70BD300010400C4B1B689B001C22134018330A4A12689208032179
:400980000A40D34008490868084A02400A60084A944663441B78DBB2064A13607047C046080F03402800034000002240FFFFFFBF4DF3FF0F0C0F0340034B18688023DB05C8
:4009C000184000D0012070470000224070B505000C0000F02AFA002D21D112490A680235AA4363002C001C4014430C600E4A1368802109060B431360002309E00A4A116870
:400A00000224214311601168A14311600133DBB2042BF3D9044A13685B005B08136000F008FA70BD00002F4020002F401F2318401E3B8340014A13607047C04600E100E028
:400A400001BE704770B504000D001B2802D90020FFF7F6FF1034A40080239B059C4664442068256070BDC046034A13681B041B0C02490B43136070470CED00E00400FA05FF
:400A800010B5040006E0084B586800F0C5F9074B9C46644480231B029C42F4D8024B9868604300F0B9F910BDC80000200080FFFF70B582B000F002F900284DD000F0B5F996
:400AC0000500264B1A6892001C231A401832244B1B689B0803210B40DA400021214B1960214C2168214B0B4021494A438021C9018C466244D20B013A5205520D1343A022F8
:400B00005203134323601B4B1B6801933020FFF703FF194A13688021C9050B4313602668164B1E40002407E00120FFF7A9FF1034A30533430C4A1360EE2CF5D90120FFF773
:400B40009FFFFF239B051E43074B1E60019A094B1A60280000F06DF902B070BD080F0340280003400C0F03400800224000F800C040420F003000104000002240FFFF3FC069
:400B8000F0B583B0040018280BD01C2809D0202807D0242805D0282803D02C2801D0302849D100F042F90190FFF706FF002803D0FFF7DCFE012600E00026214A136807216A
:400BC0008B4313601F4BE3181B78DBB21E4A13601E4A13688B4313601D4803687F22934319001C4BE3181B7813400B430360322000F012F9182C16D9114F3B680725AB433A
:400C00001A0023001C3B9B082B4013433B60322000F002F93A68AA432300183B9B082C001C4014433C60012E01D1FFF741FF019800F0FFF802E00020FFF702FF03B0F0BDB1
:400C4000080F03404DF3FF0F0C0F0340100F0340180F034034F3FF0F10B5034B1B7B584300F0DAF810BDC046C8000020024B1868800F80077047C0460C02224010B50D4B7F
:400C80001A6801218A431A601A68022082431A60094A10683024A043203C204310601068093CA043014311601A68802109060A431A6010BD00002240000F2240034B1B6876
:400CC000002B01DA012000E00020704700002240014A024B1A6070476588EDAC3800034010B50400FFF7C2FFA0421AD0144A136803218B431360134B1B689B0F01D17C2067
:400D000001E086204000FFF7A7FF00F08EF80D4A13689B009B08A40FA4071C43146000F088F8074B1B6803229343064A1268920F01D1023200E001221343014A136010BD04
:400D4000140222400C02224010B5040000F06DF8054B1C4005490B68054A134023430B600B6800F066F810BD0404040010022240FBFBFBFF10B5244B1B685B0715D5234B1E
:400D80001B685B070ED5224B5969042001401F4C22688A4322605A6982435A619B68002B00D098470420FFF7CFFF174B1B685B0518D5164B1B685B0510D5154B596980226C
:400DC000D2001140114802688A4302605969114A0A405A61DB68002B00D098478020C000FFF7B2FF084B1B685B030CD5074B1B685B0304D5064B1B69002B00D09847802028
:400E0000C002FFF7A1FF10BD10022240DC0000207C010020FFFBFFFF0230800803D001300238FCD1C046C0467047EFF3108072B6704780F310887047014B18687047C04664
:400E4000400100200E4B70B500251E000D4CE41AA410A54204D0AB00F35898470135F8E700F042F8084B00251E00084CE41AA410A54204D0AB00F35898470135F8E770BD08
:400E8000F40E0000F40E0000F40E0000FC0E0000002310B59A4203D0CC5CC4540133F9E710BD000000100000480000000000000076040000B6030000C6030000D60300003D
:400EC000E6030000F60300000604000026040000160400003604000046040000560400006604000043000000F8B5C046F8BC08BC9E467047A101000079020000F8B5C046A1
:400F0000F8BC08BC9E46704779010000200F0000B80000209000000050000000000000000000000002000000A40E0000A80E0000010000000000E02EC05D0000180000008F
:400F400000366E01040404000000000000000000000000000000000000000000000000000000000000000000E40E00000000000000000000000000000000000000000000CE
:400F800000000000000000000000000000000000000000000000000000000000000000000000000000000000E0000020000000000000000000000000000000000000000031
:400FC00000000000000000000000000000000000000000000000000000000000000000000000000000000000000000000000000000000000000000000000000000000000F1
:4010000000000000000000000000000000000000000000000000000000000000000000000000000000000000000000000000000000000000000000000000000000000000B0
:401040000000000000000000000000000000000000000000000000000000000000000000000000000000000000000000000000000000000000000000000000000000000070
:401080000000000000000000000000000000000000000000000000000000000000000000000000000000000000000000000000000000000000000000000000000000000030
:402000000040002011200000256A0000256A000010B5034B83F3088806F0ECF904F024FD0040002010B51222434B1A6006F0B2F9424807F09DFB182006F0F6F806F08CF837
:402040000121002005F0DCFF3D4C3E4B2360782007F08EFB3C4B2360002404E0F02007F087FB0134E4B2182C03D8384B1B68002BF4D00322364B1A60364B1B68002B03DAFB
:40208000354B1B68DB0718D5344A1368802109060B431360002309E0304A11680220014311601168814311600133DBB2042BF3D92A4A13685B005B0813600024284B1C6071
:4020C000284B294A1A6098214901284A1160284A1A60B8214901274A1160274A1A608022520126490A602649196026490A60264A1A602022254B1A602332254B1A60442373
:40210000244A1360244A1360244A13604222244B1A60013A234B1A6023490D2005F0C0FF0D2005F09DFF214B1C60002006F07EF91122014B1A6010BD30001040001BB700F4
:4021400014002F4008070280080702C018002F4000002F4008002F400C002F4020002F40000301400000014040FF00800C03014043FF00801003014044FF0080080301404A
:4021800042FF00800403014041FF008028000340480101402C0101401C010140180101401001014004010140C18400000C02224010B572B61A4A1B4B1A601B4A1B4B1A6078
:4021C000992212041A4B1A60BB221201194B1A608022194B1A60194A194B1A601422194B1A60194A194B1A600223194A13601949194A1160194A13601E33194A13601949BB
:40220000194A1160194A13600422194B1A60194A194B1A60FFF706FF04F0ECFB10BDC046000808000002024099EE000000030240000402400006024000010440B66DDB0015
:40224000080104400002044080E1C5000802044000030440B10D00000803044018030440000404404010CF00080404401804044000060440896103000806044010B5064CED
:402280002378002B07D1054B002B02D0044800E000BF0123237010BD7001002000000000B8B50000084B10B5002B03D00749084800E000BF07480368002B00D110BD064B9D
:4022C000002BFBD09847F9E70000000074010020B8B50000B80000200000000010B5012005F0C0FA224B01221A705B889BB2092B05D81F4A538801339BB2538004E01C4B7C
:4023000001221A7100225A80194BDB889BB2632B05D8174AD38801339BB2D38004E0144B01221A720022DA80114B5B899BB2F422FF32934205D80E4A538901339BB2538167
:4023400004E00B4B01221A7300225A81084BDB899BB2084A934205D8054AD38901339BB2D38104E0024B01221A740022DA8110BD8C010020E703000010B505F063FA354897
:4023800005F0FAF903F024FC00F082F803F074F803F0A0FC00F0E8FD00F054FD02F078FC02F052FD00F0CCFC05F0A2FC03F052FB62B6294B1B78002B06D00022264B1A7045
:4023C00003F05CFC02F00EF9234B1B79002B16D000F0AAFC03F002FC00F050FB03F010F802F026FC01F06CFE00F02EFD03F038FB02F080FC02F054FC0022174B1A71164BF9
:402400001B7A002B0CD000F055F803F071FB00F09BFC00F069FD03F0B7FC00220E4B1A720D4B1B7B002B04D003F064FB00220A4B1A73094B1B7C002BBBD003F0D1FB00F047
:40244000A5F800F0D9FC03F057FB0022024B1A74AFE7C046DD2200008C01002070B5041E12D04379032B0FD98579012D03D1C179002000F08BFC012D06D8627A0123134045
:4024800000D00323014A535570BDC046A001002010B5044B00229A700532DA70012004F061FF10BDA00100200022014BDA707047A00100207047C0460122014B9A7070475E
:4024C000A00100200022014B9A707047A0010020012805D8034B185C431E9841C0B200E000207047A001002005207047014B18797047C046A001002000B585B08378990684
:40250000C27893050B43A022D202134302781202134342781343009301236A46137103795371411D08226B46981D08F0CDFE684603F0A8FB05B000BD00B585B0124BDB786F
:40254000012B1DD183789906C27893050B43A022D202134302781202134342781343009301236A46137103795371411D08226B46981D08F0A9FE684603F084FB002000E0CF
:40258000012005B000BDC046A001002000B585B0134B9B78012B13D100236A4693700433D370FB3313700E4B1A7969464A7002220A715A794A719B798B716846FFF7BCFF64
:4025C000002308E0064AD25C002A01D0013AD2B20349CA540133012BF4D905B000BDC046A001002010B586B004000D22002102A808F073FE6A461F4B03CB03C2012C0ED0AE
:40260000002C04D0022C13D00F2C1AD01DE0072269460E20684408F057FE012316E0002000F030FE02AB020A9A71D87101230DE0012000F027FE02AB020A9A71D87101238B
:4026400004E0012302AA937100E00023012B0ED102A8447105338370F8330370064B1B7943700923C370013B0371FFF765FF06B010BDC04618B60000A001002070B503002B
:402680000279002A00D183E0012A00D080E00268920E404C07210A40E2710268920D08311140217242883F20104060721A68120AD2B2A2721D78E572FF2A3AD12279954252
:4026C0000CD1002964D15A79022A61D1013A22739A791202DB791343E38159E0FE2D57D1002855D1032953D19B79002B03D1043001F072FF4CE0012B07D104F0F9FF002852
:4027000046D0012001F068FF42E0022B05D1042001F062FFFFF7D0FE3AE0032B38D104F0E7FF002802D0012001F056FFFFF7CAFE2EE01848007982420ED1FE2D0CD1154C6E
:40274000E478012C08D15C79002C05D0092903D19879FFF747FF1BE082420BD1FE2D09D10C4CE478012C05D1032911D11800FFF775FE0DE082420BD1FD2D09D1054AD278BE
:40278000012A05D1186859689A68DB6802F08EFE70BDC046A0010020F8B500F061FB08F0CBF82B4907F00CFE07F0B2FA85B200F04DFB08F0C1F8274907F0C2FA011C07F0FD
:4027C000BFFA07F0A5FA86B2234C0523A370FA332370224B1B7963700623E3700233237104F07EFF870104F067FB400107437FB204F06EFF000107437FB204F055FFC000DF
:4028000007437FB204F074FF800007437FB204F083FF400007437FB204F03EFF0743677100F00AFBA07103F069F9E071AB092372A800330B03251D40054365723309A37267
:402840003601E672002323732000FFF775FEF8BD0000404000401C4558040020A0010020F8B5002000F0F6FCFC21890507F0A8FD07F04EFAC7B2002000F0F4FCFC2189051B
:4028800007F09EFD07F044FAC6B2002000F0DAFC184907F095FD07F03BFA85B2002000F0E9FC144907F08CFD07F032FA80B2124C0523A370FA332370104B1B79637004233D
:4028C000E370043323716771A671AB08E371AD01EBB202093F2515401D432572000160720025A57204F0F4FEE07225732000FFF723FEF8BD0000204158040020A001002055
:40290000F8B5012000F0A6FCFC21890507F058FD07F0FEF9C7B2012000F0A4FCFC21890507F04EFD07F0F4F9C6B2012000F08AFC184907F045FD07F0EBF985B2012000F08B
:4029400099FC144907F03CFD07F0E2F980B2124C0523A370FF222270104A12796270E370033323716771A671AB08E371AD01EBB202093F2515401D4325720001607200251D
:40298000A57204F099FAE07225732000FFF7D4FDF8BDC0460000204158040020A001002010B503F0ABF800281FD0104B9B78002B1BD10E4A137C0133DBB21374012B01D12B
:4029C000FFF7EAFE094B1B7C032B02D1FFF748FF0BE0062B02D1FFF793FF06E0072B04D00A2B02D90022014B1A7410BDA001002000B585B000236A469370D370FF3313701B
:402A0000013B5370FC3B1371054B5B8A1A0A69464A718B716846FFF76FFD05B000BDC046A001002000B585B000236A469370D370FF331370507002231371054B5B8A1A0A5A
:402A400069464A718B716846FFF756FD05B000BDA001002010B508F023FDC3175B045B0C1818C01380B210BD10B508F019FD024906F0FCFFC0B210BD876F440110B582B0C7
:402A800000230193A54BDA78052A00D93FE19300A34AD3589F4601AC200003F095FF6388002B02D1022201AB5A8001AB18885B88584308F0C7FCFFF7CDFF984B588200205A
:402AC00003F01CF9012804D103F018F9934B187102E00022914B1A71904B00229A821879FFF7A0FF012808D1FFF7BEFF8B4BD8820422DA7000221A730CE1884B0322DA7088
:402B000000221A7306E1854A938A01339BB29382012B03D11079FFF785FF0CE0022B04D17E4B1879FFF77EFF05E0032B03D17B4B1879FFF777FF794B9B8A182B1CD9774C31
:402B40000023A3820121002003F0DEF82179012003F0DAF8022003F0D1F80130C1B26171022003F0D1F803F02FF80123E37000232373012002F0C8FF684B1B7B012B00D0E7
:402B8000C8E0664C0023A38204F00CFCE289638A9A4204D2614A1379013313710BE09A4209D1604B18680004000C08F04BFCFFF751FF5A4B5882594B1879FA280CD91C0046
:402BC000FE232371FFF714FF02F0FEFF0123E370012002F099FF0DE0FFF724FF012806D1FFF742FF4D4BD8820422DA7002E003224A4BDA70494C00232373032003F07EF8A7
:402C00000130C1B2A171022003F07EF882E0434B9C8A0134A4B29C82D88A0A2106F09CFE80B2844276D33D4B1879FFF7FBFE012808D1FFF719FF394BD8820422DA700022AE
:402C40001A7304E0354B0322DA7000221A730022324B9A825EE0314B1B7B012B5AD12F4B00229A82DA895B8A9A4230D22B4C23790133237104F096FB2079FA280CD9274C92
:402C8000FE232371FFF7B4FE02F09EFF0123E370012002F039FF0DE0FFF7C4FE012806D1FFF7E2FE1D4BD8820422DA7002E003221A4BDA70194C00232373032003F01EF8B9
:402CC0000130C1B2A171022003F01EF822E09A420AD1144B18680004000C08F0B3FBFFF7B9FE0E4B588215E00C4B1879FFF79AFE012808D1FFF7B8FE084BD8820422DA708F
:402D000000221A7306E00022044B1A7302E00022024BDA70FFF744FE02B010BDA001002000B60000F40300207047C046002802D1024B185C00E000207047C046BC0100200D
:402D400010B502F0FBFF10BD7047C046884201DA002000E06420704710B50B4B5B78002B01D1002400E064240120FFF7B1FB012807D10020FFF7DAFF002801D0642400E0AD
:402D80000024200010BDC046BC010020002808D1002903D06422034B1A5402E00022014B1A547047BC010020002810D1114B00229A70DB78042B02D801330E4AD3700D4B7A
:402DC000DB78042B12D900220A4B1A710EE0094B0022DA709B78012B02D80133054A9370044B9B78012B01D9024B1871014B18797047C046BC01002010B5002000F042FA51
:402E00000400012000F03EFA231C844200D2031C18B2064A0649FFF799FF064B5870FFF79BFFFFF7C1FF02F083FF10BD6419000094110000BC010020014B58797047C046DF
:402E4000BC0100207047C0467047C04610B5034B186806F05DFF80B210BDC046C401002010B5034B586806F053FF80B210BDC046C401002010B502F08FFF002812D102F0E5
:402E80003DFE02280ED1174B1B89092B03D80133144A13810DE0042002F036FE0022114B1A8106E002F02AFE022802D100220D4B1A8102F023FE052812D1002003F0D2FC2D
:402EC000084A138901339BB21381632B03D802F063FF002804D00022024B1A8103F0BEFC10BDC046C401002070B5FFF7C3FF002000F0C0F9041C002000F0B4F9011C201CCB
:402F000007F05EFA041C012000F0B4F9051C012000F0A8F9011C281C07F052FA011C201C06F00EFF0F4C2060002000F08BF9051C002000F08FF9011C281C07F041FA051CB5
:402F4000012000F07FF9061C012000F083F9011C301C07F035FA011C281C06F0F1FE606070BDC046C4010020F0B5474680B482B0194B1B78002B27D1184B01221A705A70E0
:402F8000174B1C78174E184D0194184F0097330000221749280003F067FA8046280024300194009733000022124903F05DFA032344469C43E4B2002C06D19843C0B2002888
:402FC00002D10122044B1A700B4B00221A701A7102B004BC9046F0BDD00100201C070020A4BD0000AD63000068060020C0000020B9450000C945000020070020054B1B1897
:403000001B798B4204D0034B18180171002303727047C046D0010020012802D80022014B1A5470472807002006498300CB180022DA605A61DA615A624000081800238385F2
:403040007047C046D0010020F0B583B007000C000192C3001B189A00244D5519244B1E5C280003F011FA830704D103069B0E03D1013302E0002300E00023002B15D0230052
:40308000019A0421280003F0DDFA830704D103069B0E03D1013302E0002300E00023002B03D03100280003F0F5F90006800E114D28702100042003F03FFB7B000E4AD3184B
:4030C00018860A48FB00DA1991004118496992008218928B380003F051FC2B78002B01D1002000E0012003B0F0BDC046680600201C07002018070020D001002010B50400A4
:4031000003F0E6FB200003F0BDFB10BD10B50400032918D10C4B1B5C092B14D0FFF7EEFFA3000A4A9B5C002B05D16300084AD31864229A8604E06300054AD3180A229A867A
:403140000922014B1A5510BD2807002020070020D001002070B50C0015001E000B78072B1BD04B88052B05D900234B8001330B70FFF7C4FF002D09D16378002B03D00023D7
:403180006380267009E00123637006E0032D01D10023637063880133638070BD10B5040003F0B2FB00280BD1200003F0A9FB002811D0200003F08CFB2000FFF735FF0AE0AE
:4031C000200003F09DFB002805D1200003F05AFB2000FFF721FF10BD10B504004300164AD3181A8F154B9A4209D98300144A9B5C002B04D184000122114BE2541AE0200072
:4032000003F082FB00280BD0A3000D4A9B5C002B06D16400084B1C19238F0133238709E0A300074A9B5C002B04D16400024B1C190023238710BDC046D0010020B70B00009F
:40324000200700208000024B181840697047C046D00100208000024B1818C0687047C046D00100208000024B1818C0697047C046D00100208000024B1818406A7047C046A8
:40328000D00100204000024B1818808D7047C046D0010020F0B589B006000D001F00002A33D1444B1C5C080003F0EEF8830704D103069B0E03D1013302E0002300E000235E
:4032C000002B16D00F23902212020321280003F0B9F9830704D103069B0E03D1013302E0002300E00023002B03D02100280003F0D1F804000F21032003F01EFA38806969C4
:40330000AA8B300003F03AFB4AE01E222A49684607F0DAFF294B9B191B79002B0DD0284B6A46D3800A3B1381264A69464A818B81CB810A82AF239B004B821E4B9C5D280000
:4033400003F0A2F8830704D103069B0E03D1013302E0002300E00023002B16D06B460F2290210902280003F0A1F9830704D103069B0E03D1013302E0002300E00023002BEF
:4033800003D02100280003F085F804000F21102003F0D2F938806969AA8B300003F0EEFA032320009843C0B2002800D0032009B0F0BDC0461C070020FCB60000D001002095
:4033C000EE020000DA020000F0B583B004000E001F00002A32D13A4B1D5C080003F054F8830704D103069B0E03D1013302E0002300E00023002B15D00423324A032130005E
:4034000003F020F9830704D103069B0E03D1013302E0002300E00023002B03D02900300003F038F805000421032003F085F938807169B28B200003F0A1FA37E008222249FE
:403440002031684607F040FF1D4B1D5D300003F01BF8830704D103069B0E03D1013302E0002300E00023002B15D06B4604221549300003F01BF9830704D103069B0E03D17D
:40348000013302E0002300E00023002B03D02900300002F0FFFF05000421102003F04CF938807169B28B200003F068FA032328009843C0B2002800D0032003B0F0BDC04697
:4034C0001C07002017900000FCB60000F0B583B005000F001E00002A33D13B4B1C5C080002F0D2FF830704D103069B0E03D1013302E0002300E00023002B15D00123334A5D
:403500000321380003F09EF8830704D103069B0E03D1013302E0002300E00023002B03D02100380002F0B6FF04000121032003F003F930807969BA8B280003F01FFA002024
:4035400039E0012A36D16B46DA801F4B1C5C080002F09AFF830704D103069B0E03D1013302E0002300E00023002B16D06B46063301221649380003F099F8830704D10306BE
:403580009B0E03D1013302E0002300E00023002B03D02100380002F07DFF04000121102003F0CAF830807969BA8B280003F0E6F9002000E0032003239C43E3B2002B00D0F9
:4035C000032003B0F0BDC0461C07002067900000F0B585B004000E001F00002A32D13A4B1D5C080002F050FF830704D103069B0E03D1013302E0002300E00023002B15D058
:403600000523324A0321300003F01CF8830704D103069B0E03D1013302E0002300E00023002B03D02900300002F034FF05000521032003F081F838807169B28B200003F052
:403640009DF937E00A222249283101A807F03CFE1D4B1D5D300002F017FF830704D103069B0E03D1013302E0002300E00023002B15D001AB05221549300003F017F883079B
:4036800004D103069B0E03D1013302E0002300E00023002B03D02900300002F0FBFE05000521102003F048F838807169B28B200003F064F9032328009843C0B2002800D0D1
:4036C000032005B0F0BDC0461C0700206A900000FCB60000F0B583B004000E001F00002A32D1394B1D5C080002F0CEFE830704D103069B0E03D1013302E0002300E0002336
:40370000002B15D00123314A0321300002F09AFF830704D103069B0E03D1013302E0002300E00023002B03D02900300002F0B2FE05000121032002F0FFFF38807169B28BD8
:40374000200003F01BF935E000226B46DA801E4B1D5C080002F098FE830704D103069B0E03D1013302E0002300E00023002B16D06B46063301221549300002F097FF83078F
:4037800004D103069B0E03D1013302E0002300E00023002B03D02900300002F07BFE05000121102002F0C8FF38807169B28B200003F0E4F8032328009843C0B2002800D04F
:4037C000032003B0F0BDC0461C07002070900000F0B587B00400039116001D00012857D801220F2302A98C4663441A7000220E2363441A7003F096F8A8420DD232E0F11911
:40380000200003F09DF8002804D00E2302AA944663441870013700E00027AF42EFDB0E2302AA944663441B78002B33D1039842690392828B00953300039902F08FFE049085
:40384000049B1B069B0E06D003220F2302A98C4663441A7015E000220F2302A98C4663441A700EE0002806D001220F2302A98C4663441A7005E003220F2302A98C466344BE
:403880001A700F2302AA944663441878C0B202E0032000E0032007B0F0BDC04610B504008200DC4BD35C0C2B00D9D4E19B00DA4AD3589F46D74B8200991800204880022116
:4038C000D154A300D34AD3185B78002B0ED1E3001B199900D14BC9186200D14B30339B1800222000FFF7D6FC02000FE0E3001B199900CA4BC9182202CA4BD2186300C848A3
:40390000C3181B8E2000FFF763FF0200A100C14BC91803232000FFF71DFC9CE18300BD4AD3185B78002B0DD1C3001B189900BB4BC9184200BA4B30339B180022FFF744FDAC
:4039400002000FE0C3001B189900B44BC9180202B44BD2184300B248C3181B8E2000FFF737FF0200A100AB4BC91804232000FFF7F1FB70E18300A74AD3185B78002B0DD1BE
:40398000C3001B189900A54BC9184200A44B30339B180022FFF79AFD02000FE0C3001B1899009E4BC91802029E4BD21843009C48C3181B8E2000FFF70BFF0200A100954B42
:4039C000C91805232000FFF7C5FB44E18300914AD3185B78002B0DD1C3001B1899008F4BC91842008E4B30339B180022FFF7F0FD02000FE0C3001B189900884BC9180202E6
:403A0000884BD21843008648C3181B8E2000FFF7DFFE0200A1007F4BC91806232000FFF799FB18E183007B4AD3185B78002B0DD1C3001B189900794BC9184200784B30337C
:403A40009B180022FFF746FE02000FE0C3001B189900724BC9180202724BD21843007048C3181B8E2000FFF7B3FE0200A100694BC9180D232000FFF76DFBECE0654B840042
:403A80000822E2541C1900236380E4E08300614AD3185B78002B0DD1C3001B1899005F4BC91842005E4B30339B180122FFF7F2FB02000FE0C3001B189900584BC918020289
:403AC000584BD21843005648C3181B8E2000FFF77FFE0200A1004F4BC91809232000FFF739FBB8E083004B4AD3185B78002B0DD1C3001B189900494BC9184200484B3033FA
:403B00009B180122FFF760FC02000FE0C3001B189900424BC9180202424BD21843004048C3181B8E2000FFF753FE0200A100394BC9180A232000FFF70DFB8CE08300354A7D
:403B4000D3185B78002B0DD1C3001B189900334BC9184200324B30339B180122FFF7B6FC02000FE0C3001B1899002C4BC91802022C4BD21843002A48C3181B8E2000FFF764
:403B800027FE0200A100234BC9180B232000FFF7E1FAA3001F4AD3185B78002B0ED1E3001B1999001D4BC91862001D4B30339B1801222000FFF70CFD02000FE0E3001B19D8
:403BC0009900164BC9182202164BD21863001448C3181B8E2000FFF7FBFD0200A1000D4BC9180C232000FFF7B5FAA300094AD3185B78002B18D1E3001B199900074BC918AF
:403C00006200074B30339B1801222000FFF7E0FC020019E02007002020B6000068060020D001002068040020E3001B1999000A4BC9182202094BD21863000948C3181B8E02
:403C40002000FFF7C5FD0200A100064BC9180D232000FFF77FFA10BD6806002068040020D00100202007002070B50400012800D91CE202F049FE002800D117E2200002F053
:403C80003FFE002800D111E26300D54AD3189B8F312B00D801E2A300D24A9B5C0D2B12D0002B10D0200002F02BFE002800D1FDE1CB4B1B1940229B5C012B00D0F6E12000AA
:403CC000FFF7ECFDF2E1C84B1B5D082B00D9D0E19B00C64AD3589F46C14D2A1900214023D154C422920102312000FFF7ADF9BE4A135D0133135564002C190A23A386D5E1E4
:403D00002202BB4BD2186300B549CB181B8EE00000198500B74969182000FFF759FD002808D1AF4A111901304023C8546300D31800229A87AA4B1B1940229B5C012B09D12A
:403D4000A94A135D013313556400A54B1C190A23A386ABE16300A24AD218938E013B9BB29386002B00D0A1E103212000FFF7CEF9A4009B4B1C190023E360636196E1984D1A
:403D80002A1900214023D1549B4A02312000FFF75BF9954A135D0133135564002C190A23A38683E12202924BD21863008C49CB181B8EE000001985008E4969182000FFF7AC
:403DC00007FD002808D1864A111901304023C8546300D31800229A87814B1B1940229B5C012B09D1804A135D0133135564007C4B1C190A23A38659E16300794AD218938E2D
:403E0000013B9BB29386002B00D04FE103212000FFF77CF9724B1B1940229B5C002B00D044E1A4006E4B1C190023E36163623DE16B4D2A1900214023D154704A0131200010
:403E4000FFF702F9684A135D0133135564002C190A23A3862AE12202654BD21863006049CB181B8EE00000198500624969182000FFF7AEFC002808D1594A11190130402367
:403E8000C8546300D31800229A87554B1B1940229B5C012B09D1544A135D0133135564004F4B1C190A23A38600E163004C4AD218938E013B9BB29386002B00D0F6E0032173
:403EC0002000FFF723F9464B1B1940229B5C002B00D0EBE06400424B1C190023A385E5E03F4B1B190021402299541B7A002B15D162003B4B30339B18243161433D4A891883
:403F000001222000FFF7C6F9002803D10722364B1A55CBE00022344B1A55C7E06300304AD31844229A5A364B9A421BD962002C4B30339B18242161432E4A8918002220006C
:403F4000FFF7A8F9002803D10822274B1A5502E00022254B1A556400214B1C1900224423E252A3E00022204B1A559FE02202204BD21863001A49CB181B8EE00000198500B7
:403F80001C4969182000FFF723FC002808D1144A111901304023C8546300D31800229A870F4B1B1940229B5C012B0BD10C4B1A190121117200210C4A115564001C190A235B
:403FC000A38673E06300064AD218938E013B9BB29386002B6AD103212000FFF797F865E0D0010020200700202807002054B6000068040020680600201A3300001131000037
:40400000B80B000022022A4BD21863002949CB181B8EE00000198500274969182000FFF7D7FB002808D1234A111901304023C8546300D31800229A871E4B1B1940229B5CB3
:40404000012B08D100221D4B1A556400194B1C190A23A3862AE06300164AD218938E013B9BB29386002B21D103212000FFF74EF81CE063000F4AD3189B8E002B04D06400A9
:404080001419013BA38611E02000FEF7C5FF6400084B1C190023A38708E044216400054A1419625A013262520133A38770BDC04668040020D00100206806002028070020B0
:4040C00070B5104B1B78002B1BD001F017FD022817D102F0CBFB451EA841C5B200240EE02000FFF779F82000FFF758F829002000FEF784FF2000FFF7B7FD0134E4B2012C83
:40410000EED970BDD001002010B5012800D99AE0E023DB01CB189BB20E2B00D995E01A244443E3185B005A4C1A53E023DB019C4661448BB20E2B00D989E09900554B5B588B
:404140009F46002A00D084E000209FE0C82A00D081E000209AE0002A7FD1002096E04E4B18180379002B01D04C4B00E04C4B934275D100208AE0484B18180379002B02D060
:40418000B9239B0000E0474B93426AD100207DE0414B18180379002B01D0434B01E09B23DB0093425FD1002070E03B4B18180379002B02D0B9239B0000E03A4B934254D1D3
:4041C000002063E0344B18180379002B02D0B9239B0000E0334B934249D1002056E02E4B18180379002B01D02F4B01E09B23DB0093423ED1002049E0274B18180379002B8F
:4042000002D0AF239B0000E0284B934233D100203CE0274B9A4230D1002037E0244B9A422DD1002032E0C8239B009A4229D100202CE01A4B9A4226D1002027E0174B9A42B1
:4042400023D1002022E0032020E003201EE003201CE002201AE0022018E0022016E0022014E0022012E0022010E002200EE002200CE002200AE0022008E0022006E00220DD
:4042800004E0022002E0022000E0022010BDC046B006002078B60000D0010020EE02000014050000EC040000DA020000BA0400005203000010B501282FD81F4BCB189BB2B3
:4042C000032B2CD81A246043C3180C335B001B48C318DA801A4B994210D003D8194B994207D01EE0184B99420DD0184B99420FD017E0174B9A4216D100201BE0154B9A42E4
:4043000013D1002016E0124B9A4210D1002011E0114B9A420DD100200CE003200AE0032008E0032006E0022004E0022002E0022000E0022010BDC046E96F0000B0060020E6
:404340001890000017900000199000001A9000003421000060F000004C1D000001280BD8084B99420AD134235843074B1818C284012A05D1002004E0032002E0032000E0B1
:404380000220704767900000B006002010B5012829D81D4BCB189BB2042B26D81A246043C31814335B0019481A52174B9C4661448BB2042B1BD89900154B5B589F46012A74
:4043C00017D100201EE0782A15D100201AE0782A13D1002016E01E2A11D1002012E0502A0FD100200EE003200CE003200AE0032008E0022006E0022004E0022002E002207A
:4044000000E0022010BDC046966F0000B0060020B4B6000001280BD8084B99420AD134235843074B18184286002A05D1002004E0032002E0032000E002207047709000002C
:40444000B006002070B5040015008200514BD35C0D2B2AD0002B28D00C2B00D992E09B004D4AD3589F466988AA88FFF74DFE14E06988AA88FFF71EFF0FE06988AA88FFF72C
:404480006DFF0AE06988AA88FFF780FF05E06988AA88FFF7BFFF00E00020022874D1A40007223C4BE254002073E03C4B1B5D082B12D16988AA882000FFF726FE022865D114
:4044C0006988374B48229952A988023299521C190023237200205CE06B88324A93424AD006D8113A93420AD02F4A934216D04FE02E4A934221D02E4A93422DD048E0A888E2
:4045000006F0B6FD00222B4B06F09CFA06F0F2FDA400234B1C19E06000203AE0A88806F0A7FD0022234B06F08DFA06F0E3FDA4001B4B1C19606100202BE0A88806F098FD75
:4045400000221C4B06F07EFA06F0D4FDA400144B1C19E06100201CE0A88806F089FD0022144B06F06FFA06F0C5FDA4000C4B1C19606200200DE0AB886400094A1419A38566
:40458000002006E0032004E0002002E0002000E0032070BD20070020C8B6000028070020D001002011310000013100001A3300001B3300000000594010B50A0001000020FF
:4045C000FFF740FF10BDC04610B50A0001000120FFF738FF10BDC046014B18707047C0462002002010B503F083F800280BD02C4B5B78002B07D101F081FA052803D00122DD
:40460000274B5A700EE001F0C7FB00280AD003F06FF8002806D1224B5B78032B02D104221F4B5A701E4B5A78042A34D893001D4AD3589F4601F000FD02282FD132221A4B57
:404640001A8001F05BFA012806D80020FFF7C4FF0222134B5A7021E00120FFF7BDFF03220F4B5A701AE00E4A538801339BB25380FA22D200934211D90120FFF7ADFF084BCD
:4046800000225A8003325A7008E001F0C3FB0022034B5A7002E00022014B5A7010BDC0462002002030B70000BC000020014B58707047C0462002002010B50C0006F01AF94F
:4046C000C317C018584006F037F905F021FBC0B20A2105F0C7F9C9B23031217010BDC04670B50E0005F014FBC4B26421200005F0B9F9CDB20A21200005F0B4F9CCB2281B81
:404700000A2105F0B3F9C0B2303030703034747070BDC046F8B50E0005F0FAFA84B2FA218900200005F09EF98FB26421200005F099F9CDB20A21200005F094F9CCB2281B1C
:404740000A2105F093F9C5B2FF2108400A235B4258433818001B9B3905F088F930303070303575703034B470F8BDC046F8B54F464646C0B40F0006F0BDF8C317C0185840C1
:4047800006F0DAF8041C05F0C3FA214905F06AF98946201C05F0BCFA84B2FA218900200005F060F98DB26421200005F05BF9CEB20A21200005F056F9CCB2301B0A2105F07A
:4047C00055F9C3B29846FF2630400A3EFF3E4643AD19281B642105F049F905000004000C64235B42584386194E44301BFA21890005F0B2F83030387030357D7043463033D7
:40480000BB703034FC700CBC90469946F8BDC0461027000070B5184C231D184A23CA23C3190013680B6021001131FE25AD05281CFFF742FF23001433114A43CA43C319006D
:4048400013680B600B39281CFFF736FF210017310025281CFFF730FF2E23237621001931281CFFF729FF4223E377210020310548FFF77CFF70BDC046200200205CB700007A
:4048800070B700000000604170B5CC4B1A78052A00D9B3E19300CA4AD3589F46FFF7BAFFACE1C64B1A1DC74931C931C210000A6802601433C44A13CA13C3190013680B60A3
:4048C000002002F021F8012862D10020FEF7C2FC061C0020FEF7B6FC051C002105F0BEF900280BD1FEF7C6FC041C0020FEF7BAFC011C201C05F064FD041C00E00024301CC2
:4049000005F006FA80B2092807D8AC4E093606F05BF83100FFF7D0FE05E006F055F8A7490831FFF7DDFE281C05F0F2F980B2092807D8A24D0D3506F047F82900FFF7BCFE02
:4049400006E09E4D0C3506F03FF82900FFF7C8FE201C05F0DDF980B2092807D8974C123406F032F82100FFF7A7FE19E0632807D8924C113406F028F82100FFF7B1FE0FE074
:404980008E4C103406F020F82100FFF7C3FE07E08A4B04338D4A13CA13C3190013680B60012001F0B1FF012863D1FEF753FC061C0120FEF747FC051C002105F04FF90028F2
:4049C0000CD10130FEF756FC041C0120FEF74AFC011C201C05F0F4FC041C00E00024301C05F096F980B2092807D8744E193605F0EBFF3100FFF760FE06E0704E183605F016
:404A0000E3FF3100FFF76CFE281C05F081F980B2092807D8694D1D3505F0D6FF2900FFF74BFE06E0654D1C3505F0CEFF2900FFF757FE201C05F06CF980B2092807D85F4C32
:404A4000223405F0C1FF2100FFF736FED6E0632807D85A4C213405F0B7FF2100FFF740FECCE0564C203405F0AFFF2100FFF752FEC4E0524B1433564A13CA13C319001368AA
:404A80000B60BBE04D4A111D524B180070C870C10C0001682160143232CB32C20368136000F058F9002808D1444B04334A4A13CA13C3190013680B60A0E000F04BF90128D7
:404AC00021D13E4C231D454A23CA23C3190013680B6023001433424A23CA23C3190013680B6000F03DF92500113505F06DFF2900FFF7E2FD00F03AF91F3405F065FF2100F1
:404B0000FFF708FE7AE000F025F9022808D12B4B0433344A13CA13C3190013680B606DE000F018F9032808D1244B04332E4A13CA13C3190013680B6060E000F00BF90428AF
:404B40005CD11E4B0433294A13CA13C3190013680B6053E0194C251D254B2A0043CB43C21B68136023001433224A43CA43C3190013680B60FDF7B8FC043505F025FF2900BB
:404B8000FFF7AEFDFDF7B2FC25000F3505F01CFF2900FFF7BFFD21001B31FE208005FFF79FFD21001E310025281CFFF799FD21002131281CFFF794FD20E0C04620020020D1
:404BC00044B7000084B7000098B70000ACB70000C0B70000D4B70000E8B70000FCB7000010B8000024B8000038B800004CB8000060B8000074B80000FFF70CFE0B4C221D07
:404C00001021022001F0D4F92422A35C591CA1549B0709D105490431102001F0B3FA012802D10330FFF742FD70BDC0462002002010B5094B5B78023BDBB2012B0BD8074AF8
:404C4000138801339BB21380322B04D90022034B1A80FFF719FE10BD20020020BC00002010B5002804D103F0CDFB03F0C3FB0BE0012804D1FA20800003F0C4FB04E00228D8
:404C800002D1024803F0BEFB002010BD8813000010B503F0A9FB0220FFF7E2FF10BDC04610B503F0BBFB002003F0ACFB10BDC04610B50E4B00221A705A700D4902200870FC
:404CC00048705A80002119715971DA809A609A81DA811A8202F00CFD002802D00120FFF77BFC0022014B5A8210BDC04648020020BE00002010B5114B5B78002B09D00F4A0E
:404D0000538A01339BB253820D4A934201D9FFF7CFFF0A4B5B79012B0ED1084AD38801339BB2D380C72B07D913000022DA805A71FFF7BEFF03F0ECF910BDC04648020020CD
:404D4000E703000000207047002070477047C0467047C046014B18787047C04648020020014B58787047C046BE000020014B988A7047C04648020020F0B5474680B4040068
:404D80000E0015001F00012820D80100032003F0FDFF013083B29846FF204000C01A80B20221091BC9B204F061FE83B243449BB2013B9BB2A84501D8AB4209D2002E09D191
:404DC000074B1C1BA74207D0002006E00D2004E00D2002E0002000E00D2004BC9046F0BDFF01000070B50500012812D80EE0611B4B425941C9B223061B1B1802054B9C46E0
:404E0000604403F08BFF0134E4B200E00024012CEDD970BDD0FF010010B50021052003F0B5FFC4B20121052003F0B0FFC0B2002C02D0002804D106E0002803D0012002E030
:404E4000032000E0022010BD10B5FFF7E5FF054B1870002802D101225A7002E00022014B5A7010BDBE00002070B5B24CA5440400FDF73CFB40AB1880FD225A80FC3A1A71A4
:404E8000E379392B00D1ABE03B2B55D0382B00D04BE140AC8033E371A93B23729A256D000D3B63536A46A44B03CB03C2082269460A20FF30684406F007FA0A236353FFF776
:404EC000ABFF9E4B1870002802D101225A7002E000229A4B5A7040ADE873984B5B782B749A267600AC5B0234A4B2AC53382294491220FF30684406F0E7F9382291494A20DF
:404F0000FF30684406F0E0F97034AC5300262E728D4C0125657066820121022003F036FFA0602570A6820220FFF756FB8749694440A800F0D5FCF8E040ABBB22DA71AC3A19
:404F40001A7202212632FF3299527F4B5B78012B3DD17A4B5B78022B39D0210008317C48C01A02F063FF002803D00A2240AB1A7202E0002240AB1A7240AB1B7A002B1BD16D
:404F80006E4B587803F0A2FF00280ED18022714B1A606A4B5878FFF725FF6B4B01225A710022DA8003321A7009E0022240AB1A720132654B1A7002E00222634B1A705F4B9E
:404FC00002221A705A7000225F4B5A7002E00C2240AB1A725D49694440A800F081FCA4E040ABB922DA7102217B329952564B00225A825B78012B00D08BE03433FF33E35A75
:40500000042B00D885E04D4A5278022A00D180E00422FF32934278D1237A1A02637A1343494A53804A4A934203D8002240AB1A7202E00A2240AB1A7240AB1B7A002B09D099
:4050400000F0E4F900F00CFA4049694440A800F047FC6AE0394B1B78002B06D10121032003F094FE384B188205E00021032003F08DFE354B188234494A888A810B8A0133EE
:405080009BB2CB819A4250D38B68002B15D02B4B1878012811D813000021FFF76DFE40AB18720D2809D100F0B1F900F0D9F92749694440A800F014FC37E0234B1B79002B7F
:4050C0000FD1802252000021684606F006F91B4B58781F4B181A694602F0A8FE01221A4B1A7121000A31184B988902F09FFE002803D00A2240AB1A720EE0002240AB1A7258
:40510000114A938A0133938206E0032240AB1A7202E00C2240AB1A7200F078F900F0A0F90A49694440A800F0DBFB8E239B009D4470BDC046C8FDFFFF88B80000BE000020CC
:40514000C0FF0100C0FE01004802002037020000FF010000B00000200A4A9F235B00584300238354101802003432FF3213700332137004321370023A13803D30FF30038094
:405180007047C046F40A0020F0B585B0002400E12500A1235B006343804A9B5C012B00D0F5E04233FF336343D3183433FF331B78002B1BD14333FF336343D3184133FF335F
:4051C0001A88013292B21A80642A00D8DFE0734AA1235B005D4353194133FF33002119800023AB542000FFF7B7FFD0E0012B00D0C4E04233FF336343684AD3181A004132DA
:40520000FF3216880136B6B216803F33FF3318880A2104F0A1FB80B2864200D8B7E0A1235B0063435D4AD3181A004132FF32002111803D33FF331B78002B1BD0A1235B00D1
:405240006343564AD31819003E31FF310A780132D2B20A703D33FF331B789A420AD9A1235B005D434D4B5D1900230B703435FF352B7091E0A1235B006B43484AD3189B792C
:40528000002B09D14333FF336B43D3189B88009300236A4613710CE0A1235B006B433F4AD3189A8812025B881343009301236A46137108236A4653713B33FF336B43374AA6
:4052C000D3183733FF331B8820336A469371012119E0A1235B006B43304AD3181E003B36FF3632889818C779080068448771013292B232803933FF331B889A4201D999223B
:4053000082710131C9B20729E3D9A1235B006B43224AD3181A003B32FF32128801323933FF331B889A4205DDA1235B006B4300211A4A9954684600F0A5FCA1235B006B43EE
:40534000164AD3183733FF331A88013292B21A800F2A08D9A1235B006B43104AD3183733FF3300221A80A1235B005D430B4BEB5C002B0CD12000FFF7EFFE08E0A1235B00A1
:405380005D430022054BEA542000FFF7E5FE0134E4B2022C00D8FBE605B0F0BD2C07002010B5002427E022009F235B00634313495B5C012B1DD13E33FF336343CB183433A8
:4053C000FF331B78012B14D13E33FF336343CB183D33FF331988013189B21980642908D99F235B005A430021044BD1542000FFF7B3FE0134E4B2022CD5D910BDF40A00204C
:4054000010B5FFF7CDFFFFF7BFFE10BD10B5002404E02000FFF7A0FE0134E4B2022CF8D910BDC046A1235B0058430C4B181802003D32FF320023137001003F31FF310022FB
:405440000B8001390A7003310B800A390B8004310B803630FF3002707047C0462C07002010B5002404E02000FFF7DCFF0134E4B2022CF8D910BDC04610B5FFF7C7FFFFF7B7
:40548000EFFF10BD002008E09F235B004343064A9B5C002B03D00130C0B20228F4D9022800D9FF207047C046F40A0020F0B557464E464546E0B48CB0029003910492059325
:4054C000CCB2002C05D0060AFF252E40B246054002E0C84B9A46C84D02AB9E793209172302A98C4663441A701B78DBB2012B00D1CFE0002B7BD0022B00D148E1032B1BD0FB
:40550000D0E11900A12252005A43BC48125C012A0FD14232FF325A4382183432FF321278002A06D14332FF32514341188A88954207D00133DBB200E00023022BE1D9002056
:4055400000E01800022B00D9ACE101000F243440A12252004243A94DAA183532FF321470002C22D102AA157AA44CA12252005043201801003F31FF310D8002A9CD79010040
:405580003D31FF310D7005003635FF3500212970083529704130FF3001805343E3183433FF33423AFF3A1A707CE1012C16D1A1235B004343914AD3183633FF331A780132D6
:4055C000D2B21A70042A00D86CE1A1235B00594300228A4BCA54FFF7BFFD63E1A1235B0059430022854BCA54FFF7B6FD5AE1FFF749FF8046FF2800D154E101000F22324000
:405600009F235B0043437E48C3183533FF331A809C235B007B48C252002015E0461C330002AA944663449F799F235B004B43744AD3181A18D771734A1018C7723933FF3388
:405640001A8801321A80F0B282B29F235B004B436B4EF3183533FF331B889A42DED39F235B0041464B4302219955ADB2F3185D8052466946CA80CE889E809C716148858062
:40568000C68004720430FFF7EFFB4046FFF764FD08E1FFF7F7FE8046FF2800D102E1070002ABDB793102F02212010A40D2189F235B0043435249CB183533FF331A80962326
:4056C0005B009A4206D91233434300214C4A9954FFF742FD002212E0931C02A98C46634498799F235B007B434549CB189918C8713933FF331988013119800132D2B2052AD2
:40570000EAD9002C05D153460893002208AB1A7106E02B02524613430893012208AB1A7108A808234371283383710023C3710372993343728372C3720373437300F0A2FA06
:405740002F489F22520043465A4383185D805146998002A9097999711C003434FF340121217011543733FF3319709BE09F2252005A432349525C012A06D13E32FF325A43A1
:405780008A185288954207D00133DBB200E00023022BEBD9002700E01F00022B00D981E00F233340BC469F2252007A4314498A183732FF32127893426BD19F235B007B43F7
:4057C000CB181A003D32FF32002111803733FF331A780132D2B21A700F2A08D99F235B007B43074AD3183733FF3300221A7000214CE0C046160300001E0300002C07002092
:40580000F40A0020600200209F235B0062465343274AD3181E003936FF36328890464A1C02A881464A449279914642469A184846D0713288013292B232803533FF331B884F
:405840009A4221D31A499F235B00604658433D3BFF3B4354174B9D805246DA801C7209180A003532FF3212889C2040001A5207311C1D0B33180005F027FD2000FFF7F4FAA6
:405880003800FFF769FC0DE00131C9B20629BBD908E09F235B007B430021054A99543800FFF75AFC0CB01CBC90469946A246F0BDF40A002060020020002008E0A1235B00AF
:4058C0004343064A9B5C002B03D00130C0B20228F4D9022800D9FF207047C0462C070020F0B585B004000F009A235B00C65A072E2ED80379002B05D14388009300236A4603
:40590000137107E043881B0202881343009301236A46137108236A4653712D33FF33E15A917101230EE08B4206D85A1EA218D0791A006A44907103E01A006A449920907175
:4059400001339BB2072BEED9684600F09BF97CE0FFF7B2FF0500FF2802D102233B7074E096235B009E4203D92B3BFF3B3B706CE00600374AA1235B004343022199546188C9
:40598000D318998022885A8022799A7100220AE0A318D979A1235B0073432D48C3189B18D971013292B29A235B00E35A9A42EFD9A12252006A4326498A183932FF3213800C
:4059C0002800FFF72FFD2379002B05D16388009300236A46137107E063881B0222881343009301236A46137108236A4653712D33FF33E15A0B0A0F221340102213436A46D4
:405A00009371D171022307E09A1EA218D1791A006A44917101339BB2072BF5D90C4EA1235B005D43741923003B33FF3306221A80684600F027F90123AB5522003432FF3247
:405A4000002111703734FF342380002005B0F0BD2C0700200022014B1A7070479A03002010B5214B1A78042A3CD893001F4AD3589F461D4B01221A7000225A70FCF714FDEC
:405A800030E0194B5B78012B2CD1012000F0EAFE154B02221A7000225A7023E0124B5B78042B1FD1104B04221A7000225A7019E00D4B5B78032B15D102220B4B1A7011E00D
:405AC000094B5B88002B02D10520FEF785FD064A5388591C5180C82B04D9130000225A8005321A7010BDC0469A03002090B800007047C0467047C0467047C046014B1878D9
:405B00007047C0469A030020014B58707047C0469A03002070B52B4C482363604B3BA3600525E56000232370200001F0D1FA01232370200001F0CCFA02232370200001F0B2
:405B4000C7FA03232370200001F0C2FA04232370200001F0BDFA2570200001F0B9FA06232370200001F0B4FA07232370200001F0AFFA08232370200001F0AAFA09232370DF
:405B8000200001F0A5FA0A232370200001F0A0FA0B232370200001F09BFA0C232370200001F096FA0D232370200001F091FA0E232370200001F08CFA0F232370200001F070
:405BC00087FA70BDA003002010B5FFF7A3FF10BD10B501F0B3FBFFF7F7FF10BD7047C0467047C046F8B5002540E06C01214B9C4664442368DB0737D527683F0C0F231F403A
:405C00001D4B5F752368DB0202D463685B0D01E06368DB08184A136123681B0D01210B401375002316E01E00032B07D9E2685807C01AC1003831CA40D2B206E0A2685807DB
:405C4000C01AC1001831CA40D2B20B498E19B2750133DBB2BB42E6D307481030FCF70EFD22680123134323600135EDB20E2DBCD9F8BDC046A0002E40A003002010B5FFF719
:405C8000B1FF10BD10B5124B02681A621A002032002111710479547144799471D1711A003032DA62002307E0C2189479084AD218302154540133DBB242799342F4D30448C8
:405CC000203001F0ABFB002800D0012010BDC046A003002010B5064801F0CAFD054C064B0F222100002002F0E3FD6378637110BD00B90000D8030020480F0020014B185CF6
:405D00007047C046D803002010B582B001AC00236370054B19542170044B0122210002F0DFFE02B010BDC046D8030020480F0020014B18707047C046E703002010B50020EA
:405D400001F03CFC01F08CFC10BDC04610B504F03BFE084904F06AF9041C01F027FC04F033FE211C04F02CFB03F0D2FF01F026FC10BDC0460000C84210B5024B1878FFF717
:405D8000E5FF10BDE703002010B5FFF7F5FF10BD10B501F0B5FC10BD10B501F0A9FC440001F082FC204344B201F092FC8000204344B201F081F8C0002043C0B210BDC046E7
:405DC000014B185C7047C046E803002010B50122064B1A54002802D100F04CFD04E0012802D1002000F04AFD10BDC046E803002010B50022064B1A54002802D100F03AFD63
:405E000004E0012802D1002000F038FD10BDC046E803002010B5002000F010FD012000F0C1FC10BD10B50400013948424141C8B200F0DCFC012002F063FAE30801200340D2
:405E4000A208024061080140204000F0AFFC012000F0D0FC012002F053FA002000F0CAFC10BDC04670B500F0B1FC01252840040000F0B0FC28404000044300F0AFFC2840C9
:405E80008000044300F0AEFC2840C000204370BD10B5012000F0AAFC012000F0AFFC012002F02EFA012000F0A5FC012002F028FAFFF7D8FF0F240440002000F09BFC002064
:405EC00000F09CFC200010BD10B5002000F096FC002300220021002000F068FC002000F089FC002000F082FC10BDC04670B5FFF7EBFF002000F07AFC012000F07FFCCA25F0
:405F00006D00012002F0FCF9012000F073FC012002F0F6F900F066FC0400002000F06AFC012002F0EDF9012000F064FC012002F0E7F9002000F05EFC012C02D10A2002F0BB
:405F4000DFF9013D002C01D0002DDAD1002000F055FCFFF7B9FF70BD70B504000D00FFF7C5FF20092900FFF75DFF0F2020402900FFF758FF002070BD70B584B06B460B4AB5
:405F800070CA70C31C0013682360032900D9032189006B46CB58C01880235B421843C0B20021FFF7D9FF04B070BDC04600BD0000F8B54F464646C0B40F009046031C0428EA
:405FC00000D90423DBB299463E1C142F00D91426F6B2002510E0E9B20020FFF7CDFF002407E02B007B434344185D0121FFF7B4FF0134B442F5D301354D45ECD30CBC904678
:406000009946F8BD70B50500FFF770FF00214020FFF7A2FF002405E0285D0121FFF79CFF0134E4B23F2CF7D9FFF760FF00218020FFF792FF70BDC04610B590B0494B1B78E2
:40604000012B10D0002B04D0022B2BD0032B54D07EE0444C00236370002000F0A3FB23780133237074E03F4B5B88002B0BD101223C4B5A70002000F0C1FB00230022002139
:40608000002000F093FB374B5B88102B03D80133344A53805CE0334B00225A801A7801321A7055E02F4B5B88002B03D100210320FFF7B8FE2B4B5B88052B03D1002103201B
:4060C000FFF7B0FE274B5B88062B03D100210320FFF7A8FE234B5B88062B03D80133214A538035E01F4C0023638000210220FFF799FE2378013323702AE000210120FFF7F9
:406100002BFF00210620FFF727FF00212C20FFF723FF00210820FFF71FFF00210320FFF71BFF402210492031684605F0CDF86846FFF768FF00210C20FFF70EFF002101208B
:40614000FFF70AFF642000F079FB0222054B5A70044B5878022802D100225A701A7010B010BDC046EA03002000BD000010B5FFF7BDFEFFF78DFE0001C4B2FFF789FE2043BD
:40618000C0B210BD70B50E00051C142800D91425EDB200210020FFF7EFFE002405E0FFF7E5FF335D984204D10134AC42F7D3002000E0012070BDC046F0B54F464646C0B49E
:4061C00083B005000AA800780CAC2478052803D00423012018438CE0022C03D804230220184386E0022A20D002D8012A15D012E0032A02D0042A07D00DE0012084467C3047
:4062000081466D38804617E0022084467B3081466D38804610E00C206BE004208446FA20C00081460120804606E008208446FA20C00081460120804698785E7836020643C8
:406240001879DB781B0203431BB29FB2002F01D0B94503D21023012018434AE080204002C01B864203DD1C230120184341E04046102802D15B00DBB202E0FB1DDB10DBB2E1
:406280000B984078834202D102339C4203D00423022018432DE06B46604618709A71D971002423E0A3196A4653804346012B0CD1E3080B9A944663449B7807222240134125
:4062C000012213406A4693800AE0630002330B9A944663445A781B781B0213436A469380694628002B6898470134A4B2BC42D9D3002003B00CBC90469946F0BD30B503A916
:40630000097805A80078062903D80423012018434AE0052803D004230220184344E09C785878000220431D79DB781B021D43049B9C785B781B022343834203D0142302206F
:40634000184331E0049B1C79DB781B0223439D4203D010230220184326E00F2A02D1F623DB0000E07B23002D01D0AB4203D210230120184318E00F2A03D1EB1DDB109BB20D
:4063800001E06B009BB20633994203D004230120184309E080235B025B1B984203DD1C230120184300E0002030BDC04670B50400002906D1406804F07DFF002363600020AC
:4063C0000CE04568280005F0A7F86060002804D1280004F06FFF022000E0002070BDC046016000234360836083818373C37300207047C04670B504000D1E02D0837BCD188C
:40640000ADB22900200023689847022801D0002D04D100236360A360A38105E0E37B626894466344A360A58170BDC04630B5050000240B4811E02B5D5840082309E0C20707
:4064400004D54008074A504080B200E04008013BDBB2002BF3D10134A4B28C42EBD330BDFFFF000001A0FFFF70B504AC20CC247801604260856004730022026210301900CC
:40648000FFF7AEFF70BDC04603238377023BC3770020704770B54469828B131F9BB2FC2B0BD82170023AA51891B22000FFF7BEFF2870000A6870002000E00120002801D0FC
:4064C000800000E0002070BDF0B587B0059104920CAC40CC27785C1EE4B2FC2C03D904230120184337E07C1EE4B2FC2C03D90423022018432FE031784CB2002C0BDA022FE6
:4065000009D14468002C04D073787F220A400599A04700201FE0049A1478A14216D00C230220184317E0E5008268944665442A78914208D16C68029701960093049B0A00E5
:406540000599A04707E00134A4B200E00024057BAC42E8D30C2007B0F0BDC046F0B55F4656464D464446F0B489B004900D001400039312AB1E88131F9BB2FC2B17D80F78B7
:40658000931E99466A46D382D18A2800FFF74EFF4B46EA18117853781B020B43984208D16B1C9846033CA3B20693002402E0012400E00824002C03D0A400012020433AE071
:4065C000331F9BB2FC2B19D8039B1A789346B51EA9B21800FFF72AFF039B9C4665442A786B781B02134398420AD163460122944663449A46F31E9BB2079302E0012400E094
:406600000824002C03D0A4000220204313E0002F01D0BB4503D02C23022018430BE06B461B7E6A46127F019252460092424639000498FFF749FF09B03CBC90469946A24658
:40664000AB46F0BDF8B506000C0017001D00002903D0022903D9042904D90C2025E0FA23DB0000E07D23002D01D0AB4201D210201BE080235B025B1B9F4201DD1C2014E085
:4066800030001030326A0521FFF7B4FE002801D008200AE0B3691C70B3693A0A5A709F70B3692A0ADA701D710020F8BDF8B54F464646C0B40400884615001E00531E9BB212
:4066C0007A2B01D9102033E080235B029B1A994201DD1C202CE0D7B27B00DBB29946991D1030226AFFF786FE00280DD008201FE059008A1DA06984466244715A080A1070B4
:4067000051700133DBB200E00023BB42F0D31023A2691370A3694246120A5A7042469A70A3692D0ADD701F71A3694A465A7100200CBC90469946F8BD102803D88000084B88
:406740001B589F4600200AE00731C91088B2053080B204E04900053188B200E00820704760BD000010B5064B1B689B0506D5002000F096FB80229200014B1A6010BDC0460A
:40678000800F284010B5064B1B689B0506D5002000F076FF80229200014B1A6010BDC046800F254010B500F087FF10BD70B50E0015001C0002F044FF300002F05FFF28003F
:4067C00002F07CFF200002F099FF70BD10B502F043FF10BD10B502F05DFF10BD10B502F079FF10BD10B502F095FF10BD10B502F0A5FF10BD10B502F095FF10BD10B5040092
:4068000002F0A8FF002C0CD0012002F00FFF012002F02AFF012002F045FF012002F062FF0BE0062002F002FF062002F01DFF062002F038FF062002F055FF10BD10B564287E
:4068400000D96420FA239B005843642103F084F80004000C01F0FAF910BDC04610B501F057FC10BD10B5FFF793FA10BD10B500F013FF10BD10B500F013FB10BD10B500F0E9
:40688000FFFE10BD10B5041E09D100F059F90C4800F07CF9802292000A4B1A600AE0012808D101F019F8084801F03CF880229200064B1A602000FFF789FA002010BDC04661
:4068C00065670000880F284085670000880F254010B50400FFF78CFA002C06D100F08AF900F0EAF900F03CF907E0012C05D101F04DF801F0ADF800F0FFFF002010BDC0469B
:4069000010B5FFF75DFA10BD10B5002802D100F0DFFE05E0012802D100F0CEFA00E0002010BDC04610B5002802D100F04FF905E0012802D101F016F800E0002010BDC046D4
:4069400010B50C00002802D100F084FA05E0012802D101F045F900E000202070C0239B02184205D1830405D4430405D5062004E0012002E0052000E0002010BDF8B505005B
:406980000F001600002804D10120FFF773FF002415E0012812D10120FFF770FF00240EE0002D03D1385D00F04FF904E0012D02D1385D01F015F80134A4B200E00024B442A4
:4069C000EED30020F8BDC04610B582B0040008220021684604F081FC684601F09BFC009B23801A0C6280024A136002B010BDC046F40300200322074B1A6080221206064BC3
:406A00001A6080229202054B1A602022044B1A607047C0463000304000003A4000033A40000E3F4010B504F00FFC03680C2B00D1FEE7FEE710B50300094A1068C318094A2E
:406A40009A1A802149008A4202DC054A136005E004F0FAFB0C2303600120404210BDC046E80000200010002070B50F4E0F4D13E029686B68AC68002202E001C901C30432ED
:406A8000A242FAD1E868002202E0002102C304328242FAD11035013E002EE9D104F0DAFBFBF76AFCFEE7C04601000000C0C0000010B500230AE0032B03D89A000B495058BE
:406AC00000E00B4899000B4A885001332B2BF2D9FBF76EFB084B1B68002B02D10022064B1A6080229205054B1A6010BD00200000256A000000000020B000002008ED00E0E8
:406B000010B50B2001F0ACFA10BDC04610B500F075F910BD10B500F087F910BD10B500F0F7F810BD10B5054A1368802109060B431360FFF7E5FFFFF7E9FF10BD00002840AB
:406B400010B5064B1B78002B04D1FFF7E7FF0122024B1A70FFF7E6FF10BDC046F803002010B50B2001F086FAFFF7D4FF054A13685B005B0813600022034B1A600B2001F0A2
:406B800083FA10BD00002840880F2840014B58607047C046F8030020094B1A68094B1B689A420BD0074B1B680133412B00D10023054AD05CC0B2034A136000E00020704717
:406BC000B80E0020B40E0020040F0020074B1B68074A1268934203D3054A1068181A04E0034A10681B1A413318007047B80E0020B40E002010B50B2001F03CFA0B4B1A687E
:406C00000B4B1A6000220B4B1A700B4B1A68802149020A431A601968084A0A401A60084A084B1A600B2001F01BFA10BDB40E0020B80E0020000F002004032840FFFFFEFFE2
:406C4000ED0F0000C00F2840144B1A68144B1B689A4208D1134B1B681F221340102B02D0114B186019E00D4B1A680132402A00D100220B4B1B689A42FBD002230B490B604C
:406C8000C0B20B49885405490A600A4A1268134203D1084A11680B4313607047BC0E0020B00E00200802284040022840800F2840C00E0020880F284010B50B2001F0DAF9C4
:406CC0000C4B1A680C4B1A600C4A136802218B4313600B4B1A68802149020A431A601968084A0A401A60084A084B1A600B2001F0B7F910BDB00E0020BC0E0020880F284014
:406D000004022840FFFFFEFFF3070000800F284070B5204A204B1A600024204B1C60204A204B1A60204A214B1A600721204B1960204B1C60012320490B6020490A60204AB3
:406D4000136004251F4B1D600B2001F093F903210B2001F0B7F91C490B2001F0A1F91B4B1C601B4B1C601B4B1C601B4B1C601B4B1D601B4B1C601A681A4B1A801A4B1C602E
:406D80001A4B1C601A4B1C701A4B1C601A4B1C6070BDC0460B080002000028404000284001000A00480028400700008000032840040328401003284044002840000228403A
:406DC000040228405000284091970000880E2840C80E2840480F2840080F2840C80F2840880F284000040020B80E0020B40E0020000F0020BC0E0020B00E0020064A1168E1
:406E0000064B0B40902109040B431360044B1A88044B1A607047C04600040240FFFF0FFF00040020880F2840064A1168064B0B401360064B1A68E423DB001340044A13808A
:406E40007047C04600040240FFFF0FFF880F28400004002010B50B2001F00CF9FFF7B6FE002806D00B2001F0FBF8FFF795FE040007E0094B1C680422084B1A600B2001F0E8
:406E8000EFF8064B1868D82292001A600002D8239B021840204310BD40032840C00F284004490A687F231A40C301D8B2104308607047C04600040440024B1B6801201840FE
:406EC0007047C04604060440054B1A6801210A431A601B68194201D1012000E00020704704002E4010B5802252010E4B1A60FFF7EBFF1A2001F0B4F80B4A116801230B434E
:406F0000136090239B0000E0013B002B03D0064A1268D207F8D5002B01D1012000E0002010BDC04600002E4010002E4003B2002B0DDB094A1168094B0B4000040343136039
:406F40001268074B1340984203D0012002E0022000E000207047C04614002E40FFFF00800000FF7F002809D10C4B19680C4A0A401A601B68DB040CD501300DE0074B1A68BC
:406F8000802149010A431A601B680B4203D1012002E0002000E000207047C04614002E40FFEFFFFF70B5841EE4B20D2C35D88C1EE4B2052C03D9002B31D1012931D1032AB7
:406FC00031D8904231D3914231D31C4D2C68240AE4B20F26B44320432E68194C3440000204432C602C686040F0242401204220D1002B00D002234901C9B29200D2B2114338
:4070000019430E4A1368EE2083430B4313601368034099420FD0ED380EE002200CE002200AE0022008E0022006E0022004E0022002E0012000E0002070BDC04614002E40F5
:40704000FFF0FFFF002809D10B4B1A6810218A431A601B6819420BD001300CE0064B1A6810210A431A601B68194203D1012002E0002000E00020704714002E40002809D120
:407080000B4B1A6801218A431A601B6819420BD001300CE0064B1A6801210A431A601B68194203D1012002E0002000E00020704714002E40054B18601B681B041B0C984284
:4070C00001D0012000E000207047C04604002E4010B503785B01204A944663441F4A41680A431A6003785B01634419681C4A11401C4A44682240914224D182681A6103783D
:407100005B0163441A6981688A421DD1C2685A6103785B0163445A69C1688A4216D1012252429A6103785B0163449A6901320FD10022DA6103785B016344DB69002B09D0BB
:40714000012008E0012006E0012004E0012002E0012000E0002010BDA0002E40800080007F007F007FFF7FFF10B503781B01104A944663440F4A41680A431A6003781B016A
:40718000634419680C4A11400C4A4468224091420AD182685A6003781B0163445A6883689A4203D0012002E0012000E0002010BD20002E4008008000F7007F00F7FF7FFFBF
:4071C00070B500240AE063001B199800104B1818FFF7CAFF002805D10134E4B2072CF2D9002500E00125002D0BD00FE0230108486030C018FFF76CFF002806D10134E4B2F3
:4072000000E000240F2CF1D900E00125280070BDA8BD0000002809D10C4B19680C4A0A401A601B689B040CD501300DE0074B1A68802189010A431A601B680B4203D10120E5
:4072400002E0002000E000207047C04614002E40FFDFFFFF10B580221206354B1A60354A136801218B431360F0235B0100E0013B002B03D02F4A1268D207F8D4002B4CD0B3
:407280001A2000F0F7FE2C491A2000F009FF03211A2000F017FF0320FFF748FE00281BD1FFF760FE002819D1FFF7B4FF002817D10023032203210630FFF774FE002811D1FE
:4072C0000130FFF7BFFE00280ED10130FFF7D6FE00280BD001230AE0012308E0012306E0012304E0012302E0012300E00023002B15D1FFF765FF002813D180204001FFF7FE
:40730000D9FE00280FD10B4B1A6807218A431A601B68194209D0013008E0012006E0012004E0012002E0012000E0002010BDC04600042E4010002E400974000010B5084BCF
:407340001B78002B02D1FFF785FF00E00020002804D10122024B1A70FFF7C4FD10BDC04602040020002809D10C4B19680C4A0A401A601B685B040CD501300DE0074B1A68B2
:407380008021C9010A431A601B680B4203D1012002E0002000E000207047C04614002E40FFBFFFFF054B1A6801210A431A601B68194201D1012000E00020704718002E4010
:4073C00070B5802252010D4B1A600125002411E00B4B1B682B4209D063010A4A944663441B689B0602D5200000F0C2F86D00ADB20134E4B20F2CEBD970BDC04600002E4012
:4074000008002E40A0002E4010B5034B1B68DB0401D5FFF7D5FF10BD00002E40F8B54F464646C0B4040001200023984691E04C4B1B6832041A427AD12379002B01D10027E8
:4074400001E08027BF036379002B07D12B01454A94466344226852055A6009E080235B031F432B013F4A944663442268D2005A60A379072B03D81B041F43B94603E0802345
:407480001B031F43B946E379002B03D004234A461A43914600232AE0032B13D92801324A94466044026894465907CA1AD1003831FF228A4067469743E268D25C8A403A43AB
:4074C000026012E02801274A94466044826894465907CA1AD1001831FF228A4067469743E268D25C8A403A4382600133DBB2A279934201D2072BCFD91A2000F0BBFD2B017F
:40750000184A94466344194A4F4617431F60227A002A04D0196803220A431A6003E0196801220A431A601A2000F09AFD00207600F6B2002807D00135EDB201E00126002542
:40754000072D00D873E7002806D043460133DBB298464346022BF1D90CBC90469946F8BD08002E4020002E402C002E40080080004001054B9C4660440368DB0703D5026801
:407580000123134303607047A0002E400004000C014B18607047C046080120400004000C014B18607047C04614012040024B18680004000C7047C046140120400004000C0A
:4075C000014B18607047C0460C01204070B504000D0002F0D6F8AC40024B1C6002F0D5F870BDC0460800204010B502F0CAF8064A116801230B43136002F0C7F81821012066
:40760000FFF7E4FF10BDC04600002040014B18607047C0463801204010B50D4C8023DB042360236823600020FFF7B0FF236823600C22084B1A600120FFF7E8FF3122064B83
:407640001A600648FFF7AAFF0020FFF7B7FF10BD0001204024012040280120408813000010B5064B1B78002B04D1FFF7D5FF0122024B1A70FFF7B8FF10BDC04603040020EC
:4076800004490A68D2B220239A434001184010430860704700060440024B1868800901231840704704040440024B186880090123184070470402044004490A687F231A40AF
:4076C000C301D8B2104308607047C04600010440024B1868800801231840704704040440024B1868000901231840704704020440024B1868400901231840704704020440C5
:4077000004490A687F231A40C301D8B2104308607047C04600020440024B1868C009012318407047040204408823014AD05070470000002010B5040002F023F8044A1168E5
:40774000044B0B40A4051C43146002F01EF810BD10E400E0FFFF3FFF8022D202014B1A607047C04600E100E08022D202014B1A607047C04680E100E010B50400FFF7F4FF68
:407780002000FFF7D1FF0320FFF7D4FFFFF7E4FF10BDC0460004000C014B18607047C046480120400004000C014B18607047C046540120400004000C014B18607047C0463A
:4077C0004C01204070B504000D0001F0DAFFAC40024B1C6001F0D9FF70BDC0460800204010B501F0CEFF064A116802230B43136001F0CBFF18210220FFF7E4FF10BDC046CF
:4078000000002040014B18607047C0467801204010B50022094B1A600C32094B1A600120FFF7F0FFFA24A4002000FFF7BBFF2000FFF7C0FF0020FFF7ADFF10BD4001204030
:407840006401204010B5064B1B78002B04D1FFF7DFFF0122024B1A70FFF7C2FF10BDC04604040020014B18607047C0467001204000B585B000236A465372803300937F3B46
:4078800013720133019303900249684600F0C4FF05B000BD480F002010B5082000F0E0FB10BDC04610B500F075F910BD10B500F083F910BD10B500F0F7F810BD10B5054A55
:4078C0001368802109060B431360FFF7E5FFFFF7E9FF10BD0000254010B5064B1B78002B04D1FFF7E7FF0122024B1A70FFF7E6FF10BDC0460804002010B5082000F0BAFBC7
:40790000FFF7D4FF054A13685B005B0813600022034B1A60082000F0B7FB10BD00002540880F2540014B58607047C04608040020094B1A68094B1B689A420BD0074B1B687B
:407940000133412B00D10023054AD05CC0B2034A136000E000207047700F0020640F0020740F0020074B1B68074A1268934203D3054A1068181A04E0034A10681B1A4133A4
:4079800018007047700F0020640F002010B5082000F070FB0B4B1A680B4B1A6000220B4B1A700B4B1A68802149020A431A601968084A0A401A60084A084B1A60082000F07B
:4079C0004FFB10BD640F0020700F0020680F002004032540FFFFFEFFED0F0000C00F2540144B1A68144B1B689A4208D1134B1B681F221340102B02D0114B186019E00D4BF1
:407A00001A680132402A00D100220B4B1B689A42FBD002230B490B60C0B20B49885405490A600A4A1268134203D1084A11680B4313607047F80F00206C0F0020080225400B
:407A400040022540800F2540B80F0020880F254010B5082000F00EFB0C4B1A680C4B1A600C4A136802218B4313600B4B1A68802149020A431A601968084A0A401A60084A4F
:407A8000084B1A60082000F0EBFA10BD6C0F0020F80F0020880F254004022540FFFFFEFFF3070000800F254070B5204A204B1A600024204B1C60204A204B1A60204B214A79
:407AC00013600721204A1160204A14600639204A1160204A1360204B1C6004251F4B1D60082000F0C7FA0321082000F0EBFA1C49082000F0D5FA1B4B1C601B4B1C601B4BD4
:407B00001C601B4B1C601B4B1D601B4B1C601A681A4B1A801A4B1C601A4B1C601A4B1C701A4B1C601A4B1C6070BDC0460B080002000025404000254001000A004800254022
:407B4000070000800003254004032540100325404400254000022540040225405000254075980000880E2540C80E2540480F2540080F2540C80F2540880F2540100400201B
:407B8000700F0020640F0020680F0020F80F00206C0F002005490B68F0229343603A13430B60034B1A88034B1A6070470003024010040020880F2540064A1368F0218B43A8
:407BC0001360054B1A68E423DB001340034A13807047C04600030240880F25401004002010B5082000F046FAFFF7BCFE002806D0082000F035FAFFF79BFE040007E0094B19
:407C00001C680422084B1A60082000F029FA064B1868D82292001A600002D8239B021840204310BD40032540C00F25400004000C014B18607047C046480220400004000C72
:407C4000014B18607047C046540220400004000C014B18607047C0464C02204070B504000D0001F08EFDAC40024B1C6001F08DFD70BDC0460800204010B501F082FD064A8C
:407C8000116820230B43136001F07FFD18212020FFF7E4FF10BDC04600002040014B18607047C0467802204010B50E4C8023DB042360236823600020FFF7B8FF23682360ED
:407CC0000C22094B1A600020FFF7E8FF3122074B1A60FA208000FFF7B1FF0020FFF7B6FF10BDC04640022040640220406802204010B5064B1B78002B04D1FFF7D5FF0122C6
:407D0000024B1A70FFF7B8FF10BDC0461204002082B0134B0093134B0193134B6A461A601249134A1160C0461B681B0F1B07F0221206934204D10C4B1B68FF2018400DE009
:407D4000094B1B681B0F1B07A0221206934204D0054B1B68FF20184000E0002002B07047B6E9000014040020080010401600008004001040104B114A1A601149114A11603B
:407D8000C0461B681B0F1B07F0221206934204D1094B1B68FF2018400DE0074B1B681B0F1B07A0221206934204D0034B1B68FF20184000E00020704708001040B6E8000046
:407DC000150000800400104082B0134B0093134B0193134B6A461A601249134A1160C0461B681B0F1B07F0221206934204D10C4B1B68FF2018400DE0094B1B681B0F1B07CA
:407E0000A0221206934204D0054B1B68FF20184000E0002002B07047B6EA00001404002008001040170000800400104030B5C5B004000023439342933D4B984273D80029EF
:407E400071D08022520002A803F03EFA394B0093FF230193384B6A461A603849384A1160C0461B681B0F1B07F0221206934204D1314B1B68FF2213400DE02F4B1B681B0FDA
:407E80001B07A0221206934204D02B4B1B68FF22134000E000234393439B002B45D101F070FC0500FFF734FF4290429B002B02D1FFF760FF4390439B002B25D1214A00925C
:407EC000009A2404144300941B4A694611601E481B490860C0461268120F1207F02109068A4204D1144B1B68FF2213400BE0124A1268120F1207A02109068A4203D00E4B8A
:407F00001B68FF2213404393429B002B07D1FFF75BFF4290429B002B01D0429B4393280001F033FC01E004234393439845B030BDFF010000B6D7000008001040040000809A
:407F400004001040B6D800000500008070B5040001F017FC0500102C05D8104A136803218B43136016E0202C07D80C490B6803229343023A13430B600CE0302C07D80749BD
:407F80000B6803229343013A13430B6002E0002000F084F8280001F0F8FB70BD300010400C4B1B689B001C22134018330A4A1268920803210A40D34008490868084A0240A1
:407FC0000A60084A944663441B78DBB2064A13607047C046080F03402800034000002240FFFFFFBF4DF3FF0F0C0F0340034B18688023DB05184000D0012070470000224062
:4080000070B505000C0001F0BCFB002D21D112490A680235AA4363002C001C4014430C600E4A1368802109060B431360002309E00A4A11680224214311601168A1431160BE
:408040000133DBB2042BF3D9044A13685B005B08136001F09AFB70BD00002F4020002F401F2318401E3B8340014A13607047C04600E100E01F2318401E3B8340014A136033
:408080007047C04680E100E01F2318401E3B8340014A13607047C04680E200E001BE704770B504000D001B2802D90020FFF7F6FF1034A40080239B059C46644420682560B8
:4080C00070BDC04670B504000E00032902D90020FFF7E4FF1B2C02D90020FFF7DFFF03252540ED00063501F04CFBA408A400074B9C46644421680323AB4099430B00310035
:40810000A9401943216001F040FB70BD00E400E0034A13681B041B0C02490B43136070470CED00E00400FA0510B5040006E0084B586801F01DFB074B9C46644480231B0248
:408140009C42F4D8024B9868604301F011FB10BDEC0000200080FFFF70B582B000F03AF900284DD001F00DFB0500264B1A6892001C231A401832244B1B689B0803210B40E8
